:020000040800F2
:1000000080F10420DD0100088F270008D5260008B4
:100010008D270008FD030008A5300008000000003F
:10002000000000000000000000000000B92F0008E0
:10003000630400080000000091270008BB2F00089F
:10004000F7010008F7010008F7010008F7010008B0
:10005000F7010008F7010008F7010008F7010008A0
:10006000650400086B040008F7010008F7010008A8
:10007000F7010008F7010008F7010008F701000880
:10008000F7010008F7010008F7010008F701000870
:10009000F7010008F7010008F7010008F701000860
:1000A000F7010008F7010008F7010008F701000850
:1000B000F7010008F7010008F7010008F701000840
:1000C000F7010008F7010008F7010008AD2F00084C
:1000D000F7010008F7010008F7010008F701000820
:1000E000F7010008F7010008F7010008F701000810
:1000F000F7010008F7010008F7010008F701000800
:10010000F7010008F7010008F7010008F7010008EF
:10011000F7010008F7010008F7010008F7010008DF
:1001200001040008F7010008F7010008F7010008C2
:10013000F7010008F7010008F7010008F7010008BF
:10014000F7010008F7010008F7010008F7010008AF
:10015000F7010008F7010008F7010008F70100089F
:10016000F7010008F7010008F7010008F70100088F
:10017000F7010008F7010008F7010008000000007F
:10018000F7010008F7010008F7010008F70100086F
:10019000F7010008F7010008F7010008F70100085F
:1001A000F7010008F7010008F7010008F70100084F
:1001B000F7010008F7010008F7010008F70100083F
:1001C000F7010008F7010008DFF80CD000F0AAF8EA
:1001D000004800472D52000880F10420064880475F
:1001E00006480047FEE7FEE7FEE7FEE7FEE7FEE71C
:1001F000FEE7FEE7FEE7FEE795300008C9010008CC
:100200002DE9F05F0546002092469B46884606464B
:10021000814640241BE0284641464746224600F0DE
:1002200070F853465A46C01A914110D311461846E9
:10023000224600F016F82D1A67EB01084F462246B9
:100240000120002100F00DF817EB00094E41201E9F
:10025000A4F10104DFDC484631462A464346BDE8A6
:10026000F09F202A04DB203A00FA02F100207047B8
:100270009140C2F1200320FA03F3194390407047E4
:1002800040EA01039B0703D009E008C9121F08C018
:10029000042AFAD203E011F8013B00F8013B521E98
:1002A000F9D27047D2B201E000F8012B491EFBD20F
:1002B00070470022F6E710B513460A460446194671
:1002C000FFF7F0FF204610BD421C10F8011B00296B
:1002D000FBD1801A704730B50B4601460020202222
:1002E000012409E021FA02F59D4205D303FA02F543
:1002F000491B04FA02F52844151EA2F10102F1DCA3
:1003000030BD202A04DB203A21FA02F00021704798
:1003100021FA02F3D040C2F120029140084319466D
:1003200070470000064C074D06E0E06840F001030E
:1003300094E8070098471034AC42F6D3FFF748FF23
:10034000A0600008C060000880B504484FF4006158
:1003500000F06AFCB0FA80F0400980BD0000024065
:100360000146254801F04ABE80B5234801F056FEFB
:10037000043818BF012080BD80B500F013F80128B3
:1003800004D11D4801F05EFE10B180BD022080BD89
:1003900019484FF4006101F0DBFC002818BF012070
:1003A00080BD00BFE0B501208DF80700FFF7CCFF4E
:1003B00010B900208DF807009DF807008CBD0000E3
:1003C0001CB514460A46014600930B48234601F02B
:1003D000B1FF002818BF01201CBD00BF1CB514468A
:1003E0000A46014600930448234602F08DF800288F
:1003F00018BF01201CBD00BFB83C0420FEE7000070
:10040000014800F0CBB800BF583C042010B501688B
:100410006FF00F02182308A452FA81F2B2FBF3F333
:100420005F2AE35C40F2FF3421EA040188BF043113
:10043000C0E91613084610BD000610160006101677
:10044000B0B50468806840280846256825F48025F2
:100450002560636008BF1046A06008BF0A46E260DE
:10046000B0BD7047042000F00BBB082000F008BBB3
:1004700004F074FEFCE70022AFF30080B0B50D4C31
:100480000346607A08B10120B0BD657A002060554E
:10049000657A04EB85056B60637A23441A72627A8D
:1004A000531C63723032C8700A7042F63A73A1F876
:1004B0000130B0BD4C3C042070B50446866D00F0A0
:1004C000BDFB054694F8350002281ED12068216C3A
:1004D000026822F016020260426922F08002426144
:1004E00009B9A16C19B1016821F008010160016826
:1004F00021F0010101600068C0070DD000F09EFBF3
:10050000401B052814D82068F5E7002084F8340043
:1005100080206065012070BDE06D3F2101FA00F090
:10052000B0600121002084F8340084F8351070BDDB
:1005300020206065002084F83400032084F8350012
:1005400070BDB0B530B1054690F83500022803D132
:10055000022420E001241EE028680024016821F024
:1005600001010160046044608460C4600461212171
:1005700041612846FFF74AFFE96D3F2202FA01F187
:10058000816005F13C001821FFF793FE6C6585F84A
:10059000344085F835402046B0BD0000F8B504462B
:1005A00000200090584A0821D4E91660156881405F
:1005B000376839420CD0226813685B0708D5136886
:1005C00023F004031360B160616D41F001016165C6
:1005D00001218140394208D022685269120604D5AF
:1005E000B160616D41F002016165042181403942D1
:1005F00008D022681268920704D5B160616D41F09D
:100600000401616510218140394217D020680268D9
:10061000120713D5B16002680168520306D4C905F8
:1006200006D4016821F00801016001E0080301D44B
:10063000216C00E0A16C09B120468847E16D2020C3
:1006400000FA01F23A423BD020680368DB0637D556
:10065000B26094F835300268052B19D122F01602E9
:100660000260426922F080024261226C0AB9A26CE7
:100670001AB1026822F0080202603F208840B06090
:10068000002084F83400012084F83500216D37E023
:10069000016852030CD4C9050ED4016821F0100181
:1006A0000160002084F83400012084F8350003E064
:1006B000080301D4616C00E0E16B09B12046884772
:1006C000606D00B3606DC00719D0052184F8351046
:1006D0004FF416502168B5FBF0F00A6822F00102D1
:1006E0000A60009A01320092824202D80A68D20758
:1006F000F7D1012084F83500002084F83400E16C43
:1007000009B120468847F8BD240000202DE9F041BA
:10071000044600F093FAACB10546022084F8350097
:100720002168002084F83400086820F00100086087
:100730000868C00709D000F081FA401B052839D8A5
:100740002168F5E70120BDE8F081271D0868354ADA
:1007500000EA020ED4E9050CD4E90728E8CF43EA01
:100760000E032B4333433B431843636A40EA0C00B8
:10077000042B40EA020040EA08021FD1D4E90A53E0
:10078000206B1A4340EA0200086051F8140F20F071
:10079000030040EA050040F00402B3B1BCF5005F7D
:1007A00024D0BCF1000F31D1022D32D0012D27D041
:1007B000002D2DE003262027032012E00A6051F8C7
:1007C000140F20F0070040EA030220460A60FFF7FA
:1007D0001DFEE16D3F220027012602FA01F1816032
:1007E0000020676584F83560BDE8F081032DECD802
:1007F000012640270120DFE805F0020C0203F0E7A4
:10080000A3F1C070B0FA80F0400904E0032D04D3D6
:10081000DBD1C3F300600028D7D001264027012098
:10082000DFE700BF3F8010F0B0B5044690F8340019
:1008300001282CD0012084F83400A56D94F83500EF
:10084000012821D1022084F835000020606520466F
:10085000FFF7F6FD2068E26D3F23216C03FA02F2F8
:10086000AA60026842F016020260426942F0800209
:10087000426119B1016841F008010160016841F06D
:10088000010101600020B0BD002084F83400022086
:10089000B0BD0000B0B5044600F0D0F905460548EB
:1008A000611C007818BF044400F0C8F9401BA04246
:1008B000FAD3B0BD180000202DE9F84FD44A0A241D
:1008C0004FF0000A4FF0000900279042D14A08BFBC
:1008D000092402444FEAB223092B38BF4FEAB2245D
:1008E000CD4A009401230F24A2F57E7B102F4AD01D
:1008F00003FA07F20A4240D00AF00C0CD24304FA81
:100900000CF8BC085BF824E0009B0EEA080503FA2B
:100910000CF6B54213D1C04B1D6815401D605D68D3
:1009200015405D609D6815409D60BC4B1D6815407D
:100930001D605BF8245025EA08054BF8245003237A
:10094000056803FA09F40F23A54305600AF01C05A6
:1009500003FA05F56FF0030303EA57060644336A0A
:10096000AB433362C368A343C36043681A40426029
:1009700001238268A2430F2482600AF1040A09F16C
:1009800002090137B2E7BDE8F88F00BF2DE9F8434F
:10099000344DDFF8D4800446082805F5806604BF8E
:1009A00040F60046C4F2020698F80400002856D02B
:1009B000082000F05FFC092000F05CFC2B480027B9
:1009C000814604600520FFF765FF3046214600F0B0
:1009D0002BF900284FF0FF3008BF01203F183846A0
:1009E00048BF78426528EDDB002F29D4082C16D1AA
:1009F000D8F818000130C8F8180004F0AFFB98F8D8
:100A0000020010B104F026FF09E002F0BDFC18A0BE
:100A100003F089FA18A003F086FA04F0A9FE002674
:100A2000632E0DDC0520FFF735FF2846214600F038
:100A3000FBF801284FF0000008BF701C0646EFE7E6
:100A40000820082400F028FC092000F025FC0820DC
:100A500000F002FC092000F0FFFBC9F80040BDE8EF
:100A6000F88300BF000C024048000020143C014005
:100A7000696D616765000000617564696F00000061
:100A800003490A68024208BF70470860FFF77EBF4B
:100A9000143C01402DE9FC4F5D4A0A244FF0000B45
:100AA0004FF0010A4FF0000C90425A4A08BF092447
:100AB00002444FEAB223092B38BF4FEAB224002286
:100AC0000094BCF1200F00F0A0800AFA02F60B6837
:100AD000334200F094804F68122F1AD80AFA07F3B5
:100AE00013F0061F15D003238468D1F80CE04FEAF9
:100AF000420903FA0CF30EFA0CF59C436FEA030E5D
:100B00002C4384603C0945689440B5432C434460C1
:100B100005E00323E14603FA0CF36FEA030EC56810
:100B20008C6805EA0E0504FA09F42C43C46047F00A
:100B30001004122C12D10BF01C040F2303FA04F53D
:100B40006FF0030303EA52070744D7F820800B69CC
:100B500028EA0505A3402B433B624F68036807F072
:100B6000030403EA0E0304FA09F423430360FB00C1
:100B700045D52B4C284F22F00305BE463D44236843
:100B800043F48043236023680F2403F480430193DC
:100B9000019F0BF00C03234F9C40B846EF5927EA06
:100BA0000404009F07FA03F3234345F80830DEF8F6
:100BB00000304D6843EA0604EF0358BF23EA0604F9
:100BC000CEF80040AF03DEF8043043EA060458BF15
:100BD00023EA0604CEF80440EF02DEF808300F4F97
:100BE00043EA060458BF23EA0604CEF80840AD02E3
:100BF0003B6843EA060458BF23EA06043C600BF155
:100C0000040B0CF1020C01325BE7BDE8FC8F00BF66
:100C1000002402400000FEBF003C01400C3C0140AB
:100C20004438024008FCFFFF0069084018BF01205B
:100C30007047002A08BF09048161704701480068B5
:100C4000704700BF7CE904207CB5044640684FEA49
:100C50003020032863D8DFE800F0020D020D206B7E
:100C6000A0B1FFF729FC88B1E06B012540F0080036
:100C7000E0630CE0606B0026A8B3FFF71DFC90B3A7
:100C8000E06B012540F00800E0632DE000252046E0
:100C9000022101226423012601F043FD30B1E06B03
:100CA000012540F00100E06384F83960204680218E
:100CB00000226423002601F034FD30B1E06B0125F1
:100CC00040F00100E06384F839502068C16921F4E4
:100CD0008061C1610196816801910199416821F0AB
:100CE000020141601EE000252068C16921F4806195
:100CF000C1610096C16800918168009100994168C6
:100D000021F0010141606168B1F5807F09D1E06B9C
:100D1000012540F04000E06384F8395002E00025EE
:100D200000E0C068012084F8390028467CBD98B1F5
:100D300010B50446022084F839002068C16921F406
:100D40008061C161204600F0FFF80020E06384F874
:100D5000390084F8380010BD01207047704790F8C2
:100D60003900704710B501684B688A685C0618D571
:100D700002F04104012C14D1826ACB6822F8023BB4
:100D8000C38D013BC3858262C28D32BB4A6822F0AB
:100D900060024A60012180F83910BDE8104000F07F
:100DA000D3B91C0617D512F0020414D0026A32F827
:100DB000023BCB60C38C013BC3840262C28C62B92C
:100DC0004A6822F0A0024A60012180F83910BDE88B
:100DD000104000F0F2B99B0600D410BD12F04003A1
:100DE00007D04B6823F060034B60C36B43F00203F2
:100DF000C363120707D54A6822F0A0024A60C16B9C
:100E000041F00401C163012180F83910BDE81040B0
:100E1000FFF7A4BFF8B500286BD0044690F839005E
:100E200028B9002084F83800204600F0AFF80221ED
:100E300084F8391040F6BF7520686369022BC269D7
:100E400022EA0502C261016205D104F1080502230C
:100E5000002626CD53E0D4E902120026E5692027BA
:100E6000212938BF0126002A08BF102707FA06F6F5
:100E7000012D1ED0022D1ED1314DAE462F687F02AE
:100E8000304F5CBF42F20047C0F2F4072D6805F016
:100E90003F05B7FBF5FC7546DEF88070DEF8805044
:100EA000C5F38815C7F3027705FB0CF5B5FBF7F71B
:100EB00002E0224F00E000272569B5F5007F03D14D
:100EC0000AB1B60000E0F600B7FBF6F606EB8606C0
:100ED0007600B6FBF3F30A260533B3FBF6F66FF0A4
:100EE000010303EB5603FE2B05D3E06B40F010002B
:100EF000E0630120F8BD730806F0010636023343B3
:100F00002B43036240F6BF75C369A669AB436568AE
:100F10002B430B4341F080011A43B02942EA0602F9
:100F200042F40062C26102BFC16941F48051C161F3
:100F30000020E063012184F83910F8BD0080BB0077
:100F40000438024000127A00B0B504460068464DED
:100F5000A84218BFB0BD0C48016821F4805101605F
:100F600005F5504048F28001FFF7A6FC05F5544016
:100F70000821FFF7A1FC606BFFF7E3FA2320BDE82F
:100F8000B04000F077B900BF443802402DE9F0438B
:100F900087B0044602A81421FFF78BF92068324E6F
:100FA000B0425ED1314802AD4FF0050800274FF046
:100FB0000209416941F480514161416901F4805164
:100FC00001910199016841F001010160016801F09E
:100FD000010101910199016841F00201016000687D
:100FE000294600F0020001900198CDF81880CDE963
:100FF0000477CDF80C9048F28000029006F550403E
:10100000FFF748FD0820CDE90578CDE90397029068
:10101000294606F55440FFF73DFD154D4FF40050AD
:101020004FF400614FF480624FF0C063114EC5E988
:101030000877C5E90063C5E90277C5E90421C5E978
:1010400006072846FFF762FB08B1FFF711FA2320D5
:1010500002210022AC63656300F02CF9232000F02C
:101060001BF907B0BDE8F083003001403038024082
:10107000583C042010640240BCB5044601200029FD
:101080005AD0002A58D094F83800012840D00120C6
:1010900084F8380094F83900012836D1042084F807
:1010A00039000D460020E063A1622168C86900F0A4
:1010B0000700052818BF032800D15200A285E28549
:1010C0001F4B1E4A606BC3641E4BC0E90F32CA69D6
:1010D00002F44072B2F5407F06D100220192CA6844
:1010E00001928A680192019AA38D0C312A46FFF77A
:1010F0009BFB78B1E06B002140F00800E063012029
:1011000084F8390084F83810BCBD002084F8380019
:101110000220BCBD2068C169490503D4C16941F4FE
:101120008061C1614168C90703D1416841F0010193
:101130004160002084F83800BCBD00BF1D270008B6
:10114000D7260008FB260008B0B5184DA868013066
:10115000A86068782A78411F18BF411CCBB29A4218
:101160000ED114494AF6404200FB0211104842F6E3
:1011700010323430FFF780FF286901302861B0BD9C
:101180000B48697000F134042046FFF7E8FD0128A0
:10119000FAD1687807494AF6404200FB021120461E
:1011A00042F61032BDE8B040FFF766BF48000020AD
:1011B000C0000020CC320020704770471848034917
:1011C00000780A6810440860704700BF7CE904207A
:1011D00080B5032000F08AF8002000F005F800F048
:1011E00023F8002080BD000070B50D4E04464FF47A
:1011F0007A713078B1FBF0F00A490968B1FBF0F080
:1012000001F054FA01250F2C08D838B94FF0FF30FF
:1012100021460022002500F04DF87460284670BD7C
:10122000180000202400002082B00A48016841F024
:1012300080510160016801F080510191019941687C
:1012400041F480414160406800F480400090009883
:1012500002B0704740380240002808D400F01F0157
:101260000122400902FA01F1014A42F820107047B8
:1012700080E200E000280CD400F01F0101224009A8
:1012800002FA01F1034A42F82010BFF34F8FBFF377
:101290006F8F704780E100E0002808D400F01F0144
:1012A0000122400902FA01F1014A42F82010704778
:1012B00000E100E070B5134B4FF0FF351B68C3F33E
:1012C0000223DC1E83F0070338BF0024042B28BF51
:1012D000042305FA04F605FA03F3B2439943A14047
:1012E0001143BDE8704001F0DFBE00BF05494FF675
:1012F000FF030A681A4060F30A220348104308609B
:10130000704700BF0CED00E00000FA052DE9FC4736
:10131000D0F800A00446E34E5FEACA7002D14FF055
:1013200000090BE0B06820F40000B060606BB168A9
:101330000143B0FA80F0B1604FEA50195FEA0A3019
:1013400002D44FF0000811E0E06BD6F88C1021F4C5
:101350004011B0F5801F41EA0001B0FA80F0C6F8F4
:101360008C1008BF4FF001094FEA50185FEACA20FD
:1013700011D5206CD6F88C1021F44001002841EAE8
:101380000001C6F88C1008BF4FF00108B0F5800FBF
:1013900008BF4FF001095FEA8A60574645D5306CB7
:1013A000C14F40F080503064306C00F080500190AC
:1013B0000198386840F480703860FFF73FFC0546BC
:1013C0003868C00505D4FFF739FC401B6428F7D9FD
:1013D000EBE1306F10F4407014D0216B01F44071D8
:1013E00088420FD0306F316F41F48031316720F483
:1013F0004070316F21F4803131673067306FC00742
:1014000040F0D9812768206BB268A84900F4407386
:1014100022F4F81201406FF31F30B3F5407F08BF8C
:101420000A43B260316F08433067F8060BD5D6F82F
:101430008C0020F08070C6F88C00A06BD6F88C1061
:101440000843C6F88C00780407D5606ED6F8901073
:1014500021F440310843C6F89000380407D5A06E47
:10146000D6F8901021F440210843C6F89000F80304
:1014700007D5E06ED6F8901021F440110843C6F865
:101480009000B80307D5206FD6F8901021F44001E2
:101490000843C6F89000780607D5606CD6F890101F
:1014A00021F003010843C6F89000380607D5A06C68
:1014B000D6F8901021F00C010843C6F89000F8050A
:1014C00007D5E06CD6F8901021F030010843C6F83B
:1014D0009000B80507D5206DD6F8901021F0C00116
:1014E0000843C6F89000780507D5606DD6F89010CF
:1014F00021F440710843C6F89000380507D5A06D67
:10150000D6F8901021F440610843C6F89000F80422
:1015100007D5E06DD6F8901021F440510843C6F885
:101520009000B80407D5206ED6F8901021F4404101
:101530000843C6F89000780207D5A06FD6F890103F
:1015400021F080610843C6F89000B8020DD5E06F25
:10155000D6F8901021F00061B0F1006F41EA00016F
:10156000C6F8901008BF4FF00108780307D5606FE8
:10157000D6F8901021F040710843C6F89000380268
:1015800008D5D4F88000D6F8901021F08051084397
:10159000C6F89000B9F1000F02BF0AF0807007F0A2
:1015A000007110EB010000F08380306820F0806053
:1015B0003060FFF743FB05463068000105D5FFF7B3
:1015C0003DFB401B6428F7D9EFE02068C10712D02B
:1015D000616B81B9D6F88410D6F8842001F44031CB
:1015E00002F070621144D4E9012341EA821141EA18
:1015F0000371C6F88410010303D5E16BB1F5801FB8
:1016000005D0C1021DD5216CB1F5800F19D1D6F8D6
:101610008410D6F88420E368656A01F4403102F052
:10162000E0421144626841EA821141EA0361C6F86E
:101630008410D6F88C20691E22F01F021143C6F8D0
:101640008C10C10110D5D6F88410D6F884202369F7
:1016500001F0706102F0E0421144626841EA8211D7
:1016600041EA0341C6F8841080010AD5231D0FCB3F
:101670001B0443EA801040EA026040EA0170C6F8A9
:101680008400306840F080603060FFF7D7FA05468C
:10169000306800010CD4FFF7D1FA401B6428F7D959
:1016A00083E000BF0038024000700040FFFCFF0FE5
:1016B00017F0080008BFB8F1000F79D0306820F0AB
:1016C00080503060FFF7BAFA05463068800005D5D3
:1016D000FFF7B4FA401B6428F7D966E020680103DD
:1016E00001D5E16B19B1C1021ED5216CE1B9D6F863
:1016F0008810D6F88820A56A01F4403102F0E04253
:101700001144D4E9052341EA821141EA0361C6F894
:1017100088106FF0FF01D6F88C2001EB052122F430
:10172000F8521143C6F88C10810214D5E16FB1F163
:10173000006F10D1D6F88810D6F88820236A01F0FF
:10174000706102F0E0421144626941EA821141EAAB
:101750000341C6F88810000718D5D6F88800D6F8D7
:101760008810E269E36A00F0706001F440310844D7
:10177000616940EA811040EA0270C6F88800D6F834
:101780008C0020F440301843C6F88C00306840F0DC
:1017900080503060FFF752FA04463068800007D46A
:1017A000FFF74CFA001B6528F7D30320BDE8FC8740
:1017B0000020BDE8FC87FFF741FA054641F2883773
:1017C000306F80073FF51EAEFFF738FA411B03204C
:1017D000B942F5D9EAE700002DE9F04100286AD0C6
:1017E000474F04468846D7F8000400F00F008842AF
:1017F0000DD2D7F8000420F00F0040EA0800C7F827
:101800000004D7F8000400F00F00404553D12068D1
:10181000810711D5410703D5B96841F4E051B9609A
:10182000010703D5B96841F46041B960A168BA689D
:1018300022F0F0021143B960C00736D1D7F8000496
:1018400000F00F0040450DD9D7F8000420F00F003C
:1018500040EA0800C7F80004D7F8000400F00F00C1
:10186000404528D12068410705D5E168BA6822F4CF
:10187000E0521143B960000706D52069B96821F428
:10188000604141EAC000B86000F042F8B9681D4A02
:10189000C1F30311515CC8401B4908601B48006834
:1018A000FFF7A2FC0020BDE8F0816068012805D1A7
:1018B000396889030AD40120BDE8F081396802281B
:1018C00002D18901F7D501E08907F4D5B96821F083
:1018D00003010843B860FFF7B1F9064641F28835C5
:1018E0006068B96801F00C01B1EB800FA6D0FFF77A
:1018F000A5F9801BA842F3D90320BDE8F08100BF01
:10190000003802403A5C0008240000201C0000203F
:1019100010B5134C606800F00C011248082903D080
:1019200004291CD1104810BD2168236801F03F0232
:1019300021685B02C1F3881105D4A1FB00010023DB
:10194000FEF75EFC03E008484843B0FBF2F0216874
:101950000222C1F3014102EB4101B0FBF1F010BDE5
:10196000043802400024F40000127A0070B586B0FA
:101970000D46014614461F481F4EE1B1B16A00F5FD
:10198000006041F00401B162B16A01F0040100910C
:1019900003210491022102914FF400710191002171
:1019A00005910391009901A9FFF774F83068E400EC
:1019B00020F0784018E0B16A41F00101B162B16AEB
:1019C00001F00101009103210491022102914FF4E1
:1019D00080710191002105910391009901A9FFF700
:1019E00059F8306820F0EC6044EA050108433060A3
:1019F00006B070BD00000240083802402DE9FC41ED
:101A0000002863D004460078CF4EC0070AD0B068E3
:101A100000F00C0004287ED13068800302D5606895
:101A2000002853D0207880071AD5B06810F00C0F2A
:101A300009D0B06800F00C00082840F08880706879
:101A4000400200F184803068800702D5E0680128F8
:101A50003CD12069316821F0F80141EAC0003060D2
:101A60002078000735D42078400745D4A76957B3BC
:101A7000B06800F00C00082840F0B2807068012FB8
:101A800024D0E16900F480028A421FD1216A00F06B
:101A90003F028A421AD147F6C071626A0140B1EB37
:101AA000821F13D1A16A4FF6FF72C903914300F45C
:101AB0004032A1F580318A4208D1E16A00F07060BD
:101AC000B0EB016F02D10020BDE8FC810120BDE830
:101AD000FC81706F6169002972D040F0010070676D
:101AE000FFF7ACF80546706F8007BCD4FFF7A6F887
:101AF000401B0228F7D901E1306CC0003BD4306CA8
:101B00004FF0010840F080503064306C00F080509D
:101B10000190019831E0B06800F00C00082803D172
:101B2000706840023FF578AF6068002800F09F8041
:101B3000B0F5803F07D03168B0F5A02F40F0CB80E2
:101B400041F480203060306840F48030C9E0306873
:101B5000E168002963D040F001003060FFF76EF8C3
:101B60000546306880073FF574AFFFF767F8401B04
:101B70000228F6D9C2E04FF00008744F3868C0055B
:101B80000FD4386840F480703860FFF757F8054686
:101B90003868C00505D4FFF751F8401B6428F7D911
:101BA000ACE0A06800284BD0012805D0316F052893
:101BB00073D141F004003067306F40F0010072E0F3
:101BC00020F001007067FFF739F80546706F800755
:101BD0007FF549AFFFF732F8401B0228F6D98DE0B8
:101BE000306820F080703060FFF728F80546022F3B
:101BF0000AD13068800140F18480FFF71FF8411B53
:101C000003200229F5D95FE7306880017FF55BAFDB
:101C1000FFF714F8411B03200229F5D954E720F0FF
:101C200001003060FFF70AF80546306880077FF54D
:101C300017AFFFF703F8411B03200229F5D943E74B
:101C4000306F20F001003067306F20F00400306703
:101C5000FEF7F4FF054641F28837306F800731D533
:101C6000FEF7ECFF411B0320B942F6D92CE73068A0
:101C700020F480303060306820F480203060FEF73F
:101C8000DDFF0546306880037FF5CCAEFEF7D6FF5A
:101C9000411B03206429F5D916E721F001003067C4
:101CA000306F20F004003067FEF7C8FF054641F2B0
:101CB0008837306F800705D4FEF7C0FF401BB8425D
:101CC000F7D91BE0B8F1000F3FF4D0AE306C20F034
:101CD00080503064CAE621F480303060306820F4EF
:101CE00080203060FEF7AAFF0546306880033FF58C
:101CF00099AEFEF7A3FF401B6428F6D90320BDE888
:101D0000FC811C341FCC0843D90340EA82104FF6F3
:101D1000FF72914340EA0460A1F58031084340F02E
:101D200000507060306840F080703060FEF786FFD1
:101D30000446306880013FF5C6AEFEF77FFF011B09
:101D400003200229F5D9BFE60038024000700040A8
:101D50002DE9F04186B004460320884684F834001B
:101D6000606C03280DD14FF08050A16BA24E084348
:101D7000A063A06B58B320680125866384F83450B3
:101D800030E0B8F1000F3FD0B8F5805FEBD0B8F588
:101D9000006F4FD10020CDE904000021206801F040
:101DA00001F8800149D404A9204601F041F8002837
:101DB000DBD19DF81600400739D5216D2068090454
:101DC00000F0E7FC0028D0D12068022142E094E82E
:101DD0000F00D4E90575CDE90087029500F0E5FF15
:101DE000206800254FF4007100F00AFD28B1216839
:101DF00001258E63A16B0843A063012084F83400A1
:101E0000284606B0BDE8F0810020CDE9040000219D
:101E1000206800F0C7FF80010FD404A9204601F01C
:101E200007F80028A1D19DF81600C00708D14FF08F
:101E300080609AE74FF0006097E74FF4006094E706
:101E4000216D2068090400F0A4FC00287FF48DAF08
:101E50002068002100F0EEFC87E700BF78B110B5E4
:101E60000446032084F83400206800F0AFFF2046C9
:101E700000F0F6F90020A06384F8340010BD0120C2
:101E800070470000B0B5D0E91942436CA50F0D7042
:101E9000012BC4F383654D70C4F301658D704FEA67
:101EA0001445CD704FEA14250D714C714FEA125450
:101EB000CC80C2F303440C72C2F3C0344C72C2F340
:101EC00080348C72C2F34034CC72C2F300340C7391
:101ED0004FF000044C7330D0002B40F0818040F66E
:101EE000FC73012503EA8202C36E42EA93720A611F
:101EF000C26EC2F3C2630B75C2F302634B75C2F3C9
:101F000042538B75C2F38243CB75C2F3C2330B7657
:101F10004FF4007303660B690C7E013304F0070471
:101F20000234A34043650C7A04F00F0405FA04F46C
:101F30008465640A6343C36512E002F03F02B0F8AF
:101F40006E3043EA02420A614FF480634FF400723C
:101F5000026682650A6903EB8222C2654265C26E2F
:101F6000C2F380334B76C2F3C6138B7602F07F0246
:101F7000CA76006FC20F0A77C0F341724A77C0F386
:101F800082628A77C0F38352CA77C0F3405281F8E5
:101F90002020002281F82120C0F3004381F8223064
:101FA000C0F3C03381F82330C0F3803381F824308C
:101FB000C0F3403381F82530C0F3003381F8263078
:101FC000C0F3812381F82730C0F30123C0B281F828
:101FD0002830400881F82900012081F82A0009E012
:101FE00001689D4A8A630122816B41F080518163BF
:101FF00080F834201046B0BDFF054000B0B500F1B8
:1020000044053CCD81E83C00426D0A61826D4A6125
:10201000C26D006EC8618A610020B0BD10B5044673
:102020000068216D090400F017FD20B1A16B084381
:10203000A063002010BD2068002100F0B3FEC0F3B3
:10204000432010BD10B590B1044690F8340020B97B
:1020500000202077204600F01DF9032084F834008A
:10206000204600F00DF80146012011B110BD0120FD
:1020700010BD0021A163216384F83400002010BD4D
:10208000F0B58FB07621044600680025CDE90055F3
:10209000029100220023002100F087FE08B10125F3
:1020A00015E02068416821F48071416000F092FEE3
:1020B0002068416841F480714160049500F0D4FBD0
:1020C00040B1012584F83450A16B0843A063284631
:1020D0000FB0F0BD206800F0EDFB50B10020A0640F
:1020E000206800F0C1FB0028EBD1A06C012802D0D1
:1020F00009E00120A0642068002100F04AFB10B133
:102100004FF08050DDE700214FF6FE76534D002062
:10211000049AC0B9B24216D82068002100F039FBF9
:102120000028CED12068294600F04EFB0028E7D1D8
:102130002068002100F036FE049901310491C0F3BB
:102140008071C00FE4E704984FF6FF72904202D30B
:102150004FF08070B5E7206801256164ADF80E503E
:1021600000F01CFE88B1606C032811D120680421A6
:1021700000F018FE000DE06404A92046FFF782FE7F
:10218000002846D04FF080509CE74FF0806099E7E0
:10219000206800F019FC00287FF494AF20682D4ED1
:1021A0000021B047606720680421B047A06720681D
:1021B0000821B047E06720680C21B047C4F88000D0
:1021C000606C0328D2D020680DF10E0100F05EFC97
:1021D00000287FF477AF606C0328C7D0BDF80E10DD
:1021E00020682165090400F006FC00287FF46AAF2E
:1021F00020680021B047606620680421B047A066CF
:1022000020680821B047E06620680C21B0472067AD
:10221000ACE7216D206800230A0400F0BBFB002816
:102220007FF450AF94E8EF008DE8E00000F0BDFDD2
:1022300020684FF4007100F0E3FA48B12168B14A18
:1022400001258A63A16B0843A06384F834503EE7FC
:1022500000253CE7A52D0008FF054000000010C147
:1022600010B50068314CA04218BF10BD0848016885
:1022700021F40061016004F55C404FF4F851FEF771
:102280001BFB04F560400421BDE81040FEF714BBC1
:10229000443802402DE9F04387B0044602A81421D7
:1022A000FEF707F82068214DA8423BD1204802AC38
:1022B0004FF00C084FF0030901260227416941F451
:1022C00000614161416901F4006101910199016876
:1022D00041F004010160016801F0040101910199DC
:1022E000016841F0080101600068214600F0080023
:1022F00001900198CDF81880CDF8149004960397BA
:102300004FF4F850029005F55C40FEF7C3FB042043
:10231000CDE90598CDE903760290214605F56040A8
:10232000FEF7B8FB07B0BDE8F08300BF002C01400A
:10233000303802402DE9F04F87B09A4616460D46D8
:102340000446FEF77BFC7DB1804694F834000128FA
:102350000ED10021A1630AEB0600E26D90420FD975
:10236000A06B40F0007006E0A06B40F0006002E05F
:10237000A06B40F00050A063012007B0BDE8F08FD3
:10238000032084F834004FF001094FF0020B20685D
:10239000676CC162CDE9051990210391CDF810B0A9
:1023A0004FF0FF3101914FEA4A21029101A900F05B
:1023B0000FFC012F18BF7602BAF1020F06D3C4F842
:1023C00030B03146206800F0B1FA05E0C4F8309032
:1023D0003146206800F0C4FA58B12168B24A8A63D5
:1023E000A16B0843A063012084F83400002121631D
:1023F000C3E7DDF84090DDF808B02068426B416B20
:1024000012F4957F2CD1BBF1000F18BF11F40040DE
:1024100012D00027EE19202F0BD0206800F0E2FC2C
:10242000010EF17030700437010C000AB170707049
:10243000F0E7ABF1200B3546FEF700FCA0EB0800FF
:102440004845DAD3206898498163A06B40F000408A
:10245000A063012084F834000020206303208CE76F
:10246000BAF1020F0FD311F480710CD0616C032903
:1024700009D000F05DFB0146206821B18A4A8263E1
:10248000A06B0843AEE7416B09070BD4416B89078A
:102490000ED4416B89061ED583498163A06B40F041
:1024A00020009FE780498163A06B40F0080099E716
:1024B0007D498163A06B40F0020093E700F092FC3D
:1024C0002860FEF7BBFBA0EB0800484512D204359C
:1024D0002068ABF1040B416BBBF1000F18BF11F486
:1024E0000011EBD140F23A518163012084F83400AD
:1024F000002042E720686C498163A06B40F00040F7
:1025000070E700BFFF0540002DE9F04F87B0984607
:1025100015460F460446FEF791FB7FB1824694F8BC
:10252000340001280ED10021A16308EB0500E26D03
:1025300090420FD9A06B40F0007006E0A06B40F015
:10254000006002E0A06B40F00050A063012007B0E3
:10255000BDE8F08F032084F8340001222068666C07
:10256000C1620692CDE90411902103914FF0FF3131
:1025700001914FEA4821029101A900F029FB012EA7
:1025800018BF6D02B8F1020F06D320202063294640
:10259000206800F0E9FA05E0102020632946206851
:1025A00000F0FCFA58B121683F4A8A63A16B0843E6
:1025B000A063012084F8340000212163C7E7DDF81F
:1025C0004090DDF808B06D462068426B416B12F414
:1025D0008D7F32D1BBF1000F18BF11F480401AD0AB
:1025E0000026B819202E13D001780091427841EAD4
:1025F00002210091827841EA02410091C07841EACB
:10260000006000902946206800F0FFFB0436E8E7F0
:10261000ABF1200B0746FEF711FBA0EB0A00484583
:10262000D2D3206820498163A06BA063012084F885
:10263000340000202063032089E7B8F1020F0FD394
:1026400011F480710CD0616C032909D000F070FA8C
:102650000146206821B1144A8263A06B0843A7E7B2
:10266000416B09070DD4416B890710D4416BC90632
:1026700013D440F23A518163012084F834000020E1
:1026800065E709498163A06B40F0080090E70649BF
:102690008163A06B40F002008AE703498163A06B6D
:1026A00040F0100084E700BFFF054000411E0020FD
:1026B000B0EB116F01D001207047044AF023516044
:1026C00003490B70906007211160704710E000E033
:1026D00023ED00E0FEE7806B01684A6822F0030208
:1026E0004A600021C184C185012180F83910C16B85
:1026F00041F00801C163FEF731BBC169806B09B1CC
:10270000FEF722BD01684A6822F001024A600021FA
:10271000C185012180F83910FEF716BD806BFEF7E8
:102720004BBD2DE9F843984616460F460446FEF782
:1027300085FA814608F10105206880683840C01B91
:10274000B0FA80F04009B04210D0002DF4D0FEF76E
:1027500075FAA0EB09004045EED3012084F839005A
:10276000002084F838000320BDE8F8830020BDE88D
:10277000F883000010B5034C0348611CFDF77BFE95
:10278000207010BD38000020D85C0008FEE77047BC
:10279000704710B586B004464FF480600590002065
:1027A0000490402003903720CDE9011001A9204674
:1027B00000F01BFB2046372141F2883206B0BDE80D
:1027C000104000F017BA000010B586B004464FF470
:1027D0008060059000200490402003902920029002
:1027E00006480843019001A9204600F0FEFA204661
:1027F00006B0BDE8104000F0AFBA00BF0000108086
:1028000010B586B004464FF4806005900020049017
:10281000402003901020CDE9011001A9204600F0CE
:10282000E4FA2046102141F2883206B0BDE810409B
:1028300000F0E0B910B586B004464FF48060059012
:1028400000200490402003900620CDE9011001A94A
:10285000204600F0CAFA2046062141F2883206B02E
:10286000BDE8104000F0C6B910B586B0044600209F
:10287000CDE90300CDE9010001A94FF48060059086
:10288000204600F0B2FAA9484FF4FA510068B0FBB4
:10289000F1F041F288314843C043013006D2616B08
:1028A0000906FAD5C520A063002001E04FF00040E2
:1028B00006B010BD10B586B004464FF48060059098
:1028C00001A90020049040200390082002904FF4BA
:1028D000D5700190204600F088FA94484FF4FA51E0
:1028E0000068B0FBF1F041F288314843C043013049
:1028F00013D2616B11F0450FF9D011F40061F6D1DC
:10290000606B40070CD4606BC0070BD1606B400656
:1029100001D54020A063002006E04FF0004003E016
:10292000042000E00120A06306B010BD10B586B001
:1029300004464FF4806005900020049040200390EE
:102940001220CDE9011001A9204600F04EFA2046E0
:10295000122141F2883206B0BDE8104000F04AB9B9
:1029600010B586B004464FF48060059000200490B6
:10297000402003901120CDE9011001A9204600F06C
:1029800034FA2046112141F2883206B0BDE81040E9
:1029900000F030B910B586B004464FF48060059061
:1029A00001A900200490402003900720CDE90120D8
:1029B000204600F01AFA2046072141F2883206B07C
:1029C000BDE8104000F016B910B586B004464FF4CB
:1029D0008060C02105900391002002210490CDE980
:1029E000010101A9204600F000FA204606B0BDE82A
:1029F000104000F08BB910B586B004464FF48060EB
:102A0000059000200490C02003900920CDE901101A
:102A100001A9204600F0E9F9204606B0BDE81040C3
:102A200000F074B910B586B004464FF480604021C0
:102A300005900391002033210490CDE9010101A903
:102A4000204600F0D2F92046332141F2883206B008
:102A5000BDE8104000F0CEB810B586B004464FF483
:102A60008060059000200490402003900D20CDE967
:102A7000011001A9204600F0B8F920460D2141F2CD
:102A8000883206B0BDE8104000F0B4B8B0B586B0EA
:102A90000C4605464FF480604021059003910020CC
:102AA00003210490CDE9010101A9284600F09DF918
:102AB000B9484FF4FA510068B0FBF1F041F28831A7
:102AC0004843C04301301FD2696B11F0450FF9D064
:102AD00011F40061F6D1686B400718D4686BC00729
:102AE00017D12869C0B2032817D1C520A863686927
:102AF00010F4604F13D0410415D400044FF48050FB
:102B000058BF4FF4803006E04FF0004003E004204F
:102B100000E00120A86306B0B0BD0120FBE7000C77
:102B200020800020F7E74FF40050F4E72400002055
:102B300010B586B004464FF48060402105900391A3
:102B400000200C210490CDE9010101A9204600F0EC
:102B50004CF9044A20460C2106B0BDE8104000F0B4
:102B600049B800BF00E1F50510B586B004464FF442
:102B70008060059000200490402003901920CDE94A
:102B8000011001A9204600F030F92046192141F238
:102B9000883206B0BDE8104000F02CB810B586B001
:102BA00004464FF48060059000200490402003907C
:102BB0001820CDE9011001A9204600F016F92046A1
:102BC000182141F2883206B0BDE8104000F012B87A
:102BD000B0B591E83C00426283620A6945EA0403A9
:102BE00049691A431143C26A22F0F7021143C162D4
:102BF0000020B0BD10B5034667484FF4FA54006892
:102C0000B0FBF4F05043013001383FD05A6B12F062
:102C1000450FF9D012F40062F6D1586B400738D452
:102C2000586BC00737D1C52098631869C0B2884275
:102C300034D158693449084232D0002832D4410096
:102C400033D4810033D4C10033D4010134D44101E1
:102C500035D4C10136D4010237D4410238D48102BF
:102C600039D4C1023AD441033BD481033CD4C103DB
:102C70003DD401043ED441043FD4810440D4000734
:102C80004FF4000058BF4FF4803010BD4FF00040AB
:102C900010BD042000E00120986310BD012010BD8C
:102CA000002010BD4FF0007010BD402010BD8020EE
:102CB00010BD4FF4807010BD4FF4007010BD4FF484
:102CC000806010BD4FF4006010BD4FF4805010BD07
:102CD0004FF4005010BD4FF4804010BD4FF4004041
:102CE00010BD4FF4003010BD4FF4802010BD4FF4E4
:102CF000002010BD4FF4801010BD4FF4001010BD27
:102D00004FF4800010BD00BF08E0FFFD22494FF4E2
:102D1000FA520968B1FBF2F141F288325143C943DA
:102D2000013110D2426B12F0450FF9D012F400625B
:102D3000F6D1416B490709D4416BC90708D1C521B8
:102D40008163002106E04FF0004103E0042100E030
:102D500001218163084670470F494FF4FA52096810
:102D6000B1FBF2F141F288325143C94301310ED235
:102D7000426B12F0450FF9D012F40062F6D1416BAC
:102D8000042211F0040108BFC522826301E04FF064
:102D900000410846704700BF24000020006800F092
:102DA00003007047084440697047B0B51143049A66
:102DB000446847F6FF651943AC431143059A114334
:102DC000069A1143214341600020B0BD00210160FB
:102DD0000020704780B5032101600220FDF75AFDF5
:102DE000002080BDD0F88000704770B591E83C00AD
:102DF000826040F6FF762343C26809692B43B243E1
:102E000019431143C160002070BD0968C0F88010EB
:102E10000020704710B5524C01202070FDF7A4FA35
:102E200018B9207800F0FE002070207810BD00BF97
:102E30002DE9F04188B00C460546FDF7FFFE064639
:102E40000020CDE9000008212868FFF7D9FC002800
:102E500051D1296D28680904FFF79BFC00284AD14D
:102E60000120079002A90020069002200590302042
:102E70000490082003904FF0FF3002902868FFF77D
:102E8000A7FE2868FFF7CEFDA8BB0027E846296803
:102E9000486B10F02A0F14D1486B800203D4486BA2
:102EA000800406D40DE00846FFF79CFF48F8270091
:102EB0000137FDF7C3FE801B01304FF00040E6D123
:102EC00019E0486B000710D4486B80070FD4486B9B
:102ED00080060ED440F23A508863DDE9000100BA62
:102EE00009BAC4E90010002005E0082002E0022031
:102EF00000E02020886308B0BDE8F08110B5184CD0
:102F000001202070FDF738FA10B9FFF783FF207019
:102F1000207810BD10B588B0084611490978C90756
:102F20000BD103280BD81446DFE800F018020B1170
:102F30006846FDF715FA06980EE003200EE004201F
:102F40000CE06846FDF70CFA0798208005E068461B
:102F5000FDF706FA0798400A2060002008B010BD6F
:102F60002000002080B5084611461A464FF47A73B7
:102F7000FDF726FA08B1012080BDFDF7F5F900281C
:102F8000FBD1002080BDFFF745BF80B50846114644
:102F90001A464FF47A73FDF721FA08B1012080BD7B
:102FA000FDF7E2F90028FBD1002080BD0148FDF7C4
:102FB000D9BE00BFF40000207047FEF7FFB8000044
:102FC000B0B5B4B023A814210024CDE92944FDF7FD
:102FD00070F902A88421FDF76CF92B480122022523
:102FE000016841F080510160006800F0805001905C
:102FF00001982648016862F38F310160006800F48F
:10300000404001900E20339004203290A82031904F
:103010000820CDE92F40CDE92D251020CDE92B202A
:103020000A202890019828A8FEF7E8FC48BB4FF436
:1030300080502790CDE9254002210F20CDE92305BE
:1030400023A8FEF7C9FBE0B93221022003910690C4
:103050000F4902910021CDE92111059004200F9123
:1030600004904FF4007102A80E9101210B91FEF71C
:103070004DF930B9002000210022FEF777FC34B072
:10308000B0BDFDF7F5F900BF4038024000700040C8
:103090002100A0000248016841F4700101607047FE
:1030A00088ED00E0FEE7000010B500F00F03064CCD
:1030B000044AB0F1FF3F2344C8BF831808011870C9
:1030C00010BD00BF00E400E014ED00E0F0B58AB0F0
:1030D000D0E900C5D0F808E09EED000A9EED011A87
:1030E0009EED022A9EED033A9EED044A8DED090AFB
:1030F0008DED081A8DED072A8DED063A8DED054A06
:1031000000261F4695ED005A95ED017AD5ED021A7D
:1031100095ED036AF0EE610AF0EE452A07B38C19CB
:1031200090190436013F94ED005A8DED045A8DED4F
:10313000035ACDED022A60EE051A41EE221A42EE44
:10314000071AB0EE627A43EE201A44EE061AB0EE89
:10315000606AC0ED001ACDED011ACDED000AD9E785
:10316000C5ED002A85ED017AC5ED020A85ED036AF9
:10317000BCF1010C05F110050EF1140E1146ABD196
:103180000AB0F0BDB0B5016005468260090118467D
:103190001C46FDF78EF86C60B0BD0000B0B504466B
:1031A0004FF0FF3060630020E070204602F00EFA1E
:1031B00008B10420B0BDB4F836024AF65521884261
:1031C0001CD194F83800E92805D0EB2818D194F8E0
:1031D0003A00902814D104F16E0002F025F820F096
:1031E0007F40084DA84207D004F18A0002F01CF885
:1031F00005F14C51884203D10020B0BD0320B0BD81
:103200000220B0BD4641540010F8012B0AB18A4299
:10321000FAD1104670470000F0B50022904B002410
:10322000202A11D09D5865B10668B5420AD19D1873
:1032300087686E68BE4205D1AE684769BE4201D15B
:103240000BE001241032EBE71222002C18BF002201
:10325000881E18BF1046C0B2F0BD09B11020FAE7B1
:10326000A889A0F58070B0FA80F040090001F2E76B
:1032700010B500217A4A0023202B05D0D45884426F
:1032800008BFD1501033F7E710BD00BF0268C36A12
:10329000490A5089B1FBF0F0191D0A6822B1904229
:1032A00004D3801A0831F8E70020704749680844C1
:1032B0007047C2690239023A91422FBF0020026B67
:1032C000408901FB002070472DE9F0418846074600
:1032D000046841B13846414601F052FD022809D246
:1032E0000120BDE8F081256915B1E069854207D369
:1032F000012505E0411C1AD0E1694546884231D3D9
:103300002E46E0690136864228BF022601D3022DEF
:103310000AD33846314601F033FD411C22D050B16A
:1033200001281FD0AE42ECD10020BDE8F0814FF063
:10333000FF30BDE8F081204631464FF0FF3202F009
:1033400061F90146B8F1000F06D029B9204641467F
:10335000324602F057F9014631B10120012908BF78
:103360004FF0FF30BDE8F081E16960692661023904
:10337000884201D801386061207940F00100207155
:103380003046BDE8F08100002DE9F04190B0002406
:103390000DF10205DFF86480194F02AE2846414660
:1033A000224602F077FB384600F0F2FB3046294611
:1033B00000F0BEFF8DF83F00304600F024FC9DF881
:1033C0003F0028B19DF83F00052803D001F0A8FE7A
:1033D0000134E3E70A4800F0DBFB0DF102048DF84D
:1033E0003F00204600F09FFD8DF83F00204600F092
:1033F000CFFB8DF83F0010B0BDE8F081EE5D000816
:10340000EC5D0008BCB514460B22054600F06CFECE
:103410008DF807006B46284621462C2201F0C8F89B
:103420008DF807009DF80700BCBD000010B5411ED7
:10343000012910D80A4A02EB01108389B3F5807480
:1034400018BF1C46002C18BF013C848120044FF09B
:10345000000002D010BD022010BD0901505010BD67
:10346000340100202DE9FE4F00210446D0F800A0D1
:1034700000F0FAFA08B1BDE8FE8F4FF0FF3704F113
:1034800024054FF0FF0B4FF00D084FF0FF092763A5
:10349000E169504602F09AF80028ECD1266A3078AB
:1034A000002800F08B80F27AE52802F03F01A1713C
:1034B00003D012070BD50F2909D027634FF0FF0B5C
:1034C0002046002100F080F80028E1D0D3E70F2942
:1034D0000AD194F82F104906F2D441061BD45FFAA2
:1034E0008BF18842EAD11CE05FEA0B6004D13046E0
:1034F00002F0CAF9814564D094F82F00C007DCD1EE
:103500000020295C325C0A2802D001308A42F8D0BF
:103510008A42D2D155E096F80D906169216300F09E
:10352000BF0B707B8145C9D1708B0028C6D1DAF8FA
:103530000C000190CDF800904FF00009307800F0B9
:103540003F0000FB08F0A0F10D080120B9F10D0FBC
:103550001FD0A64911F80910775A90B1B8F1FE0FA3
:1035600020D8384601F00EF90290019830F8180082
:1035700001F008F90299814214D108F10108384696
:1035800004E04FF6FF7087420CD1002009F10109D9
:10359000DCE750B1307810F0400006D0019830F8E8
:1035A000180010B14FF0FF0B01E0ABF1010B4FF031
:1035B000FF374FF00D08DDF8009081E70420BDE8EB
:1035C000FE8F0020BDE8FE8F2DE9F0470446C0695C
:1035D000042690B18A4661693E4A01F12005954270
:1035E0000BD82F46D4F800906FF35F2747B109EB53
:1035F000070000266561383020623046BDE8F0875C
:10360000A1690130E06171B1B9F80A00104400F518
:10361000C00010EA552FEAD1204601F0B1FB022884
:103620000AD20226E9E7B9F80800B0EB551FDED848
:103630000020E0610426E0E78046013023D0D9F87D
:103640001C00804507D248464146C4F81880FFF761
:1036500030FEE061CBE7BAF1000FE9D0A169204666
:10366000FFF732FE80460130032808D21A4901EAEA
:10367000C0001A4921FA00F0C0B2BDE8F087484600
:1036800002F054F908B10126B7E709F138004FF408
:103690000071FCF70EFE48464146FFF70AFE4FF068
:1036A000000A0126B9F80A10C9F834008A450CD27C
:1036B000484689F8036002F039F900289DD1D9F80D
:1036C00034000AF1010A0130ECE7A0EB0A00C9F866
:1036D0003400B8E7FFFF1F00F8FFFF0001070200FA
:1036E0002DE9F84F044605684FF0FF0904260D2721
:1036F000DFF870A34FF6FF7B4FF0FF08E169002968
:103700005FD0284601F062FF002858D1206A017876
:10371000002959D0C37A2E2903F03F02A27118BFA5
:10372000E52909D14FF0FF09204600210026FFF7C7
:103730004BFF0028E2D042E003F01F03082BF1D03A
:103740000F2A47D14A0604D45FFA89F29142E9D19F
:1037500005E090F80D806269226301F0BF09417BAA
:103760008845DFD1418B0029DCD10278E96800234C
:1037700002F0BF027A4301270D3A0D2B0FD01AF841
:103780000360865B37B1FE2A15D821F8126001323A
:10379000374602E05E450ED100270133EDE70078A1
:1037A0000D27400604D5FE2ABCD8002021F81200BF
:1037B000A9F10109B8E74FF0FF090D27B4E7064664
:1037C00003E016B9002602E004260020E061F0B212
:1037D000BDE8F88F5FEA096103D102F055F8804532
:1037E000F0D04FF0FF302063ECE700BFCA5C000868
:1037F0002DE9F04F89B0044690F82F0010F0A00F8B
:1038000003D0062009B0BDE8F08F25680027E868DE
:1038100030F8171001370029FAD104F1240104A867
:103820000C22029101F0CAFE9DF81B100395C807F7
:1038300003D1880767D401256BE00126884D4FF03E
:1038400003090DF11C084FF0000A4020019184F893
:103850002F00642E00F0E080039804A90B22D0F81A
:103860000CB0029801F0AAFE062E314612D3BBF826
:10387000000078B1102252B100F00103013A400873
:1038800043EA4103090448BF6B401946F3E70BF1D3
:10389000020BECE7B446072006231A460B460E0936
:1038A00069F31F13392B88BF073308F8003001383C
:1038B000BAEB111FA2F101033146EED17E2108F8C7
:1038C000001000213AB1631893F82430202B03D064
:1038D000013A0131F6E701466646072804EB010389
:1038E00001F101019ABF18F80020013020220829B7
:1038F00083F82420F1D32046FFF7B4FD002840F0E0
:1039000089800136A5E707F10B000D21B0FBF1F02E
:10391000451C20460021276800F0A6F800287DD02D
:10392000042808BF072000287FF46CAFB5F1010B15
:10393000039D54D06069A0EB4B11204600F094F831
:1039400000287FF45FAF029801F09EFF82464FF699
:10395000FF76DFF810914FF00108039DE1692846DA
:1039600001F034FE00287FF44DAF206A0F21D5F816
:103970000CC05FFA8BF300220025A0F80B100D217C
:10398000428380F80DA04B430D3B19F80270B542FD
:103990001ABF3CF8135001334FF6FF750132290A64
:1039A000002DC5550744797008BF35460D2AECD166
:1039B000B54204D03CF813100029594601D14BF010
:1039C0004001039D01702046002185F80380FFF728
:1039D000FBFD00287FF416AFBBF1010BBED1E169FE
:1039E000284601F0F3FD00287FF40CAF206A202167
:1039F000FCF75FFC206A02990B2201F0DFFD94F8CE
:103A00002F10206A01F01801017301200399C8707A
:103A10000020F7E6642E1BD10720F3E60026E169BB
:103A2000384601F0D3FD00287FF47AAF206A007891
:103A3000E52818BF002803D10136AE4201D175E751
:103A4000002620460121FFF7BFFD0028E7D067E7E9
:103A500004287FF4D7AE019984F82F10E9E600BF5F
:103A600021100100CA5C00082DE9F04104462448F9
:103A7000014202D00220BDE8F081A7680D46D4F8CB
:103A8000008061619FB1B8F80A004602B5421FD3B9
:103A90002046394601F074F9074601302CD0022F38
:103AA000E8D3D8F81C008742E4D2AD1BEEE798F8C3
:103AB0000000032803D3D8F82C70002FE3D1B8F806
:103AC0000800B0EB551FD5D9D8F82C00002703E02B
:103AD00040463946FFF7EDFB0028C4E90670C9D01F
:103AE00000EB55206FF35F2508EB05013831C4E981
:103AF00007010020BDE8F0810120BDE8F08100BF92
:103B00001F00E0FF214A115C09B10020704701212C
:103B10001154111802EB80004068097A02680846C7
:103B2000104700BF10B5194C231804EB80001B7A16
:103B30004068D0F810C01846BDE81040604700BF8C
:103B4000B0B5124D2C1805EB8000247A4068D0F8EF
:103B500008C02046BDE8B040604700BF0B4A1118BE
:103B600002EB8000097A406842680846104700BFAF
:103B7000B0B5064D2C1805EB8000247A4068D0F8CB
:103B80000CC02046BDE8B040604700BF4C3C04205C
:103B900010B590B00F900FA801A9002200F032FEDE
:103BA000D8B90F9902A8019C029400F063FF042881
:103BB00009D090B99DF93700B0F1FF3F05DD9DF8C0
:103BC0000E00C00603D4052007E0049803E00A991C
:103BD000204601F01DFBA061002010B010BD1CB5F7
:103BE000044600F09EFC00B11CBD01A9204601F076
:103BF000C3FE0028F8D12069FFF718FC0028F3D194
:103C0000002020601CBD1CB501A9044601F0B4FED3
:103C100000B11CBD206918B1FFF708FC0028F8D1DD
:103C2000002020601CBD2DE9F04FD5B08846002152
:103C30000170549054A8002246A900F0E3FD00282A
:103C400059D1469DE946DDF850A147AF4646479514
:103C500009F11404D5F818B0CDF824B1BBF1000F68
:103C60004CD038462021FFF7FFFE002840D14E9966
:103C7000284601F0ABFCD8BB4F99284601F0C8FAA2
:103C8000499038460021FFF7EFFE88BB3846FFF722
:103C900027FD50BB4F99284601F0BAFA834506D05C
:103CA00038460021FFF790FC0028EFD01DE0384691
:103CB000494601F0BDF81621012219F801301046DD
:103CC00001320131002BF8D114398E422DD3013E3F
:103CD000012804D0215C01380AF80610F7E72F20EC
:103CE0000AF80600DDF824B1B8E7042808BF02206E
:103CF00000218AF8001055B0BDE8F08F464504D188
:103D00002F200AF8010B0020F2E70AF101011AF84E
:103D100006000136464501F8010C03D20131DDF8F9
:103D200050A1F4E700208A46E2E71120E0E72DE900
:103D3000F84F0E466946044601F01EFE054600286F
:103D400040F0E080657D002D40F0DC80E16A31B319
:103D5000701C32D0E068B04238BF0646A661002E23
:103D600000F0CF80751E20462946FFF78FFA009F8E
:103D70000146E0613846FFF79CFA002800F09E807B
:103D8000F10500F0BE807989226A013901EA5521E6
:103D90000E18964200F0B58094F91400A3E0E7688D
:103DA000B74234D2207D800732D5A0463746002165
:103DB00058F8180FC8F8001032E08B46A0680227A8
:103DC0005BF8048BD8B1DDF80090824602370026FC
:103DD00005462046294600F0D3FF01286ED9411C34
:103DE0005CD0691C013605468842F2D0474598BF31
:103DF000EBE8026AD9F81C108842E6D3E16A0F604A
:103E000047458EBF11250025CBF800507AE0374694
:103E1000A0460026002F58F8180FC8F8006051D0AF
:103E2000009D69894FEA412638B17A1E0138B0FBFE
:103E3000F6F1B2FBF6F28A4203D2A16819B3E1614E
:103E400004E071420840A061E1693F1AC9B3B7427A
:103E500026D9A0693044A061207D800704D4204683
:103E600000F08EFF014604E02046FFF72DFA0146E0
:103E700038B3481C12D0022920D3E86981421DD2F0
:103E8000BF1BE161E3E720460021FFF71DFA014671
:103E9000013003D0012911D0A160D0E701250EE047
:103EA000D8F800003844C8F80000F80509D02846C2
:103EB000FFF7FFF910B100EB572603E00225657507
:103EC00020E00026E168A069884204D9217DE060F5
:103ED00041F040012175C00513D0226A964210D0EE
:103EE00094F91400009FB0F1FF3F0EDD787804F1E3
:103EF0003001324601230125FFF722FE0028DED1E2
:103F0000266200252846BDE8F88F787804F1300154
:103F100001230125FFF72CFE0028D0D1207D00F0E1
:103F20007F002075E2E72DE9F04F8FB00E900EA8CC
:103F30006946022200F066FC009C064600280194B7
:103F400040F0A5800E9901A800F094FD002808BF5C
:103F500008209DF833100646890648BF0626042827
:103F600018BF0646042E40F0928001A800210026CA
:103F7000FFF7AAF981466089B9F1000F4FEA4020A6
:103F8000049008BF0726B9F1010F08BF022619F1F6
:103F9000010008BF012616B100F048FF72E020467C
:103FA00001F0C4FC064600F041FF002E6AD18046B5
:103FB00020464946FFF77DF9074604F144004FF4D7
:103FC000FA71FCF776F942F22000A4F84100A2460B
:103FD00041462E254FF02030C4F83D00C4F839008A
:103FE000102084F843000AF8385F04F14E0001F015
:103FF000BCFB204651464A4601F0AEFB04F1580690
:1040000051462022304601F0D9FA2178039884F8ED
:104010005950032904D1E16A421A18BF024600E050
:1040200002462046314601F097FB65894FF0010BAF
:1040300075B1204684F803B0676301F077FC00BBDC
:1040400050464FF40071FCF734F9013D0137EFE7BA
:1040500001A8FFF7CDFB0646A0B9099D414605F131
:10406000160001F082FB204629464A4601F074FB07
:104070001020E8720120E070204601F013FC064693
:1040800005E0064601A84946002201F02DFB304616
:104090000FB0BDE8F08F0000FEB5054602906846FF
:1040A0001446CDE9001100F044FF002815D40D4955
:1040B00001EB80077E6826B13046FFF7D9F8002073
:1040C000307065B10020012C28707D6004D101A8FA
:1040D00002A9002200F096FBFEBD0B20FEBD0020D1
:1040E0007D60FEBD400000202DE9F04F8FB00E91A5
:1040F00070B102F03F09154683460EA869464A464C
:1041000000F080FB074640B10020CBF8000000E043
:104110000927F8B20FB0BDE8F08F0E9901A8DDF8BD
:104120000080CDF8048000F0A5FC074668B99DF931
:104130003300002808D415F03E0101A818BF012162
:10414000FFF76AF8074600E0062719F01C0F11D0A8
:10415000F7B1042F25D10021744801F11002302A53
:104160001ED0415800291146F7D101A8FFF740FBA6
:10417000074616E0002FC7D19DF80A00C10600F1DE
:10418000CD805FEA897149D510F0010006D145E084
:104190009DF80A0010F0110F00F09D800727B3E78B
:1041A000122749F00809B7BB19F0080033D000F016
:1041B0003DFE0546099E06F10E00294601F0D5FA9E
:1041C00006F11600294601F0D0FA2020F07231469F
:1041D000404601F01DF805460020708398F8001055
:1041E000032908BFB082F061012088F80300ADB157
:1041F00001A829460022D8F8346001F075FA074674
:1042000000287FF481AF4046314601F0DFF90746D0
:10421000681EC8F81000002F7FF476AF099DCBF818
:10422000285000210027D8F83400CBF8240009F0EA
:10423000080049EAC00401A8012C88BF012100F050
:1042400037FF0028CBF8100066D04046294600F022
:10425000DFFF0646CBF8080005F11C0000F0E4FF84
:10426000CBF82C70CBF80C00CBF80080CBF820708A
:104270008BF815708BF81440CBF8187005460BF1CD
:10428000300A4FF40071B8F80600ABF8040050464D
:10429000FCF70FF85FEA89607FF53BAF002D3FF434
:1042A00038AFCBF818500027B8F80A004402380697
:1042B00015D1A54213D95846314600F061FD064696
:1042C000002101302D1B022E38BF01214F00002894
:1042D00008BF0127EBE7082000EA450763E7E90587
:1042E000CBF81C601CD0D8B940463146FEF7E1FF40
:1042F00090B100EB5522CBF820205146012398F8CD
:104300000100FFF71DFC002840EA070018BF012745
:1043100000067FF4F9AE06E00227F5E60427F3E68F
:1043200000287FF4F1AE0027F3E600BF340100203F
:10433000FEB5029150B1044602A801A9002200274F
:1043400000F060FA054620B1276000E00925284604
:10435000FEBD02992046019E266000F08BFB0546BB
:1043600098B994F92F00002807D4A079C00610D579
:10437000216A304600F04CFFA060F0880021A08048
:104380002046FFF771FB054628B1002DDFD0042D34
:10439000DAD10525D8E7A068002540B120460021E4
:1043A00000F086FE00282061D1D11225CCE72561DE
:1043B000CDE72DE9FE4F044600200F46186002A904
:1043C0009B461646204601F0D7FA08B1BDE8FE8F9D
:1043D000607D0028FAD1207DC00702D10720BDE80A
:1043E000FE8FE068A169401AB04238BF0646DDF88A
:1043F000089004F130000190002E00F089800846FA
:104400006FF35F2060B1C0F500752044B54288BFEE
:10441000354600F1300138462A4601F0CFF84BE02E
:10442000B9F80A00013800EA5128B8F1000F01D0AC
:10443000E16912E029B1E06A28B12046FEF726FFC3
:1044400005E0A16804E0E169204600F099FC01461E
:10445000012960D9481C60D0E1614846FEF729FF78
:10446000002858D000EB080A0020B0EB562F2ED0C1
:10447000750AB9F80A10524608EB0500884288BF51
:10448000A1EB080599F8010039462B46FFF758FBC8
:10449000002842D194F91400B0F1FF3F0BDC206AF0
:1044A000A0EB0A00A84206D207EB402001994FF486
:1044B000007201F083F86D02A069761B2F44411948
:1044C000DBF80000A1612844CBF8000094E7226AE1
:1044D000524517D094F91400B0F1FF3F0ADC99F867
:1044E000010001990123FFF743FBB0B9207D00F0E3
:1044F0007F00207599F80100019952460123FFF7CA
:104500001FFB50B9A069C4F820A06FF35F207AE7C1
:104510000020BDE8FE8F022000E001206075BDE8AC
:10452000FE8FF8B56946044601F026FA0746E8BB57
:10453000207D410601D4002738E00006009D0CD5FF
:104540006878226A04F1300101230127FFF710FB8C
:1045500060BB207D00F07F00207500F067FC064600
:10456000616A284601F032F80746F8B9A76A394669
:10457000F87A40F02000F8722068A26801F0ECF8A8
:10458000E16807F11C0001F0F0F807F11600314670
:1045900001F0EBF8002078820120E870284601F055
:1045A00081F90746207D00F0BF0020753846F8BD30
:1045B0002DE9FE4F044600208B46186002A99A465A
:1045C0001646204601F0D8F908B9607D08B1BDE86B
:1045D000FE8F207D800702D40720BDE8FE8FA169F1
:1045E000C843B04238BF0646DDF8089004F13000F9
:1045F0000190002E00F0998008466FF35F2078B19B
:10460000C0F5007520445946B54288BF3546303064
:104610002A4600F0D3FF207D40F08000207560E046
:10462000B9F80A00013800EA5128B8F1000F19D191
:1046300029B1E06A40B12046FEF728FE08E0A068F4
:1046400030B92046002101E0E1692046FEF73CFE3A
:10465000411C73D0002868D001286DD0A168E061AA
:1046600001B9A06094F91400B0F1FF3F0CDC99F897
:104670000100226A01990123FFF77AFA00285DD12F
:10468000207D00F07F002075E1694846FEF711FEAD
:10469000002851D000EB08050020B0EB562F30D099
:1046A000770AB9F80A102A4608EB0700884288BF43
:1046B000A1EB080799F8010059463B46FFF758FA65
:1046C000E0BB206A401BB8420AD20BEB40210198A4
:1046D0004FF4007200F072FF207D00F07F00207523
:1046E0007D02A169DAF80020E068761BAB4429441A
:1046F0002A44A161CAF80020814288BF0846E060D0
:1047000077E7206AA8420BD0E068A169814207D20E
:1047100099F8010001992A460123FFF711FA68B9B7
:10472000A06925626FF35F206AE7207D40F04000BA
:1047300020750020BDE8FE8F022000E0012060759A
:10474000BDE8FE8F802800D2704719B1FF280BD931
:104750000020704700210A4A8029F9D032F8113030
:10476000834208D00131F7E7054901EB40006FF0C3
:10477000FF01405A704701F18000C0B2704700BF8E
:10478000EC5C0008B0B51E491C4AB0F5805F38BF2C
:1047900011460A88531E9BB283422CD24C880431A6
:1047A000230A52FA84F5854205D8E2B2002B08BFED
:1047B00001EB4201EDE7082B1DD8DFE803F0050906
:1047C0000E10121416181A00801A31F8100012E098
:1047D000811A01F00101401A0DE010380BE0203879
:1047E00009E0303807E01A3805E0083003E05038B7
:1047F00001E0A0F5E35080B2B0BD00BFAE5E00089E
:10480000F25D00082DE9F04F85B00F4600211546F6
:10481000396000F08EFB002817D4DFF84882064686
:1048200008EB8000446804B33C6005F0FE05207886
:1048300068B16078FFF792F9C10708D140070A21F3
:10484000002D18BF01EAE07570E00B256EE0002036
:1048500020706670F0B2FFF755F9C10707D145B176
:1048600010F0040005D00A2560E00C255EE0032569
:104870005CE0204600210025FEF790FC022820D1B4
:1048800001AE00253746402D0CD0601990F8FA1182
:1048900021B100F5FF7000F0C7FC00E0002001C767
:1048A0001035F0E7002756F8275035B12046294645
:1048B000FEF774FC022801D209E003200137042F1F
:1048C000F1D1042801D1012530E001282DD8B4F818
:1048D0004300B0F5007F28D1B4F84EB0BBF1000F13
:1048E00004D104F15C0000F09FFC834694F848601A
:1048F000C4F820B0A670701E012816D894F8457030
:104900006781781EB7FA87F138404FEA511118BF16
:104910000120084309D194F84A1094F8490040EA6C
:10492000012A0007A4F808A004D00D25284605B0E8
:10493000BDE8F08FB4F84B0018B904F1580000F04E
:1049400073FCB4F84620002AEFD00BFB06F101EB14
:104950001A1313449842E8D3C01AB842E5D3B0FB07
:10496000F7F7581920634FF00309A8184FF6F672AD
:10497000C4E90950BE1CE661974240F6F67238BFA2
:104980004FF00209974238BF4FF00109B9F1030F08
:1049900010D194F8620094F8631040EA0A0040EAEB
:1049A00001200028C1D104F1640000F03DFCE06268
:1049B000B0000EE0BAF1000FB7D00844E062B9F1E0
:1049C000020F0FBF700006EB460006F0010101EB7D
:1049D000500000F2FF10BBEB502FA6D34FF0FF307A
:1049E000B9F1030FC4E904004FF08000207128D111
:1049F000B4F86800012824D1691C204600F0E6FDC7
:104A0000F8B9002020714AF65521B4F836028842E0
:104A100017D104F1380000F007FC1349884210D187
:104A200004F5077000F000FC1049884209D104F534
:104A3000087000F0F9FB606104F5097000F0F4FB08
:104A400020610B4884F80090E0600025A561B8F86B
:104A500000000130A8F80000E0802046FEF708FCC6
:104A600064E700BF40000020525261417272416110
:104A7000540100202DE9F04F87B0044608780D4618
:104A8000D4F800A05C2818BF2F2809D1C0B25C2838
:104A900001D02F2802D115F8010FF7E7002001E01F
:104AA000DAF81800A0602878202809D2802084F83D
:104AB0002F000021204607B0BDE8F04FFEF7D4BF1D
:104AC00004F1240006900FF2A0295046D0F80CB053
:104AD0000026A85D06F10108202826D35C2818BF0F
:104AE0002F2818D0FF2E00F02F810121FFF72AFE7A
:104AF000002800F0298107467F2806D84846394615
:104B0000FEF782FB002840F01F812BF81670464606
:104B1000DFE708F1010815F808005C28F9D02F2814
:104B2000F7D005944FF0000902E04FF00409059416
:104B3000012E05D0022E15D1BBF802002E2811D16E
:104B4000BBF800002E280DD10020069A2BF8160085
:104B50000B2800F0CF802021B04238BF2E21115405
:104B60000130F5E7ABF10200002E00F0EA8030F8EA
:104B700016203146013E202AF6D02E2AF4D0CDF858
:104B800010A04FF0000A2BF811A04FF02033069A26
:104B9000C2F80730536013603BF81A202E2A01D068
:104BA000202A02D10AF1010AF6E7BAF1000F18BF74
:104BB00049F003090F4621B130F81720791E2E2A3B
:104BC000F8D17E1E4FF0080E4FF0000C00223BF88B
:104BD0001A0051460AF1010A202803D02E2804D1D8
:104BE0008E4219D049F00309F1E700285AD07245E6
:104BF00053D28E4251D08028CDE9022E1FD30021FE
:104C00006446FFF79FFDE0B15A49A446DDE9022E54
:104C1000084410F8801C18E00121BA4649F003004E
:104C2000BEF10B0F3FD0002908BF8146BA4539D8E5
:104C30004FEA8C0C4FF00B0E0822BA46C7E701462C
:104C400005E0A446DDE9022E002149F0020951B138
:104C500049A00C46CDF804C0FEF7D6FADDF80CE00A
:104C6000DDE901C240B149F003095F240598104411
:104C7000013280F82440AAE7A4F1410080B219284B
:104C800002D84CF0020CF1E7A4F1610080B21928BF
:104C90009CBF203C4CF0010CE8E7701AB0FA80F0A1
:104CA0004109BBE74846069ADDF810A00523059C9C
:104CB0000FF2B4091178E52908BF137040F0020320
:104CC000BEF1080F08BF4FEA8C0C0CF003010CF08A
:104CD0000C02032908BF18460C2A08BF1846830790
:104CE0000DD4012908BF40F01000042A08BF40F08D
:104CF000080004E009F120000FF26C09059C84F81B
:104D00002F002046FEF7AEFB94F82F1038B1042890
:104D10001BD101F0040288061AD57AB11DE04807BC
:104D20001ED4A079C0061DD560696FF35F20504482
:104D300000F13801504600F06BFAA060454420684D
:104D4000C4E60020ABF80000062007B0BDE8F08FF5
:104D50000520002A18BF0420F7E7802084F82F00E0
:104D60000020F2E70520F0E7222A3A3C3E3F7C7F14
:104D7000000000004A5C00082B2C3B3D5B5D0000FE
:104D8000F8B5022930D305680C46E86988422BD96A
:104D9000287803282AD0022839D0012824D104EB0E
:104DA0005407A86A00EB5721284600F00FFCA8BB67
:104DB0007E1C6FF35F27E81990F83870A86A00EB43
:104DC0005621284600F002FC40BB6FF35F26E20745
:104DD00005EB060090F8380047EA002108466FF31B
:104DE0001F3018BF0809F8BD0120F8BDA86A00EB04
:104DF000D411284600F0EAFB80B904F07F0005EBEF
:104E00008000383000F010FA20F07040F8BDA86A39
:104E100000EB1421284600F0D9FB10B14FF0FF3011
:104E2000F8BDE0B205EB4000008FF8BD00207047F0
:104E30002DE9F8430546066800208875E8690028D2
:104E400075D0286B8846013012D008F1160900246D
:104E50000027F06830F8140060B10021FFF772FC01
:104E6000FE2C08D838B1611C09F804000C46F0E7A4
:104E7000012108E02746002009F8070098F81600ED
:104E8000B0FA80F0410900204FF02E0C00230A2BCD
:104E90002AD82C6AE65C0133202EF8D0052E08BFF4
:104EA000E526092B09D119B108EB000484F816C0D6
:104EB00008EB0004013084F809C008EB00046672B6
:104EC00081B1A6F14107FFB2192F0AD85F1E082F42
:104ED0004FF0100738BF08272A6A127B174218BF05
:104EE0002036A6750130D2E749B108EB0001002257
:104EF0008A75296A097B002918BF014600E001462E
:104F000008EB0100002141722C6AE07A88F8080061
:104F100004F11C0000F088F9C8F8000004F1160044
:104F200000F082F9A8F80600000CA8F80400BDE81B
:104F3000F88310B50268BAB10023D15C013320298F
:104F400001D33A29F9D13A290CD11178A1F13004D1
:104F5000092C09D8022B4FF0FF3108BF002C05D1D6
:104F6000D1180160002101E04FF0FF31084610BD6B
:104F70007CB5474E002001900090317872789142C4
:104F800000F0858001904AF64040424A01FB002033
:104F9000019B032B08DC019B30F81330DB0403D1A9
:104FA000019B01330193F3E74AF64043B0EE080A50
:104FB0000020009001FB032145F21F60364A009B50
:104FC000019C04EB8304009B84421BDC009B019C3E
:104FD00004EB830331F8134001EB43035B88DB0BE5
:104FE00043EA44031BB201EE103AB8EEC11A009B2B
:104FF00002EB830321EE001A83ED001A009B0133BC
:105000000093DCE7254C06F1300023492246FEF7E9
:105010005DF800202349009A90420ADA94ED000AD4
:105020000434BDEEC00A10EE102A21F81020013021
:10503000F1E7009A1A481B4900F0B6FC1A490870BB
:10504000087878B1F06A164C184D0130F0620720EC
:1050500040B12046FEF7C3FD204629463322FFF724
:1050600043F8F5E7F068642190FBF1F202FB1100D0
:1050700028B9F068012802DB0948FFF752FAF06806
:105080000130F0603078411F18BF411C31707CBD89
:1050900048000020CC3200203C3D04205C930420DA
:1050A0008C050020BC07002028000020C000002044
:1050B000F0B51A4B046800221D1D022A0ED055F8C7
:1050C000046CA64207D186682F68B74203D14669AF
:1050D0006F68B74212D010350132EEE700221D464C
:1050E000022A11D02E6816B110350132F8E72C6073
:1050F0000024AC8184684069C5E9014003EB0210DB
:1051000030F80C3F11B11BB10020F0BD591C01E07B
:105110004FF480710180501CF0BD00BF34010020AD
:10512000B0B50A25264C8DB1204680210122FBF71F
:1051300080FD6420FBF7AEFB204680210022FBF7B8
:1051400078FD6420FBF7A6FB013DECE7B0BD00BF96
:105150001B4880210122FBF76CBD00BFB0B50425C0
:10516000174C8DB1204680210122FBF762FDC8203B
:10517000FBF790FB204680210022FBF75AFDC82058
:10518000FBF788FB013DECE7B0BD00BFB0B50225E1
:105190000B4C9DB1204680210122FBF74AFD4FF4C4
:1051A000FA70FBF777FB204680210022FBF741FDD8
:1051B0004FF4FA70FBF76EFB013DEAE7B0BD00BFAC
:1051C000000C0240002181620B4941620B490162DF
:1051D0000B49C1614AF6444181614FF001114161BF
:1051E000102101610749C1600749816024214160A4
:1051F00006490160704700BF6461746102001000DD
:1052000088580100666D74205741564552494646FC
:105210000246488B1278032A05D10A7D497D40EA6F
:10522000016040EA024070470068704788B0D54886
:10523000BFF34F8F002143F6E07CBFF36F8FC0F8C0
:105240003C12BFF34F8FBFF36F8F026842F40032FE
:105250000260BFF34F8FBFF36F8F0167BFF34F8FB4
:10526000C26EC2F34E31C2F3C9039A0701330CEA8E
:10527000411516461F4646EA050406F14046013F21
:10528000C0F84C42F7D14C1E00292146EFD1BFF3A4
:105290004F8F016841F480310160BFF34F8FBFF33E
:1052A0006F8FFBF795FFFDF78BFEB74D4FF00009B1
:1052B000CDE90699B54CB64E042100224FF0040A00
:1052C000286840F010002860286800F01000029064
:1052D0000298286840F001002860286800F001006A
:1052E00002900298286840F004002860286800F0C6
:1052F000040002900298286840F00800286028689E
:1053000000F0080002900298286840F0020028602F
:10531000286800F00200029002982046B04704F589
:10532000006720210022A0463846B04704F54064BB
:10533000032101222046B0472046B0210022B04779
:1053400003AE9448CDF81490CDE903A0DFF848A24D
:1053500008F580503146D0470420CDE905990390E7
:1053600031464FF0010BCDF810B04046D047202019
:10537000CDF81890CDE904B9039031464FF0010BF8
:105380003846D0470220CDF81C90CDE9059904900D
:1053900031464FF4807003904046D0474FF4006090
:1053A000CDE90499039031464046D04703211120AE
:1053B000CDE905B1CDE9031020463146D047754807
:1053C000049031464FF00808CDF81490CDF80C80C9
:1053D0002046D047B020CDF81890CDE904B903900D
:1053E00031462046D0476D4E082001210022B047AB
:1053F0006B4F0820B847092001210022B04709203F
:10540000B84728680021002240F4800028602868FE
:1054100000F48000039003983820B0473820B84744
:10542000614D604E10224FF44073284606F58061AE
:1054300040F8341F4AF64441C0E901320322C0E972
:105440000329C0E905180221C161FBF7E3FC00282C
:1054500040F096805548182140C0FAF72AFFFDF722
:1054600089F905F13400FBF762FC002840F08880E0
:105470006420FBF70FFA204680210022444DA84704
:10548000204620210022A847204610210022A847BC
:10549000464D13208DF80C002846FCF7D3FD8DF8FF
:1054A00008009DF808000028F6D1404D2846FCF77A
:1054B000E7FD3F4E3F4F8DF8070030463946012249
:1054C000FEF7EAFD8DF80C009DF80C0048B1284667
:1054D000FCF7C4FC2846FCF7B5FD2846FCF7D0FDD8
:1054E000EBE73220FBF7D6F90025C82D0BDA0A20AE
:1054F000FBF7D0F920460821FBF796FB002818BFE0
:10550000681C0546F1E72C48082101603220FBF7B2
:10551000C1F9FFF71DFEDA4C4FF000094FF0070A02
:10552000DFF82483214D224E224F01202071A078E4
:1055300030B1207861788842F9D0FFF719FDF6E79D
:10554000E078D0B1404684F803908DF80CA0FEF7C7
:1055500046FB9DF80C0080B12846FCF77FFC2846EE
:10556000FCF770FD2846FCF78BFD304639460122DA
:10557000FEF792FD8DF80C00EBE7A4F80090D6E75B
:10558000FAF776FF14ED00E03038024000000240E8
:10559000330C000800002110950A0008B51200081D
:1055A00099120008002C0140C0000020B83C0420E3
:1055B0005403002039000020143C01402AB111F8A6
:1055C000013B013A00F8013BF9D17047B0B50546FF
:1055D000406B884201D10020B0BD28460C4600F047
:1055E000A5F900B1B0BD687805F138012246012364
:1055F000FEF7A6FA002818BF4FF0FF346C6318BFFF
:105600000120B0BD2DE9F04102293BD30446C06919
:105610000E46884236D920781546032835D0022810
:105620004AD001282ED106EB5607A06A00EB57217D
:105630002046FFF7CBFF002854D107F101086FF394
:105640005F2716F0010604EB070000F138000FBFDA
:10565000E9B2017801F00F0165F30B11017001202F
:10566000E070A06A00EB58212046FFF7AFFFC8BBEF
:105670006FF35F2804EB080000F1380046B3C5F370
:1056800007112BE00220BDE8F081A06A00EBD611E3
:105690002046FFF79BFF28BB06F07F0004EB80004D
:1056A00000F138063046FFF7BFFD0146304665F38E
:1056B0001B0100F05AF812E0A06A00EB1621204608
:1056C000FFF784FF70B9F0B204EB4000058706E0F5
:1056D000C5F30321027802F0F002114401700120A9
:1056E000E0700020BDE8F081F8B502292ED30568EE
:1056F00004460E46E869884228D9AAB111462846D0
:105700004FF0FF32FFF77EFF70B1F8BDE8696969BD
:10571000821E914205D201316961297941F001016E
:10572000297187423E4613D220463146FFF728FBB7
:10573000074601300ED05FB1012F07D02846314611
:105740000022FFF75FFF0028E0D0DEE70220F8BD6F
:105750000020F8BD0120F8BD4A830078032803D15A
:10576000100E4875100C08757047016070470000F6
:1057700070B586B0FFF70AFD01AC14212046FAF798
:1057800098FD2A492046022200F084F9284C142171
:10579000002520462570FEF746FA2046FAF794FDCC
:1057A000204424A10D22FAF76BFD2046FAF78CFD68
:1057B000244921502044324E057106F14C052846FB
:1057C000FFF700FD204821462A46FDF71BFE1F4932
:1057D0000870087810B1FFF7A3FC23E00A1D06F15A
:1057E000300006F13C0301210125F570FDF7CAFCEC
:1057F00034342046FBF70EFBB0B92320FBF74CFDF9
:105800004FF4FA70FBF746F8707811494AF64042B7
:1058100000FB0211204642F61032FBF72DFCB5705A
:10582000FFF796FC06B070BDFAF722FEEE5D0008A9
:10583000C00000202F617564696F2F617564696F06
:10584000000000002E7761768C050020000000200B
:10585000CC32002080B50A480021817009483430DC
:10586000FBF7F2F92320FBF705FD2320FBF7F4FCFF
:105870004FF4FA70FBF70EF8BDE88040FFF76EBCFE
:1058800048000020C000002010B500210022D2B244
:10589000435C013154080B2944EAC2121A44F6D180
:1058A000D0B210BDB0B5044600F040F800B1B0BDB4
:1058B000207803282DD1207901282AD104F13C0039
:1058C0004FF4FD71FAF7F5FC2546164845F8380FF8
:1058D0004AF65520A5F8FE011348C5F8E40155F82D
:1058E000241C05F5F470FFF740FF55F8281C05F55A
:1058F000F670FFF73AFF55F8140C29460123421CB5
:1059000015F8370C45F8042CFEF732F9002005F89D
:10591000340C607800210022FEF704F9002818BF3B
:105920000120B0BD5252614172724161F8B5044626
:10593000C078F0B1656B04F1380660780123012767
:1059400031462A46FEF714F9A0B9A16A206A002759
:10595000E770691A81420DD2A778022F09D3206A15
:1059600031460123054460782A46FEF701F9013FDC
:10597000F3E700273846F8BDB0B50C4680B10546C0
:10598000006868B1017859B1C188AA888A4207D1F4
:105990004078FEF7E3F8C00702D12968002001E053
:1059A000002109202160B0BD2DE9F04188B0884672
:1059B000364D042116460446A84705AF8DF81F0052
:1059C00004A9204604223B46FEF7F3FC8DF81F0095
:1059D00020462821A8478DF81F0003A9204604224D
:1059E0003B46FEF7E6FC8DF81F000398E16800EBEC
:1059F00046000290243001902046A847720006AB72
:105A000020464146FEF7D4FD8DF81F009DF81F008B
:105A100018B11F4841680131416020460421FEF75A
:105A200086F901A906AB20460422FEF7C1FD8DF8D8
:105A30001F002046FEF775FD9DF81F0018B11448A1
:105A400041680131416020462821FEF770F902A922
:105A500006AB20460422FEF7ABFD8DF81F00204662
:105A6000E168FEF764F92046FEF75BFD9DF81F0034
:105A700018B10748416801314160054801680131AA
:105A800001609DF81F0008B0BDE8F0812F3D0008BF
:105A9000300000200FB4084B10B504A902AA0398E7
:105AA00000F01CF8044602A9002000F0C1F82046CE
:105AB00010BC5DF814FB0000315C000802E008C86F
:105AC000121F08C1002AFAD170477047002001E078
:105AD00001C1121F002AFBD1704700002DE9FF4FC2
