:020000040800F2
:1000000010040020DD0100080B0D0008070D00089A
:10001000090D0008E9020008AD0D0008000000000D
:100020000000000000000000000000000F0D0008AC
:10003000EB020008000000000D0D0008110D000883
:10004000F7010008F7010008F7010008F7010008B0
:10005000F7010008F7010008F7010008F7010008A0
:10006000F7010008F7010008F7010008F701000890
:10007000F7010008F7010008F7010008F701000880
:10008000F7010008F7010008F7010008F701000870
:10009000F7010008F7010008F7010008F701000860
:1000A000F7010008F7010008F7010008F701000850
:1000B000F7010008F7010008F7010008F701000840
:1000C000F7010008F7010008F7010008F701000830
:1000D000F7010008F7010008F7010008F701000820
:1000E000F7010008F7010008F7010008F701000810
:1000F000F7010008F7010008F7010008F701000800
:10010000F7010008F7010008F7010008F7010008EF
:10011000F7010008F7010008F7010008F7010008DF
:10012000F7010008F7010008F7010008F7010008CF
:10013000F7010008F7010008F7010008F7010008BF
:10014000F7010008F7010008F7010008F7010008AF
:10015000F7010008F7010008F7010008F70100089F
:10016000F7010008F7010008F7010008F70100088F
:10017000F7010008F7010008F7010008000000007F
:10018000F7010008F7010008F7010008F70100086F
:10019000F7010008F7010008F7010008F70100085F
:1001A000F7010008F7010008F7010008F70100084F
:1001B000F7010008F7010008F7010008F70100083F
:1001C000F7010008F7010008DFF80CD000F07AF81A
:1001D00000480047F10D0008100400200648804741
:1001E00006480047FEE7FEE7FEE7FEE7FEE7FEE71C
:1001F000FEE7FEE7FEE7FEE79D0D0008C9010008E7
:100200002DE9F05F0546002092469B46884606464B
:10021000814640241BE0284641464746224600F0DE
:1002200041F853465A46C01A914110D31146184618
:10023000224600F028F82D1A67EB01084F462246A7
:100240000120002100F01FF817EB00094E41201E8D
:10025000A4F10104DFDC484631462A464346BDE8A6
:10026000F09FD2B201E000F8012B491EFBD270478B
:100270000022F6E710B513460A4604461946FFF772
:10028000F0FF204610BD202A04DB203A00FA02F1DC
:10029000002070479140C2F1200320FA03F3194374
:1002A00090407047202A04DB203A21FA02F0002116
:1002B000704721FA02F3D040C2F120029140084376
:1002C00019467047064C074D06E0E06840F0010310
:1002D00094E8070098471034AC42F6D3FFF778FF54
:1002E000B00E0008D00E0008FEE7704770B50B4E48
:1002F00000210A4A4FF0FF30351D103A141D3060BE
:10030000231D316028602960106011602060216029
:100310001860196000F068F9002070BD20380240B4
:100320002DE9F84FDFF80CB2012403254FF00F0A36
:1003300000220BF1040E00BF0B6804FA02F63340F2
:10034000B34278D10F7907F00307012F01D0022FB4
:100350001AD187684FEA4209D1F80CC005FA09F8AA
:1003600027EA08070CFA09FC4CEA070CC0F808C099
:10037000476891F804C0B743CCF3001C0CFA02FCA8
:100380004CEA070CC0F804C00E79F643B6070BD050
:10039000C6684FEA420C8F6805FA0CF826EA080690
:1003A00007FA0CF73743C7600E7906F00306022EF2
:1003B00012D1D6084FEA427800EB860600960F6904
:1003C000D6F820904FEAD8660AFA06FCB74029EA28
:1003D0000C063743009E37620F7906684FEA420CDD
:1003E00007F0030705FA0CF807FA0CF726EA0806E7
:1003F000374307604E6816F4403F1CD04E4E3768B6
:1004000047F480473760366822F00308970706F400
:1004100080460096494E3F0F4644B146D6F80868DC
:10042000DFF81C810AFA07FC404526EA0C0603D1D6
:100430004FF0000C41E076E0DFF808C1604502D1E2
:100440004FF0010C39E0DFF800C1604502D14FF0F8
:10045000020C32E0DFF8F4C0604502D14FF0030C2B
:100460002BE0DFF8ECC0604502D14FF0040C24E033
:10047000DFF8E0C0604502D14FF0050C1DE0DFF869
:10048000D8C0604502D14FF0060C16E0DFF8CCC0B2
:10049000604502D14FF0070C0FE0DFF8C4C06045A3
:1004A00002D14FF0080C08E0DFF8B8C0604502D177
:1004B0004FF0090C01E04FF00A0C0CFA07FC4CEA73
:1004C000060CC9F808C84F68DBF80060FF0226EA8E
:1004D000030600D51E437746CBF80060D1F804C070
:1004E000DEF800605FEA8C2C26EA030600D51E4386
:1004F000DFF840C03E60ACF1040C4F68DCF80060EF
:10050000BF0326EA030600D51E430A4FCCF800605D
:10051000083FD1F804C03E685FEACC3C26EA0306F7
:1005200000D51E433E60521C102AFFF405AFBDE803
:10053000F88F0000083C0140443802400030014080
:10054000000002400004024000080240000C02408B
:10055000001002400014024000180240001C02403B
:1005600000200240002402400069084000D0012021
:1005700070470000014880687047000000000020BC
:1005800002488168027811448160704700000020B1
:10059000032010B500F062F8002000F005F800F02C
:1005A00025F8002010BD000070B50D4D04464FF435
:1005B0007A700C4A29781268B0FBF1F0B2FBF0F0C7
:1005C00000F08EFB48B9102C07D200222146501EA5
:1005D00000F024F800206C6070BD012070BD0000A8
:1005E000000000200C000020704700000A4808B5F9
:1005F000016841F080510160006800F08050009077
:100600000548001D016841F480410160006800F464
:100610008040009008BD0000403802400E4BF0B40E
:100620001B680D46C3F30223C3F10706042E00D94D
:100630000426191D072901D2002300E0DB1E012436
:1006400004FA06F19C40491E2940641E994014405A
:100650002143F0BC00F0ABBB0CED00E0064900F01C
:10066000070210B54FF6FF040868044B204040EA2B
:1006700002201843086010BD0CED00E00000FA05F0
:100680002DE9F04705000F4663D0444E306800F076
:100690000F00B84209D2306820F00F0038433060B4
:1006A000306800F00F00B84253D128683C4C8107F5
:1006B00012D5400703D5206840F4E0502060287828
:1006C000000703D5206840F460402060A9682068D6
:1006D00020F0F000084320602878C0072AD0304975
:1006E00068680839012810D00968022810D08907E5
:1006F00000292EDA216821F0030101432160FFF770
:1007000039FF804641F288390DE009688903EFE737
:100710008901EDE7FFF72EFFA0EB0801494502D95B
:100720000320BDE8F0876868216801F00C01B1EB97
:10073000800FEFD1306800F00F00B8420BD930685D
:1007400020F00F0038433060306800F00F00B842EE
:1007500001D00120E5E72878400705D5E968206841
:1007600020F4E050084320602878000706D5286967
:10077000216821F4604141EAC000206000F0BCF82B
:100780002168084AC1F30311515CC840064908605A
:1007900006480068FFF708FF0020C2E7003C02405F
:1007A00008380240A00E00080C00002004000020C1
:1007B0002DE9F041FFF7DEFE4A4C0546206840F087
:1007C0000100206005E000BFFFF7D4FE401B0228B7
:1007D00057D820688007F7D5206840F08000206057
:1007E000FFF7C8FE3F4E054608360020306041F254
:1007F000883704E0FFF7BEFE401BB84241D830689E
:1008000010F00C0FF6D1FFF7B5FE0546206820F476
:100810005020206005E000BFFFF7ACFE401B6428BD
:100820002FD820688003F7D4FFF7A4FE0546206880
:1008300020F08070206004E0FFF79CFE401B02283F
:100840001FD820688001F7D4FFF794FE0546206882
:1008500020F08060206004E0FFF78CFE401B6428DD
:100860000FD820680001F7D4FFF784FE0546206802
:1008700020F08050206007E0FFF77CFE401B6428DA
:1008800002D90320BDE8F08120688000F4D4154B24
:100890001448154A1B1D134C0C3013491032843474
:1008A0001A60251D2160296002680E4922F4FE426B
:1008B0000260743102680D4B42F47F0202600868E6
:1008C00020F001000860086840F080700860084867
:1008D000036008480068FFF767FE0028D2D00120B7
:1008E000D0E7000000380240003000240024F4006B
:1008F0000C00002004000020154910B515480968B7
:1009000011F00C0213D01449042A0FD0082A0ED17A
:100910000F4C241F2268236802F03F025B0207D5B8
:100920002068C0F38810A0FB010106E0084610BD56
:100930002168C1F38811A1FB00010023FFF760FCCF
:100940002168C1F30141491C4900B0FBF1F010BD21
:10095000083802400024F40040787D012DE9F84F6A
:1009600004004FF000076ED02078DFF868A3AAF1EA
:100970000408C007A8F104054CD0DAF8001050466E
:10098000C1F38101012908D00068C0F38100022869
:100990000AD1D8F80000400206D52868800339D56E
:1009A00060680028DFD035E06068B0F5803F0BD08C
:1009B00010B1B0F5A02F11D0286820F48030286045
:1009C000286820F4802002E0286840F48030286005
:1009D000606890B1FFF7CEFD06460AE0286840F453
:1009E00080202860F0E700BFFFF7C4FD801B64286B
:1009F00072D828688003F7D50CE0FFF7BBFD0646E8
:100A000005E000BFFFF7B6FD801B6428F0D828681A
:100A10008003F7D42078800742D5DAF800105046DA
:100A200011F00C0F08D00068C0F3810002280BD130
:100A3000D8F80000400207D42868800718D5E0687D
:100A4000012800D114E041E1E0680028286817D0AF
:100A500040F001002860FFF78DFD064605E000BF6D
:100A6000FFF788FD801B0228C2D828688007F7D5C9
:100A70002069296821F0F80141EAC00028600FE0F0
:100A800020F001002860FFF775FD064605E000BF75
:100A9000FFF770FD801B02281ED828688007F7D456
:100AA0002078000729D58B4861696C300029814680
:100AB000016812D041F001010160FFF75BFD0646BD
:100AC00005E000BFFFF756FD801B022804D8D9F8C7
:100AD00000008007F6D510E089E021F001010160F7
:100AE000FFF748FD064604E0FFF744FD801B02289F
:100AF0007DD8D9F800008007F6D4207840076BD560
:100B0000DFF8D09109F13809D9F80000C0000BD402
:100B1000D9F8001041F08051C9F80010D9F8000050
:100B2000012700F0805000906B480168C90512D47D
:100B30000168834641F480710160FFF71BFD0646A2
:100B400005E000BFFFF716FD801B64284FD8DBF8D7
:100B50000000C005F6D55F4EA068683601280AD0AF
:100B600008B1052811D0306820F0010030603068ED
:100B700020F0040002E0306840F001003060A0681E
:100B8000A0B1FFF7F7FC83460CE0306840F00400AA
:100B90003060F0E7FFF7EEFCA0EB0B0141F288308C
:100BA000814266D830688007F4D50EE0FFF7E2FC9A
:100BB000834607E0FFF7DEFCA0EB0B0141F2883033
:100BC000814256D830688007F4D42FB1D9F800108C
:100BD00021F08051C9F80010A069C8B3DAF80010FC
:100BE000C1F3810102294BD00228286800E040E0CF
:100BF00020F08070286003D0FFF7BCFC04463BE087
:100C0000FFF7B8FC064604E0FFF7B4FC801B02289F
:100C10002FD828688001F7D4D4E90962D4E9070104
:100C20002E4B570894F82C20084303EB074343EA64
:100C30008611084340EA026040F00050C8F8000006
:100C4000286840F080702860FFF794FC044606E0B6
:100C50003EE000BFFFF78EFC001B022809D8286881
:100C60008001F7D534E000BFFFF784FC001B0228A9
:100C700002D90320BDE8F88F28688001F4D427E06A
:100C80000128D8F8000021D0E16900F480028A42EE
:100C90001CD1216A00F03F028A4217D1626A47F6EE
:100CA000C0710140B1EB821F10D1A16A4FF0FF3239
:100CB00000F4403302EB5101B3EB014F06D194F83D
:100CC0002C1000F07060B0EB016F01D00120D1E773
:100CD0000020CFE708380240007000400000FFFF0E
:100CE000401EB0F1807F10B501D3012010BD4FF040
:100CF000E02460610F21601700F059F80020A06126
:100D00000721216110BDFEE7FEE77047704770477D
:100D1000FFF736BC30B593B030216846FFF7A8FA2C
:100D200014210CA8FFF7A4FA1A48016841F0805179
:100D30000160006800F0805011901748016821F4AC
:100D4000404141F400410160006800250DF1200C94
:100D50000224009400F4404011900822A823CDE919
:100D6000064510218CE81C0001200B94CDE90301FD
:100D70006846FFF7F3FDE2024FF4A0510F20CDE9E2
:100D80000F120CAA052182E831000CA8FFF778FCAD
:100D900013B030BD40380240007000400248016886
:100DA00041F470010160704788ED00E0FEE709073B
:100DB00000284FEA116104DB00F1E02080F8001404
:100DC000704700F00F0000F1E02080F8141D70471C
:100DD00002E008C8121F08C1002AFAD17047704704
:100DE000002001E001C1121F002AFBD17047000062
:100DF00086B0FFF7CDFBFFF78DFF14216846FFF7A4
:100E000037FA224C206840F010002060206800F083
:100E100010000590206840F0010020602068002547
:100E20001B4F4FF4004600F001000590CDE900652E
:100E3000694638460295FFF773FA31463846FFF7A0
:100E400093FB8DF800009DF8000001281BD011488D
:100E5000066847680090206820F001002060206844
:100E600020F010002060FFF7A3FCFFF73FFA4FF0DF
:100E7000E02009490561456185610098086086F3B5
:100E80000888B847FEE70548E2E70000303802402E
:100E9000001002400000040808ED00E00000010816
:100EA000000000000000000001020304060708091A
:100EB000D00E00080000002010000000D00D000837
:100EC000E00E00081000002000040000E00D000803
:100ED0000100000010000000000000000024F400E9
:04000005080001C925
:00000001FF
