:020000040804EE
:1000000038EB0420DD01040867300408FD2F0408E4
:1000100065300408FB030408FD3F040800000000ED
:10002000000000000000000000000000253F040860
:100030000F0504080000000019350408273F0408D4
:10004000F7010408F7010408F7010408F7010408A0
:10005000F7010408F7010408F7010408F701040890
:100060001105040817050408F7010408F70104083E
:10007000F7010408F7010408F7010408F701040870
:10008000F7010408F7010408F7010408F701040860
:10009000F7010408F7010408F7010408F701040850
:1000A000F7010408F7010408F7010408F701040840
:1000B000F7010408F7010408F7010408F701040830
:1000C000F7010408F7010408F7010408193F0408C0
:1000D000F7010408F7010408F7010408F701040810
:1000E000F7010408F7010408F7010408F701040800
:1000F000F7010408F7010408F7010408F7010408F0
:10010000F70104086D360408F7010408F701040834
:10011000F7010408F7010408F7010408F7010408CF
:10012000A5040408B1040408F7010408F701040851
:10013000F7010408F7010408F7010408F7010408AF
:10014000F7010408F7010408F7010408F70104089F
:10015000F7010408F7010408F7010408F70104088F
:10016000F7010408F7010408F7010408F70104087F
:10017000F7010408F70104089904040800000000CE
:10018000F7010408F7010408F7010408F70104085F
:10019000F7010408F7010408F7010408F70104084F
:1001A000F7010408F7010408F7010408F70104083F
:1001B000F7010408F7010408F7010408F70104082F
:1001C000F7010408F7010408DFF80CD000F0A4F8E8
:1001D00000480047415C040838EB0420064880478B
:1001E00006480047FEE7FEE7FEE7FEE7FEE7FEE71C
:1001F000FEE7FEE7FEE7FEE7ED3F0408C90104085D
:100200002DE9F05F0546002092469B46884606464B
:10021000814640241BE0284641464746224600F0DE
:100220006AF853465A46C01A914110D311461846EF
:10023000224600F016F82D1A67EB01084F462246B9
:100240000120002100F00DF817EB00094E41201E9F
:10025000A4F10104DFDC484631462A464346BDE8A6
:10026000F09F202A04DB203A00FA02F100207047B8
:100270009140C2F1200320FA03F3194390407047E4
:10028000D2B201E000F8012B491EFBD270470022D8
:10029000F6E710B513460A4604461946FFF7F0FF85
:1002A000204610BD421E12F8013F002BFBD111F871
:1002B000013B02F8013B002BF9D17047421C10F8BA
:1002C000011B0029FBD1801A704730B50B4601464F
:1002D00000202022012409E021FA02F59D4205D3E5
:1002E00003FA02F5491B04FA02F52844151EA2F18F
:1002F0000102F1DC30BD202A04DB203A21FA02F0B1
:100300000021704721FA02F3D040C2F1200291404F
:100310000843194670470000064C074D06E0E068A8
:1003200040F0010394E8070098471034AC42F6D33C
:10033000FFF74EFF447D0408647D040880B504483F
:100340004FF4006101F08CF8B0FA80F0400980BDF4
:1003500000000240704700000146264802F0CCB978
:1003600080B5244802F0D8F9043818BF012080BDB8
:1003700080B500F013F8012804D11E4802F0E8FA15
:1003800010B180BD022080BD1A484FF4006102F018
:100390005DF8002818BF012080BD00BFE0B5012036
:1003A0008DF80700FFF7CAFF10B900208DF807008D
:1003B0009DF807008CBD00001CB514460A46014696
:1003C00000930C48234602F045FC002818BF01208A
:1003D0001CBD00BF704700001CB514460A4601460C
:1003E00000930448234602F023FD002818BF012093
:1003F0001CBD00BFA82201207047FEE7806B816C06
:10040000496D022906D0012180F83510C16C41F0F8
:100410004001C16400F0A4B810B5846BA36BA06C5C
:1004200001680A6802F4002253B1A36BA2B113F071
:10043000010211D1C968E26B01EBC201002213E095
:10044000C2B90868000317D4E06BD4E9102303EBAA
:1004500080000861A2630FE00A6812030CD40969E6
:10046000E26B01EBC201012200F05BFAA06B0138E4
:10047000A06301E0606CC860A06B216C88420AD167
:100480002068C16841F00101C1600068800702D5A1
:10049000012084F8350010BD014800F06DB800BFA0
:1004A00098210120014800F0CDBC00BF4822012066
:1004B000CF4800F0C7BC00BF10B501686FF00F0255
:1004C000182308A452FA81F2B2FBF3F35F2AE35C2B
:1004D00040F2FF3421EA040188BF0431C0E9161359
:1004E000084610BD0006101600061016B0B50468C8
:1004F000806840280846256825F4802525606360CB
:1005000008BF1046A06008BF0A46E260B0BD704751
:10051000042000F0D3BE082000F0D0BE70470022B7
:10052000AFF30080B0B50D4C0346607A08B10120EE
:10053000B0BD657A00206055657A04EB85056B6077
:10054000637A23441A72627A531C63723032C87021
:100550000A7042F63A73A1F80130B0BD882101203B
:100560007047000003480078012818BF704705F065
:100570009DBA00BF2CE30420B0B5044600680569AD
:1005800069070CD504214161C64AE06C40F00200C5
:10059000E064A06C026584F8351000F014FCA80734
:1005A00012D52168A06C02224A61E16C41F0010180
:1005B000E164BC490165042184F8351000F003FCB6
:1005C00010B1A06CFFF71AFFE80605D520681021CE
:1005D0004161204600F06AF8280705D52068082107
:1005E0004161204600F09CF9E80708BFB0BD2068D3
:1005F0000168890703D5C16821F01E01C160C16887
:1006000021F00101C160012141612046BDE8B040F7
:10061000FFF7A8BF88B1F8B5044690F8350010B9C7
:10062000204600F045F8022084F83500A26932B176
:100630004FF0000CC4F824C003E001207047D4F848
:1006400024C094E869001849102B076801EA0701E3
:10065000016043EA0201626941EA0201226941EA5A
:10066000060104F1280641EA0201226A41EA050175
:1006700041EA020164CE41EA0C0141EA020102684A
:1006800041EA050141EA060141EA0201016001D1A6
:10069000E1698161C16841F01E01C1600020E06430
:1006A000012184F83510F8BD07F0E0FF7047000025
:1006B0002DE9F04786B0044601A81421FFF7E7FDB5
:1006C00020684749884240F087804648464D01AE41
:1006D0004FF00D080027DFF814A14FF00209416820
:1006E00041F001014160416801F001010091009970
:1006F000016841F010010160016801F010010091F2
:100700000099016841F001010160016801F00101F7
:1007100000910099016841F004010160016801F055
:10072000040100910099016841F002010160006834
:10073000314600F0020000900098CDF81480CDE919
:100740000377CDF808901320019005F58050D0472D
:100750005020CDE90478CDE9029701903146284632
:10076000D047C020CDE90478CDE902970190314609
:1007700005F50060D0474FF47070CDE90478CDE9FD
:1007800002970190314605F58060D047184D4FF42F
:1007900000304FF480514FF480624FF00073154EDB
:1007A000C5E908074FF48040C5E90063C5E9027751
:1007B000C5E90421C5E90607284600F0FBFB08B19E
:1007C000FFF7ACFE4E2003210022AC63A56401F0CC
:1007D000EDF84E2001F0DCF806B0BDE8F08700BF70
:1007E000000005503038024000000240D1120408D9
:1007F000E821012028640240F8B590F834500446FE
:100800000220012D4DD084F8350000272568A06C0A
:10081000B7EB134F2E6846F480462E602E6826F004
:1008200002062E602E6841EA06011E4E2960A7636B
:100830004FF0010184F83410C4E91077C0E9136760
:10084000194EC663E76304D105F1280100F040FCAE
:100850001CE0A16346646264E363E16BB1F5803F31
:1008600006D3E16B4908E163A16B4900A163F4E79A
:10087000A16B0239A163A16B2164E16BE36B00936F
:1008800002EB810305F1280100F054F808B10120C2
:10089000F8BD2168002084F834000A6842F00102A3
:1008A0000A60F8BDFD03040819040408B0B5044645
:1008B00090F83400022501282ED0012084F835500C
:1008C00084F83400154801682068026822F00102AB
:1008D00002604FF4FA52B1FBF2F14FF47A725143D5
:1008E000C943013104D20268D207FAD1002504E0DD
:1008F000E16C032541F02001E164016821F48041AD
:100900000160A06C00F01AFAE06CE064002084F84A
:100910003400012084F835002846B0BD14000020C2
:1009200070471023002A08BF0C230068C150002024
:1009300070470000F0B58568802D04D14FF48071B8
:1009400041650120F0BD90F83440012C34D00124E1
:1009500080F8344090F83540012C2AD1022480F8E8
:100960003540059E402D4FF000044465046827681B
:1009700047F48027276023610B46666008BF134653
:10098000A36008BF0A46BF49E26001F14C029442ED
:1009900014D9BD4A94423FD0BC4A94424AD1202245
:1009A0000A6010220A6008220A6004220A600122FA
:1009B0004AE1002180F834100220F0BDD34901F152
:1009C000B002944216D9D84A944264D0D74B9C4284
:1009D00074D0D74EB44276D12022C1F8002401272A
:1009E0001022C1F800240822C1F800240422C1F812
:1009F000002481E001F1500294423ED9C74B9C4251
:100A00007DD0C74B9C427CD0C64B9C420CBF4FF460
:100A100000134FF0006376E04FF400620A604FF479
:100A200080620A604FF400720A604FF480720A60BC
:100A3000402209E101F194034FF000629C4208BF9B
:100A40004FF400120A604FF0806208BF4FF480122A
:100A50000A609C424FF0007208BF4FF400220A6007
:100A60004FF0807208BF4FF480220A609C424FF41E
:100A7000800208BF4FF48032E6E0A54B9C4244D090
:100A8000A44B9C4243D0A44B9C420CBF4FF4001398
:100A90004FF000633DE04FF40012C1F800244FF422
:100AA0008012C1F800244FF40022C1F800244FF452
:100AB0008022C1F800244FF480371DE04FF400621B
:100AC000C1F800240BE04FF00065C1F80054994DC7
:100AD000AC4200F0D580984FBC4240F0D9804FF432
:100AE0008062C1F800244FF40072C1F800244FF472
:100AF0008072C1F800244027C1F80074A5E02023CB
:100B000001E04FF400634B6004E0202301E04FF468
:100B100000630B6094420DD9804B9C4218D0804BEF
:100B20009C4217D07F4B9C420CBF4FF480134FF078
:100B3000806311E0764B9C4210D0764B9C420FD0E4
:100B4000754B9C420CBF4FF480134FF0806309E05B
:100B5000102301E04FF480634B6004E0102301E0B8
:100B60004FF480630B6094420DD96C4B9C4218D0BB
:100B70006B4B9C4217D06B4B9C420CBF4FF4002335
:100B80004FF0007311E0624B9C4210D0614B9C42CD
:100B90000FD0614B9C420CBF4FF400234FF0007309
:100BA00009E0082301E04FF400734B6004E00823E0
:100BB00001E04FF400730B6094420DD9574B9C42F7
:100BC00018D0574B9C4217D0564B9C420CBF4FF449
:100BD00080234FF0807311E04D4B9C4210D04D4B61
:100BE0009C420FD04C4B9C420CBF4FF480234FF0E3
:100BF000807309E0042301E04FF480734B6004E04C
:100C0000042301E04FF480730B6094420DD9434AF2
:100C1000944230D0424A94422FD0424A94420CBF70
:100C20004FF480324FF4800228E0394A94423FF476
:100C3000BEAE384A94423FF4FBAE374A94420CBFF2
:100C40004FF480324FF480020A60216841F01601AF
:100C50002160616941F080016161016C09B9806CBA
:100C600018B1206840F008002060206840F00100C2
:100C700020600020F0BD012200E040224A60E4E74D
:100C8000102707E00C640240886402407064024050
:100C90004FF08067C1F800740827B4420DD09C4221
:100CA0003FF421AF94423FF4FEAEAC4205D0224F58
:100CB000BC423FF418AF4FF00077C1F8007404272E
:100CC000B4420DD09C423FF412AF94423FF4EFAED9
:100CD000AC4205D0184FBC423FF409AF4FF08077CB
:100CE000C1F800740127B4423FF406AF9C423FF4C0
:100CF00002AF94423FF4DFAEAC423FF4FDAE0E4A89
:100D000094423FF4F8AE4FF48007F5E608600240E5
:100D10001060024028600240406002407060024063
:100D200088600240A06002404064024028640240A3
:100D300010640240706402408864024070B504464A
:100D4000866D00F09FFB054694F8350002281ED101
:100D50002068216C026822F016020260426922F0CB
:100D60008002426109B9A16C19B1016821F0080142
:100D70000160016821F0010101600068C0070DD029
:100D800000F080FB401B052814D82068F5E7002000
:100D900084F8340080206065012070BDE06D3F2143
:100DA00001FA00F0B0600121002084F8340084F8DA
:100DB000351070BD20206065002084F834000320C9
:100DC00084F8350070BD90F83510022909D105214D
:100DD00080F835100068016821F0010101600020F1
:100DE00070478021416501207047B0B530B105469C
:100DF00090F83500022803D1022420E001241EE0EF
:100E000028680024016821F0010101600460446049
:100E10008460C4600461212141612846FFF74CFBD6
:100E2000E96D3F2202FA01F1816005F13C001821D1
:100E3000FFF72DFA6C6585F8344085F8354020467B
:100E4000B0BD0000F8B5044600200090584A0821C3
:100E5000D4E9166015688140376839420CD02268A1
:100E600013685B0708D5136823F004031360B160AF
:100E7000616D41F00101616501218140394208D075
:100E800022685269120604D5B160616D41F0020119
:100E9000616504218140394208D0226812689207B6
:100EA00004D5B160616D41F004016165102181409C
:100EB000394217D020680268120713D5B160026862
:100EC0000168520306D4C90506D4016821F008015F
:100ED000016001E0080301D4216C00E0A16C09B1BC
:100EE00020468847E16D202000FA01F23A423BD0CB
:100EF00020680368DB0637D5B26094F835300268A5
:100F0000052B19D122F016020260426922F08002FC
:100F10004261226C0AB9A26C1AB1026822F008027E
:100F200002603F208840B060002084F83400012037
:100F300084F83500216D37E0016852030CD4C905EF
:100F40000ED4016821F010010160002084F8340003
:100F5000012084F8350003E0080301D4616C00E04F
:100F6000E16B09B120468847606D00B3606DC00732
:100F700019D0052184F835104FF416502168B5FBBF
:100F8000F0F00A6822F001020A60009A0132009231
:100F9000824202D80A68D207F7D1012084F83500CE
:100FA000002084F83400E16C09B120468847F8BD80
:100FB000140000202DE9F041044600F063FAACB1C2
:100FC0000546022084F835002168002084F83400AA
:100FD000086820F0010008600868C00709D000F028
:100FE00051FA401B052839D82168F5E70120BDE8F2
:100FF000F081271D0868354A00EA020ED4E9050C85
:10100000D4E90728E8CF43EA0E032B4333433B439D
:101010001843636A40EA0C00042B40EA020040EAED
:1010200008021FD1D4E90A53206B1A4340EA020098
:10103000086051F8140F20F0030040EA050040F06A
:101040000402B3B1BCF5005F24D0BCF1000F31D174
:10105000022D32D0012D27D0002D2DE00326202790
:10106000032012E00A6051F8140F20F0070040EA54
:10107000030220460A60FFF71FFAE16D3F220027B6
:10108000012602FA01F181600020676584F835606D
:10109000BDE8F081032DECD8012640270120DFE8D0
:1010A00005F0020C0203F0E7A3F1C070B0FA80F083
:1010B000400904E0032D04D3DBD1C3F30060002812
:1010C000D7D0012640270120DFE700BF3F8010F086
:1010D000B0B5044690F8340001282CD0012084F8E3
:1010E0003400A56D94F83500012821D1022084F840
:1010F0003500002060652046FFF7F8F92068E26DB2
:101100003F23216C03FA02F2AA60026842F0160241
:101110000260426942F08002426119B1016841F007
:1011200008010160016841F0010101600020B0BDCB
:10113000002084F834000220B0BD0000B0B50446A1
:1011400000F0A0F905460548611C007818BF04446A
:1011500000F098F9401BA042FAD3B0BD080000206F
:101160002DE9F84FB94A0A244FF0000A4FF0000960
:1011700000279042B64A08BF092402444FEAB2232E
:10118000092B38BF4FEAB224B24A009401230F243E
:10119000A2F57E7B102F4AD003FA07F20A4240D014
:1011A0000AF00C0CD24304FA0CF8BC085BF824E0FB
:1011B000009B0EEA080503FA0CF6B54213D1A54BC5
:1011C0001D6815401D605D6815405D609D68154097
:1011D0009D60A14B1D6815401D605BF8245025EAF9
:1011E00008054BF824500323056803FA09F40F237C
:1011F000A54305600AF01C0503FA05F56FF003032B
:1012000003EA57060644336AAB433362C368A34319
:10121000C36043681A40426001238268A2430F24DE
:1012200082600AF1040A09F102090137B2E7BDE858
:10123000F88F00BFF8B51F4E04467068013070602B
:101240007078B0B3082000F091FB092000F08EFB0D
:1012500004F0C2FC0027184D142F0BDA0A20FFF708
:101260006DFF2846214600F0FBF8002818BF781CC7
:101270000746F1E7042C08D0082C0BD104F0C4FC7D
:10128000307828B104F092FF04E005F015F801E091
:1012900004F060FF0820082400F07AFB092000F029
:1012A00077FB082000F054FB092000F051FB0748B1
:1012B0000460F8BD30000020000C024003490A68B9
:1012C000024208BF70470860FFF7B4BF143C0140FA
:1012D0002DE9FC4F5D4A0A244FF0000B4FF0010A44
:1012E0004FF0000C90425A4A08BF092402444FEACA
:1012F000B223092B38BF4FEAB22400220094BCF17C
:10130000200F00F0A0800AFA02F60B68334200F0CA
:1013100094804F68122F1AD80AFA07F313F0061FA9
:1013200015D003238468D1F80CE04FEA420903FA90
:101330000CF30EFA0CF59C436FEA030E2C43846009
:101340003C0945689440B5432C43446005E00323C1
:10135000E14603FA0CF36FEA030EC5688C6805EAF0
:101360000E0504FA09F42C43C46047F01004122C53
:1013700012D10BF01C040F2303FA04F56FF00303E2
:1013800003EA52070744D7F820800B6928EA0505CD
:10139000A3402B433B624F68036807F0030403EA52
:1013A0000E0304FA09F423430360FB0045D5CF4C38
:1013B000284F22F00305BE463D44236843F4804392
:1013C000236023680F2403F480430193019F0BF0F3
:1013D0000C03224F9C40B846EF5927EA0404009FB3
:1013E00007FA03F3234345F80830DEF800304D6870
:1013F00043EA0604EF0358BF23EA0604CEF8004090
:10140000AF03DEF8043043EA060458BF23EA0604BB
:10141000CEF80440EF02DEF808300F4F43EA06042E
:1014200058BF23EA0604CEF80840AD023B6843EA01
:10143000060458BF23EA06043C600BF1040B0CF1D0
:10144000020C01325BE7BDE8FC8F00BF00240240C4
:101450000000FEBF003C01400C3C014008FCFFFFC7
:101460000069084018BF01207047426902EA010381
:10147000914341EA034181617047002A08BF090492
:101480008161704701480068704700BF30E3042065
:1014900098B110B50446022084F839002068C1696B
:1014A00021F48061C161204600F000F90020E06372
:1014B00084F8390084F8380010BD01207047704767
:1014C00090F83900704710B501684B688A685C066F
:1014D00018D502F04104012C14D1826ACB6822F89D
:1014E000023BC38D013BC3858262C28D32BB4A6819
:1014F00022F060024A60012180F83910BDE81040F6
:1015000000F0D4B91C0617D512F0020414D0026AF8
:1015100032F8023BCB60C38C013BC3840262C28CB5
:1015200062B94A6822F0A0024A60012180F83910AD
:10153000BDE8104000F0BDB99B0600D410BD12F00C
:10154000400307D04B6823F060034B60C36B43F04C
:101550000203C363120707D54A6822F0A0024A605B
:10156000C16B41F00401C163012180F83910BDE86D
:101570001040FFF7A4BF0000F8B500286BD0044668
:1015800090F8390028B9002084F83800204600F08F
:10159000AFF8022184F8391040F6BF7520686369FE
:1015A000022BC26922EA0502C261016205D104F17F
:1015B00008050223002626CD53E0D4E902120026B6
:1015C000E5692027212938BF0126002A08BF1027F6
:1015D00007FA06F6012D1ED0022D1ED1314DAE4662
:1015E0002F687F02304F5CBF42F20047C0F2F40721
:1015F0002D6805F03F05B7FBF5FC7546DEF88070F9
:10160000DEF88050C5F38815C7F3027705FB0CF5AB
:10161000B5FBF7F702E0224F00E000272569B5F59A
:10162000007F03D10AB1B60000E0F600B7FBF6F682
:1016300006EB86067600B6FBF3F30A260533B3FB0A
:10164000F6F66FF0010303EB5603FE2B05D3E06BB8
:1016500040F01000E0630120F8BD730806F00106B9
:10166000360233432B43036240F6BF75C369A66954
:10167000AB4365682B430B4341F080011A43B0290B
:1016800042EA060242F40062C26102BFC16941F44B
:101690008051C1610020E063012184F83910F8BD58
:1016A0000080BB000438024000127A00B0B5044646
:1016B0000068464DA84218BFB0BD0C48016821F42F
:1016C0008051016005F5504048F28001FFF748FD68
:1016D00005F554400821FFF743FD606BFFF785FBDC
:1016E0002320BDE8B04000F041B900BF44380240BB
:1016F0002DE9F04387B0044602A81421FEF7C7FD88
:101700002068324EB0425ED1314802AD4FF005083C
:1017100000274FF00209416941F48051416141695C
:1017200001F4805101910199016841F001010160CA
:10173000016801F0010101910199016841F0020184
:1017400001600068294600F0020001900198CDF880
:101750001880CDE90477CDF80C9048F28000029013
:1017600006F55040FFF7B4FD0820CDE90578CDE936
:1017700003970290294606F55440FFF7A9FD154D41
:101780004FF400504FF400614FF480624FF0C0639B
:10179000114EC5E90877C5E90063C5E90277C5E9D7
:1017A0000421C5E906072846FFF704FC08B1FEF747
:1017B000B5FE232002210022AC63656300F0F6F839
:1017C000232000F0E5F807B0BDE8F08300300140C9
:1017D000303802404822012010640240BCB5044663
:1017E000012000295AD0002A58D094F83800012846
:1017F00040D0012084F8380094F83900012836D10F
:10180000042084F839000D460020E063A1622168BD
:10181000C86900F00700052818BF032800D152004E
:10182000A285E2851F4B1E4A606BC3641E4BC0E954
:101830000F32CA6902F44072B2F5407F06D100222D
:101840000192CA6801928A680192019AA38D0C31B3
:101850002A46FFF73DFC78B1E06B002140F008001C
:10186000E063012084F8390084F83810BCBD002002
:1018700084F838000220BCBD2068C169490503D442
:10188000C16941F48061C1614168C90703D1416800
:1018900041F001014160002084F83800BCBD00BF68
:1018A00045300408FF2F04082330040802F0BABBB7
:1018B000704770471848034900780A681044086068
:1018C000704700BF30E3042080B5032000F08AF8A1
:1018D000002000F005F800F023F8002080BD000093
:1018E00070B50D4E04464FF47A713078B1FBF0F0CC
:1018F0000A490968B1FBF0F001F06CFB01250F2CDF
:1019000008D838B94FF0FF3021460022002500F0FA
:101910004DF87460284670BD0800002014000020B7
:1019200082B00A48016841F080510160016801F00D
:10193000805101910199416841F4804141604068C2
:1019400000F480400090009802B070474038024098
:10195000002808D400F01F010122400902FA01F119
:10196000014A42F82010704780E200E000280CD4C1
:1019700000F01F010122400902FA01F1034A42F876
:101980002010BFF34F8FBFF36F8F704780E100E0EF
:10199000002808D400F01F010122400902FA01F1D9
:1019A000014A42F82010704700E100E070B5134B87
:1019B0004FF0FF351B68C3F30223DC1E83F00703DF
:1019C00038BF0024042B28BF042305FA04F605FAC7
:1019D00003F3B2439943A1401143BDE8704002F0C4
:1019E0000FBB00BF05494FF6FF030A681A4060F3BA
:1019F0000A22034810430860704700BF0CED00E066
:101A00000000FA052DE9FC47D0F800A00446E34E9B
:101A10005FEACA7002D14FF000090BE0B06820F411
:101A20000000B060606BB1680143B0FA80F0B16053
:101A30004FEA50195FEA0A3002D44FF0000811E073
:101A4000E06BD6F88C1021F44011B0F5801F41EA0C
:101A50000001B0FA80F0C6F88C1008BF4FF0010901
:101A60004FEA50185FEACA2011D5206CD6F88C10C6
:101A700021F44001002841EA0001C6F88C1008BF9B
:101A80004FF00108B0F5800F08BF4FF001095FEA81
:101A90008A60574645D5306CC14F40F08050306465
:101AA000306C00F0805001900198386840F48070EC
:101AB0003860FFF7E7FC05463868C00505D4FFF736
:101AC000E1FC401B6428F7D9EBE1306F10F4407063
:101AD00014D0216B01F4407188420FD0306F316F08
:101AE00041F48031316720F44070316F21F480314E
:101AF00031673067306FC00740F0D9812768206BAD
:101B0000B268A84900F4407322F4F81201406FF360
:101B10001F30B3F5407F08BF0A43B260316F0843FE
:101B20003067F8060BD5D6F88C0020F08070C6F828
:101B30008C00A06BD6F88C100843C6F88C00780493
:101B400007D5606ED6F8901021F440310843C6F8EE
:101B50009000380407D5A06ED6F8901021F44021EB
:101B60000843C6F89000F80307D5E06ED6F8901049
:101B700021F440110843C6F89000B80307D5206F40
:101B8000D6F8901021F440010843C6F8900078067A
:101B900007D5606CD6F8901021F003010843C6F811
:101BA0009000380607D5A06CD6F8901021F00C01F3
:101BB0000843C6F89000F80507D5E06CD6F89010F9
:101BC00021F030010843C6F89000B80507D5206D14
:101BD000D6F8901021F0C0010843C6F890007805AF
:101BE00007D5606DD6F8901021F440710843C6F80F
:101BF0009000380507D5A06DD6F8901021F440610B
:101C00000843C6F89000F80407D5E06DD6F89010A8
:101C100021F440510843C6F89000B80407D5206E5F
:101C2000D6F8901021F440410843C6F8900078029D
:101C300007D5A06FD6F8901021F080610843C6F850
:101C40009000B8020DD5E06FD6F8901021F0006139
:101C5000B0F1006F41EA0001C6F8901008BF4FF0E4
:101C60000108780307D5606FD6F8901021F0407115
:101C70000843C6F89000380208D5D4F88000D6F89A
:101C8000901021F080510843C6F89000B9F1000F80
:101C900002BF0AF0807007F0007110EB010000F045
:101CA0008380306820F080603060FFF7EBFB0546F2
:101CB0003068000105D5FFF7E5FB401B6428F7D924
:101CC000EFE02068C10712D0616B81B9D6F88410AB
:101CD000D6F8842001F4403102F070621144D4E956
:101CE000012341EA821141EA0371C6F8841001031D
:101CF00003D5E16BB1F5801F05D0C1021DD5216C64
:101D0000B1F5800F19D1D6F88410D6F88420E36895
:101D1000656A01F4403102F0E0421144626841EA30
:101D2000821141EA0361C6F88410D6F88C20691E3E
:101D300022F01F021143C6F88C10C10110D5D6F84D
:101D40008410D6F88420236901F0706102F0E0422B
:101D50001144626841EA821141EA0341C6F88410E5
:101D600080010AD5231D0FCB1B0443EA801040EAF3
:101D7000026040EA0170C6F88400306840F080607C
:101D80003060FFF77FFB0546306800010CD4FFF799
:101D900079FB401B6428F7D983E000BF003802407C
:101DA00000700040FFFCFF0F17F0080008BFB8F1FB
:101DB000000F79D0306820F080503060FFF762FB70
:101DC00005463068800005D5FFF75CFB401B6428A2
:101DD000F7D966E02068010301D5E16B19B1C102B2
:101DE0001ED5216CE1B9D6F88810D6F88820A56AEE
:101DF00001F4403102F0E0421144D4E9052341EA04
:101E0000821141EA0361C6F888106FF0FF01D6F82D
:101E10008C2001EB052122F4F8521143C6F88C10F6
:101E2000810214D5E16FB1F1006F10D1D6F888109E
:101E3000D6F88820236A01F0706102F0E042114474
:101E4000626941EA821141EA0341C6F8881000073D
:101E500018D5D6F88800D6F88810E269E36A00F051
:101E6000706001F440310844616940EA811040EA41
:101E70000270C6F88800D6F88C0020F44030184371
:101E8000C6F88C00306840F080503060FFF7FAFAF6
:101E900004463068800007D4FFF7F4FA001B652879
:101EA000F7D30320BDE8FC870020BDE8FC87FFF7DF
:101EB000E9FA054641F28837306F80073FF51EAEDC
:101EC000FFF7E0FA411B0320B942F5D9EAE7000029
:101ED0002DE9F04100286AD0474F04468846D7F8DC
:101EE000000400F00F0088420DD2D7F8000420F063
:101EF0000F0040EA0800C7F80004D7F8000400F01B
:101F00000F00404553D12068810711D5410703D503
:101F1000B96841F4E051B960010703D5B96841F4EB
:101F20006041B960A168BA6822F0F0021143B9605B
:101F3000C00736D1D7F8000400F00F0040450DD996
:101F4000D7F8000420F00F0040EA0800C7F80004AA
:101F5000D7F8000400F00F00404528D12068410761
:101F600005D5E168BA6822F4E0521143B960000770
:101F700006D52069B96821F4604141EAC000B86023
:101F800000F042F8B9681D4AC1F30311515CC84022
:101F90001B4908601B480068FFF7A2FC0020BDE851
:101FA000F0816068012805D1396889030AD40120CD
:101FB000BDE8F0813968022802D18901F7D501E036
:101FC0008907F4D5B96821F003010843B860FFF729
:101FD00059FA064641F288356068B96801F00C018B
:101FE000B1EB800FA6D0FFF74DFA801BA842F3D9C2
:101FF0000320BDE8F08100BF003802409A64040865
:10200000140000200C00002010B5134C606800F094
:102010000C011248082903D004291CD1104810BD16
:102020002168236801F03F0221685B02C1F3881137
:1020300005D4A1FB00010023FEF7E2F803E0084805
:102040004843B0FBF2F021680222C1F3014102EBE8
:102050004101B0FBF1F010BD043802400024F4004F
:1020600000127A0070B586B00D46014614461F482E
:102070001F4EE1B1B16A00F5006041F00401B162A8
:10208000B16A01F00401009103210491022102913F
:102090004FF400710191002105910391009901A96C
:1020A000FFF716F93068E40020F0784018E0B16AD4
:1020B00041F00101B162B16A01F001010091032117
:1020C0000491022102914FF4807101910021059148
:1020D0000391009901A9FFF7FBF8306820F0EC604C
:1020E00044EA05010843306006B070BD00000240BC
:1020F000083802402DE9FC41002863D004460078EE
:10210000CF4EC0070AD0B06800F00C0004287ED182
:102110003068800302D56068002853D0207880079B
:102120001AD5B06810F00C0F09D0B06800F00C00A0
:10213000082840F088807068400200F18480306890
:10214000800702D5E06801283CD12069316821F080
:10215000F80141EAC00030602078000735D42078CB
:10216000400745D4A76957B3B06800F00C000828B1
:1021700040F0B2807068012F24D0E16900F4800241
:102180008A421FD1216A00F03F028A421AD147F6E3
:10219000C071626A0140B1EB821F13D1A16A4FF690
:1021A000FF72C903914300F44032A1F580318A42A5
:1021B00008D1E16A00F07060B0EB016F02D100203D
:1021C000BDE8FC810120BDE8FC81706F61690029D8
:1021D00072D040F001007067FFF754F90546706F48
:1021E0008007BCD4FFF74EF9401B0228F7D901E164
:1021F000306CC0003BD4306C4FF0010840F0805090
:102200003064306C00F080500190019831E0B0688B
:1022100000F00C00082803D1706840023FF578AF49
:102220006068002800F09F80B0F5803F07D03168DB
:10223000B0F5A02F40F0CB8041F4802030603068B2
:1022400040F48030C9E03068E168002963D040F094
:1022500001003060FFF716F90546306880073FF54A
:1022600074AFFFF70FF9401B0228F6D9C2E04FF018
:102270000008744F3868C0050FD4386840F4807087
:102280003860FFF7FFF805463868C00505D4FFF74A
:10229000F9F8401B6428F7D9ACE0A06800284BD0BF
:1022A000012805D0316F052873D141F00400306753
:1022B000306F40F0010072E020F001007067FFF71E
:1022C000E1F80546706F80077FF549AFFFF7DAF850
:1022D000401B0228F6D98DE0306820F08070306015
:1022E000FFF7D0F80546022F0AD13068800140F18F
:1022F0008480FFF7C7F8411B03200229F5D95FE767
:10230000306880017FF55BAFFFF7BCF8411B03200D
:102310000229F5D954E720F001003060FFF7B2F848
:102320000546306880077FF517AFFFF7ABF8411B14
:1023300003200229F5D943E7306F20F00100306710
:10234000306F20F004003067FFF79CF8054641F23B
:102350008837306F800731D5FFF794F8411B032091
:10236000B942F6D92CE7306820F48030306030680C
:1023700020F480203060FFF785F805463068800340
:102380007FF5CCAEFFF77EF8411B03206429F5D919
:1023900016E721F001003067306F20F0040030674D
:1023A000FFF770F8054641F28837306F800705D493
:1023B000FFF768F8401BB842F7D91BE0B8F1000FEF
:1023C0003FF4D0AE306C20F080503064CAE621F487
:1023D00080303060306820F480203060FFF752F8A1
:1023E0000546306880033FF599AEFFF74BF8401B78
:1023F0006428F6D90320BDE8FC811C341FCC0843B7
:10240000D90340EA82104FF6FF72914340EA04601C
:10241000A1F58031084340F000507060306840F012
:1024200080703060FFF72EF80446306880013FF579
:10243000C6AEFFF727F8011B03200229F5D9BFE636
:102440000038024000700040FDF784BF2DE9F041E4
:1024500086B004460320884684F83400606C032864
:102460000DD14FF08050A16BA24E0843A063A06B2A
:1024700058B320680125866384F8345030E0B8F101
:10248000000F3FD0B8F5805FEBD0B8F5006F4FD1AB
:102490000020CDE904000021206801F0F5FB800157
:1024A00049D404A9204601F079FC0028DBD19DF82D
:1024B0001600400739D5216D2068090401F0DCF8C9
:1024C0000028D0D12068022142E094E80F00D4E92E
:1024D0000575CDE90087029501F0D9FB206800253C
:1024E0004FF4007101F0FEF828B1216801258E63D8
:1024F000A16B0843A063012084F83400284606B08D
:10250000BDE8F0810020CDE904000021206801F041
:10251000BBFB80010FD404A9204601F03FFC00283A
:10252000A1D19DF81600C00708D14FF080609AE74E
:102530004FF0006097E74FF4006094E7216D20684A
:10254000090401F099F800287FF48DAF206800217C
:1025500001F0E2F887E700BF78B110B50446032028
:1025600084F83400206801F0A3FB204600F0FCFA58
:102570000020A06384F8340010BD0120704770472C
:10258000B0B5D0E91942436CA50F0D70012BC4F30F
:1025900083654D70C4F301658D704FEA1445CD70AD
:1025A0004FEA14250D714C714FEA1254CC80C2F3DE
:1025B00003440C72C2F3C0344C72C2F380348C7288
:1025C000C2F34034CC72C2F300340C734FF00004F9
:1025D0004C7330D0002B40F0818040F6FC73012515
:1025E00003EA8202C36E42EA93720A61C26EC2F3C8
:1025F000C2630B75C2F302634B75C2F342538B7512
:10260000C2F38243CB75C2F3C2330B764FF400732F
:1026100003660B690C7E013304F007040234A34007
:1026200043650C7A04F00F0405FA04F48465640A27
:102630006343C36512E002F03F02B0F86E3043EA34
:1026400002420A614FF480634FF4007202668265B1
:102650000A6903EB8222C2654265C26EC2F380330F
:102660004B76C2F3C6138B7602F07F02CA76006FF8
:10267000C20F0A77C0F341724A77C0F382628A7749
:10268000C0F38352CA77C0F3405281F82020002261
:1026900081F82120C0F3004381F82230C0F3C03319
:1026A00081F82330C0F3803381F82430C0F3403305
:1026B00081F82530C0F3003381F82630C0F3812340
:1026C00081F82730C0F30123C0B281F828304008D8
:1026D00081F82900012081F82A0009E00168054AF3
:1026E0008A630122816B41F08051816380F834203C
:1026F0001046B0BDFF054000B0B500F144053CCD2B
:1027000081E83C00426D0A61826D4A61C26D006ED3
:10271000C8618A610020B0BD10B504460068216D13
:10272000090401F00BF920B1A16B0843A06300205C
:1027300010BD2068002101F0A7FAC0F3432010BDAE
:102740002DE9FC4104460068256B416B15F0080635
:1027500018BF11F4004128D1416BC9053BD4416B2E
:10276000002E5ED011F480415BD0D4F82480B8F103
:10277000000F4ED0276A002601ADB819202E00F0B8
:10278000AB8001780191427841EA0221019182787F
:1027900041EA02410191C07841EA00600190294676
:1027A000206801F0A4FA0436E7E7D4F82C80B8F1E9
:1027B000000F2ED0A66A0027F519202F2BD02068F5
:1027C00001F082FA010EE97028700437010C000A4A
:1027D000A9706870F0E74FF4807181634CF23A128F
:1027E000002EC16B21EA0201C163C16A21F001011F
:1027F000C16255D129060CD5A90608D501F00AF900
:1028000028B1A16B0843A0632046FFF7B8FEA807D4
:1028100072D0BDE8FC81A8F12000C4E90A50BDE8EF
:10282000FC81416B11F03A0FF3D0416B890703D55E
:10283000A16B41F00201A163416B090703D5A16BB4
:1028400041F00801A163416B890603D5A16B41F0FA
:102850002001A163416BC90603D5A16B41F01001B2
:10286000A16340F23A518163C16B21F49D71C16350
:1028700001F0D0F8A16B40EA0100A06396BB2806E6
:10288000C7D515F0300F44D0E06B2F490165FEF736
:102890009AFA0028BDD0E06BBDE8FC4101F05CBABB
:1028A00015F0220F08D001F0B5F828B1A16B08434C
:1028B000A0632046FFF763FE206840F23A5181632F
:1028C000012084F8340000202063A8071CD0204693
:1028D000BDE8FC4100F0A8BAA8F12001C4E9080154
:1028E000BDE8FC81012084F83400002020632046EC
:1028F000BDE8FC41FFF743BE2068C16A21F0080132
:10290000C162012084F834002046BDE8FC4100F09B
:102910008DBAA8070CD0206C0C490165FEF753FA5C
:1029200000283FF476AF206CBDE8FC4101F0F2B91D
:102930000020A063012184F8341020632046BDE804
:10294000FC41FFF781BD00BF593D0408153D040857
:1029500010B590B1044690F8340020B900202077DB
:10296000204600F01FF9032084F83400204600F0D0
:102970000DF80146012011B110BD012010BD00214C
:10298000A163216384F83400002010BDF0B58FB03E
:102990007621044600680025CDE900550291002209
:1029A0000023002101F073F908B1012515E020682A
:1029B000416821F48071416001F07EF9206841682E
:1029C00041F480714160049500F0C0FE40B10125E2
:1029D00084F83450A16B0843A06328460FB0F0BDC3
:1029E000206800F0D9FE50B10020A064206800F0FB
:1029F000ADFE0028EBD1A06C012802D009E0012037
:102A0000A0642068002100F037FE10B14FF0805024
:102A1000DDE700214FF6FE76524D0020049AC0B942
:102A2000B24216D82068002100F026FE0028CED140
:102A30002068294600F03AFE0028E7D120680021EE
:102A400001F022F9049901310491C0F38071C00FA3
:102A5000E4E704984FF6FF72904202D34FF0807083
:102A6000B5E7206801256164ADF80E5001F008F962
:102A700088B1606C032811D12068042101F004F9A9
:102A8000000DE06404A92046FFF77AFD002846D037
:102A90004FF080509CE74FF0806099E7206800F08D
:102AA00005FF00287FF494AF20682D4E0021B04729
:102AB000606720680421B047A06720680821B047FC
:102AC000E06720680C21B047C4F88000606C0328E0
:102AD000D2D020680DF10E0100F04AFF00287FF4EB
:102AE00077AF606C0328C7D0BDF80E102068216551
:102AF000090400F0F2FE00287FF46AAF206800218C
:102B0000B047606620680421B047A06620680821AD
:102B1000B047E06620680C21B0472067ACE7216D24
:102B2000206800230A0400F0A7FE00287FF450AFBD
:102B300094E8EF008DE8E00001F0A9F820684FF478
:102B4000007100F0CFFD48B12168B64A01258A63C3
:102B5000A16B0843A06384F834503EE700253CE7AE
:102B6000893C0408000010C110B50068374CA04231
:102B700018BF10BD0A48016821F40061016004F526
:102B80005C404FF4F851FEF7EBFA04F56040042185
:102B9000FEF7E6FA3120BDE81040FEF7E7BE00BFC1
:102BA000443802402DE9F04387B0044602A81421BE
:102BB000FDF76DFB2068254DA84243D1244802ACA7
:102BC0004FF00C084FF0030901260227416941F438
:102BD00000614161416901F400610191019901685D
:102BE00041F004010160016801F0040101910199C3
:102BF000016841F0080101600068214600F008000A
:102C000001900198CDF81880CDF8149004960397A0
:102C10004FF4F850029005F55C40FEF759FB042094
:102C2000CDE90598CDE903760290214605F560408F
:102C3000FEF74EFB312002210022FEF7B7FE3120C5
:102C4000FEF7A6FE07B0BDE8F08300BF002C0140F0
:102C5000303802402DE9F04F87B09A4616460D46AF
:102C60000446FEF70FFC7DB1804694F8340001283D
:102C70000ED10021A1630AEB0600E26D90420FD94C
:102C8000A06B40F0007006E0A06B40F0006002E036
:102C9000A06B40F00050A063012007B0BDE8F08FAA
:102CA000032084F834004FF001094FF0020B206834
:102CB000676CC162CDE9051990210391CDF810B080
:102CC0004FF0FF3101914FEA4A21029101A900F032
:102CD000F1FE012F18BF7602BAF1020F06D3C4F835
:102CE00030B03146206800F093FD05E0C4F8309024
:102CF0003146206800F0A6FD58B12168B44A8A63C5
:102D0000A16B0843A063012084F8340000212163F3
:102D1000C3E7DDF84090DDF808B02068426B416BF6
:102D200012F4957F2CD1BBF1000F18BF11F40040B5
:102D300012D00027EE19202F0BD0206800F0C4FF1E
:102D4000010EF17030700437010C000AB170707020
:102D5000F0E7ABF1200B3546FEF794FBA0EB080043
:102D60004845DAD320689A498163A06B40F000405F
:102D7000A063012084F834000020206303208CE746
:102D8000BAF1020F0FD311F480710CD0616C0329DA
:102D900009D000F03FFE0146206821B18C4A8263D1
:102DA000A06B0843AEE7416B09070BD4416B890761
:102DB0000ED4416B89061ED585498163A06B40F016
:102DC00020009FE782498163A06B40F0080099E7EB
:102DD0007F498163A06B40F0020093E700F074FF2D
:102DE0002860FEF74FFBA0EB0800484512D20435DF
:102DF0002068ABF1040B416BBBF1000F18BF11F45D
:102E00000011EBD140F23A518163012084F8340083
:102E1000002042E720686E498163A06B40F00040CB
:102E200070E700BFFF054000FDF7D4BAFDF7E4BA34
:102E30002DE9F04F87B0984615460F460446FEF739
:102E400021FB7FB1824694F8340001280ED1002185
:102E5000A16308EB0500E26D90420FD9A06B40F032
:102E6000007006E0A06B40F0006002E0A06B40F054
:102E70000050A063012007B0BDE8F08F032084F864
:102E8000340001222068666CC1620692CDE904110B
:102E9000902103914FF0FF3101914FEA48210291B7
:102EA00001A900F007FE012E18BF6D02B8F1020F54
:102EB00006D3202020632946206800F0C7FD05E0E6
:102EC000102020632946206800F0DAFD58B12168FF
:102ED0003F4A8A63A16B0843A063012084F8340051
:102EE00000212163C7E7DDF84090DDF808B06D46AA
:102EF0002068426B416B12F48D7F32D1BBF1000F21
:102F000018BF11F480401AD00026B819202E13D013
:102F100001780091427841EA02210091827841EAE9
:102F200002410091C07841EA006000902946206883
:102F300000F0DDFE0436E8E7ABF1200B0746FEF7B4
:102F4000A1FAA0EB0A004845D2D32068204981634A
:102F5000A06BA063012084F83400002020630320CC
:102F600089E7B8F1020F0FD311F480710CD0616CB6
:102F7000032909D000F04EFD0146206821B1144A12
:102F80008263A06B0843A7E7416B09070DD4416B2F
:102F9000890710D4416BC90613D440F23A518163BA
:102FA000012084F83400002065E709498163A06BA3
:102FB00040F0080090E706498163A06B40F00200F2
:102FC0008AE703498163A06B40F0100084E700BFEB
:102FD000FF054000411E0020B0EB116F01D0012021
:102FE0007047044AF023516003490B709060072139
:102FF0001160704710E000E023ED00E0FEE7806B19
:1030000001684A6822F003024A600021C184C18538
:10301000012180F83910C16B41F00801C163FEF74E
:103020004EBAC169806B09B1FEF740BC01684A68BD
:1030300022F001024A600021C185012180F8391087
:10304000FEF734BC806BFEF733BC000010B5034CB8
:103050000348611CFDF763FA207010BD7800002062
:1030600028760408FEE77047B0B543F2230001213B
:1030700000F036FA43F22200082100F031FA002570
:1030800043F2230000F0D8F90446E8087C2820D851
:103090000520FEF753F80135002CF1D143F223004F
:1030A000012100F01DFA43F22200042100F018FA79
:1030B000002543F2230000F0BFF90446E8087C280D
:1030C00007D80520FEF73AF80135002CF1D1002091
:1030D000B0BD0220B0BD0000B0B50446D54D43F2EE
:1030E00012200321A84704F10C00042C38BFC4F1BE
:1030F00004000001C1B245F28750A847012145F202
:103100008850042C38BF0921A84743F2122013210C
:10311000A84743F21220A3212A46BDE8B040104739
:10312000F8B50446ED4D43F212200321A84745F2BD
:1031300081301C21A84745F282305A21A84745F228
:10314000833006212F46A84704EB44001049002590
:1031500045F2843601EB4004062D06D0A819615DC6
:1031600080B200F0BDF90135F6E745F28B309821C9
:10317000B84745F28A300121B84743F212201321A3
:10318000B84743F21220A3213A46BDE8F840104761
:103190004775040870B520240025062816D8DFE8F6
:1031A00000F004070A150D101300142514240DE077
:1031B000182518240AE01C251C2407E024241025C7
:1031C00004E02824182501E02C241C25C34E43F2DA
:1031D00012200321B04745F285502946B04745F2F9
:1031E00086502146B04743F212201321B04743F2E4
:1031F0001220A3213246BDE870401047B0B5044606
:10320000B64D43F216000221A84743F21C000221EA
:10321000A847002C18BF0124610043F219002A4678
:10322000BDE8B040104700BF70B54FF440502021BA
:1032300000F056F94FF40044214D224E45B170196B
:1032400090F8ED1FA0B200F04BF901350134F5E71D
:10325000A24C43F2220000210025A04743F22300A4
:103260000021A04743F224000021A04743F225009B
:103270000021A04743F226000021A04743F2270087
:103280000021A04743F228000021A04743F2290073
:103290007F21A0474FF440500021A04743F229006E
:1032A00000F0CAF804460520FDF748FFE8087C282E
:1032B00004D80135702CF1D1002070BD012070BD03
:1032C00013F0FFFF37650408B0B521480421002240
:1032D000FEF7D3F81E20FDF731FF43F20A0000F09D
:1032E000ABF8044643F20B0000F0A6F840EA0420D5
:1032F00045F24061884219D143F20310112100F0D8
:10330000EFF843F20800822100F0EAF80A20FDF706
:1033100015FF00240F4DCF2C0AD005EB840135F8A2
:103320002400897800F0DCF80134F4E701240CE093
:103330003220FDF703FF0120FFF760FF3220FDF789
:10334000FDFE00200024FFF759FF2046B0BD00BF5E
:103350000000024058770408B0B50024064D2D2C1B
:1033600008D005EB840135F82400897800F0B8F81E
:103370000134F4E7B0BD00BF72750408B0B504466F
:1033800043F21220032100F0ABF8C4EBC4000C4957
:1033900000250C18072D07D045F45050615D80B210
:1033A00000F09EF80135F5E743F21220132100F0FA
:1033B00097F843F21220A321BDE8B04000F090B886
:1033C000247504082DE9F04188460546434C43F234
:1033D000122003211E461746A047390A43F608006B
:1033E000A047F9B243F60900A047310A43F60A00A4
:1033F000A047F1B243F60B00A047290A43F610009C
:10340000A047E9B243F61100A0474FEA182143F65E
:103410001200A0475FFA88F143F61300A04743F279
:1034200012201321A04743F21220A321A04700201D
:10343000BDE8F081E1340408B0B5044600F0ACF812
:10344000344D7820A847200AA847E0B2A84700F0EA
:10345000BDF800F0A1F87920A84700F07BF80446F9
:1034600000F05CF800F0B2F82046B0BD10B520289E
:103470000CD8044645F20830652100F031F845F2D9
:1034800002302146BDE8104000F02AB8134C45F246
:1034900008302521A0474FF4A6400821A04745F257
:1034A00001303021A04745F202301021A04745F2FB
:1034B00003300021A04745F209300821A04745F21A
:1034C0000A303021A04745F20B300421A04745F2D5
:1034D0000C3006212246BDE810401047E1340408B4
:1034E000F8B50C46054600F057F80A4F7820B84763
:1034F0000646280AB8470643E8B2B84746EA000538
:103500002046B84755EA000418BF012400F05EF8D1
:103510002046F8BDFD3504087047000070B5364EF2
:10352000B047504C504D012101222046A84720466B
:1035300002210122A847B047204602210022A847C5
:10354000B047204601210022A8473046BDE8704020
:10355000004700BFF8B508260027424C300619D0B6
:1035600000F084FF204602210122FDF786FF20465D
:103570000121FDF775FF054600F078FF2046022186
:103580000022FDF77AFF002D18BF012545EA470705
:10359000013EE3E7F8B2F8BDB0B5324C324D01213F
:1035A00001222046A847204602210122A84700F018
:1035B0005DFF204601210022A84700F057FF20466A
:1035C000022100222B46BDE8B040184770B5254CBB
:1035D000254D012100222046A847074EB04720462E
:1035E00002210122A847B047204601210122A84715
:1035F0003046BDE8704000476D440408F8B5054604
:103600000026184C184F072E13D8E8B20121C20922
:103610002046B84700F02AFF204602210122B84781
:1036200000F024FF204602210022B84701366D0039
:10363000E9E700F01BFF204602210122FDF71DFFF4
:1036400000F014FF20460121FDF70AFF0546204641
:1036500002210022FDF711FF002D18BF0125284689
:10366000F8BD00BF000C02407B1404080148FFF7BE
:1036700067B800BFA822012010B586B004464FF4F9
:103680008060059000200490402003903720CDE911
:10369000011001A9204600F01AFB2046372141F213
:1036A000883206B0BDE8104000F016BA10B586B0FA
:1036B00004464FF480600590002004904020039061
:1036C0002920029006480843019001A9204600F0F5
:1036D000FEFA204606B0BDE8104000F0AFBA00BFC9
:1036E0000000108010B586B004464FF4806005904D
:1036F00000200490402003901020CDE9011001A982
:10370000204600F0E4FA2046102141F2883206B04B
:10371000BDE8104000F0E0B910B586B004464FF4A3
:103720008060059000200490402003900620CDE9A1
:10373000011001A9204600F0CAFA2046062141F2F4
:10374000883206B0BDE8104000F0C6B910B586B0AA
:1037500004460020CDE90300CDE9010001A94FF4A2
:1037600080600590204600F0B2FAA9484FF4FA5163
:103770000068B0FBF1F041F288314843C0430130AA
:1037800006D2616B0906FAD5C520A063002001E0CE
:103790004FF0004006B010BD10B586B004464FF49F
:1037A0008060059001A9002004904020039008202B
:1037B00002904FF4D5700190204600F088FA9448AA
:1037C0004FF4FA510068B0FBF1F041F28831484300
:1037D000C043013013D2616B11F0450FF9D011F4E1
:1037E0000061F6D1606B40070CD4606BC0070BD151
:1037F000606B400601D54020A063002006E04FF03A
:10380000004003E0042000E00120A06306B010BDEA
:1038100010B586B004464FF48060059000200490F7
:10382000402003901220CDE9011001A9204600F0AC
:103830004EFA2046122141F2883206B0BDE810400F
:1038400000F04AB910B586B004464FF48060059088
:1038500000200490402003901120CDE9011001A91F
:10386000204600F034FA2046112141F2883206B099
:10387000BDE8104000F030B910B586B004464FF4F2
:103880008060059001A9002004904020039007204B
:10389000CDE90120204600F01AFA2046072141F226
:1038A000883206B0BDE8104000F016B910B586B0F9
:1038B00004464FF48060C02105900391002002214E
:1038C0000490CDE9010101A9204600F000FA20464C
:1038D00006B0BDE8104000F08BB910B586B00446C4
:1038E0004FF48060059000200490C02003900920D0
:1038F000CDE9011001A9204600F0E9F9204606B003
:10390000BDE8104000F074B910B586B004464FF41D
:103910008060402105900391002033210490CDE97F
:10392000010101A9204600F0D2F92046332141F2DD
:10393000883206B0BDE8104000F0CEB810B586B0B1
:1039400004464FF4806005900020049040200390CE
:103950000D20CDE9011001A9204600F0B8F920465C
:103960000D2141F2883206B0BDE8104000F0B4B835
:10397000B0B586B00C4605464FF4806040210590F6
:103980000391002003210490CDE9010101A92846FB
:1039900000F09DF9B9484FF4FA510068B0FBF1F01E
:1039A00041F288314843C04301301FD2696B11F0A6
:1039B000450FF9D011F40061F6D1686B400718D4B7
:1039C000686BC00717D12869C0B2032817D1C5207A
:1039D000A863686910F4604F13D0410415D4000443
:1039E0004FF4805058BF4FF4803006E04FF0004055
:1039F00003E0042000E00120A86306B0B0BD012070
:103A0000FBE7000C20800020F7E74FF40050F4E7BC
:103A10001400002010B586B004464FF480604021A9
:103A20000590039100200C210490CDE9010101A92A
:103A3000204600F04CF9044A20460C2106B0BDE8AF
:103A4000104000F049B800BF00E1F50510B586B0A0
:103A500004464FF4806005900020049040200390BD
:103A60001920CDE9011001A9204600F030F92046C7
:103A7000192141F2883206B0BDE8104000F02CB8A0
:103A800010B586B004464FF4806005900020049085
:103A9000402003901820CDE9011001A9204600F034
:103AA00016F92046182141F2883206B0BDE81040D0
:103AB00000F012B8B0B591E83C00426283620A6936
:103AC00045EA040349691A431143C26A22F0F70226
:103AD0001143C1620020B0BD10B5034667484FF4E2
:103AE000FA540068B0FBF4F05043013001383FD085
:103AF0005A6B12F0450FF9D012F40062F6D1586BF0
:103B0000400738D4586BC00737D1C520986318696F
:103B1000C0B2884234D158693449084232D00028B2
:103B200032D4410033D4810033D4C10033D40101F5
:103B300034D4410135D4C10136D4010237D4410215
:103B400038D4810239D4C1023AD441033BD4810331
:103B50003CD4C1033DD401043ED441043FD481048C
:103B600040D400074FF4000058BF4FF4803010BD20
:103B70004FF0004010BD042000E00120986310BD0C
:103B8000012010BD002010BD4FF0007010BD40207E
:103B900010BD802010BD4FF4807010BD4FF4007038
:103BA00010BD4FF4806010BD4FF4006010BD4FF4A5
:103BB000805010BD4FF4005010BD4FF4804010BD38
:103BC0004FF4004010BD4FF4003010BD4FF4802082
:103BD00010BD4FF4002010BD4FF4801010BD4FF405
:103BE000001010BD4FF4800010BD00BF08E0FFFDC5
:103BF00022494FF4FA520968B1FBF2F141F28832DE
:103C00005143C943013110D2426B12F0450FF9D034
:103C100012F40062F6D1416B490709D4416BC90720
:103C200008D1C5218163002106E04FF0004103E087
:103C3000042100E001218163084670470F494FF4D9
:103C4000FA520968B1FBF2F141F288325143C9439B
:103C500001310ED2426B12F0450FF9D012F400621E
:103C6000F6D1416B042211F0040108BFC522826322
:103C700001E04FF000410846704700BF14000020EB
:103C8000006800F003007047084440697047B0B511
:103C90001143049A446847F6FF651943AC43114346
:103CA000059A1143069A1143214341600020B0BD9B
:103CB000002101600020704780B5032101600220CF
:103CC000FDF73CFA002080BDD0F88000704770B549
:103CD00091E83C00826040F6FF762343C2680969A0
:103CE0002B43B24319431143C160002070BD0968E2
:103CF000C0F880100020704710B5744C012020706F
:103D0000FCF72EFB18B9207800F0FE002070207818
:103D100010BD00BF10B5846B40F23A51206881633A
:103D20002046FEF7F9FC0538012184F834100128FB
:103D30004FF00001216305D82068FFF76BFEA16BEF
:103D40000843A063A06B00282046BDE8104018BFC0
:103D5000FEF715BCFEF778BB10B5846B40F23A5104
:103D6000206881632046FEF7D7FC0538012184F8DE
:103D7000341001284FF00001216305D82068FFF7B7
:103D800049FEA16B0843A063A06B00282046BDE854
:103D9000104018BFFEF7F3BBFEF756BB2DE9F0410C
:103DA00088B00C460546FDF76DFB06460020CDE9C0
:103DB000000008212868FFF795FC002851D1296DE3
:103DC00028680904FFF758FC00284AD10120079011
:103DD00002A90020069002200590302004900820BF
:103DE00003904FF0FF3002902868FFF763FE2868C9
:103DF000FFF78AFDA8BB0027E8462968486B10F04A
:103E00002A0F14D1486B800203D4486B800406D477
:103E10000DE00846FFF758FF48F827000137FDF787
:103E200031FB801B01304FF00040E6D119E0486BB8
:103E3000000710D4486B80070FD4486B80060ED45F
:103E400040F23A508863DDE9000100BA09BAC4E9DA
:103E50000010002005E0082002E0022000E0202001
:103E6000886308B0BDE8F08110B5184C01202070BF
:103E7000FCF77EFA10B9FFF73FFF2070207810BDE5
:103E800010B588B0084611490978C9070BD1032835
:103E90000BD81446DFE800F018020B116846FCF757
:103EA0005BFA06980EE003200EE004200CE0684662
:103EB000FCF752FA0798208005E06846FCF74CFAB8
:103EC0000798400A2060002008B010BD10000020B4
:103ED00080B5084611461A464FF0FF33FCF76CFADE
:103EE00008B1012080BDFCF73BFA0028FBD100207F
:103EF00080BDFFF701BF80B5084611461A464FF056
:103F0000FF33FCF769FA08B1012080BDFCF728FAFD
:103F10000028FBD1002080BD0148FDF7D4BA00BFC6
:103F2000380000207047FDF7C5BC00002DE9F041C6
:103F3000B2B026AD1421281DFCF7A9F9E846682186
:103F400008F11400FCF7A3F92548022600270124F4
:103F5000016841F080510160006800F080502190BC
:103F600021982048016866F38F310160006800F4F1
:103F7000404021900E20CDE93060A8202F900820ED
:103F80002E90CDE92C672994269610202A9021980E
:103F90002846FEF7AFF84FF48050259005214FF4E6
:103FA000A0502490CDE922670F20219021A8FDF791
:103FB0008FFF3220019004960B480090CDE91F77C7
:103FC0000D9709940396042002904046FDF71AFDD0
:103FD000002000210022FEF745F832B0BDE8F08154
:103FE00040380240007000400100A0000248016813
:103FF00041F470010160704788ED00E0FEE70000C9
:1040000010B500F00F03064C044AB0F1FF3F234403
:10401000C8BF83180801187010BD00BF00E400E09D
:1040200014ED00E0B0B5204D0446686801306860CA
:10403000A8786A78811E18BF411CCBB29A4206D07C
:10404000A9702046FDF73CFA0128FAD1A878064964
:1040500045F2206210FB0211204641F28852BDE871
:10406000B040FDF7BBBB00BF241F002070B540B1BE
:104070000D4841788078814215D0BDE8704001F04C
:104080009DBB094D287858B100202870074E084C78
:1040900007203070307818B1204600F00DFDF8E7A9
:1040A0000020A5F8010070BDBC0000202C000020FD
:1040B0003C05002010B5054C217831B100F00AF91B
:1040C0000020207060680130606010BDB4000020E6
:1040D000B0B5016005468260090118461C46FCF730
:1040E000D6F86C60B0BD0000B0B504464FF0FF30AC
:1040F00020630020E070204601F0CCFE08B10420CF
:10410000B0BDB4F832024AF6552188421CD194F869
:104110003400E92805D0EB2818D194F8360090280F
:1041200014D104F16A0001F037FD20F07F40084D02
:10413000A84207D004F1860001F02EFD05F14C5194
:10414000884203D10020B0BD0320B0BD0220B0BD25
:104150004641540010F8012B0AB18A42FAD11046A8
:1041600070470000F0B50022BF4B0024202A11D078
:104170009D5865B10668B5420AD19D1887686E687A
:10418000BE4205D1AE684769BE4201D10BE00124B1
:104190001032EBE71222002C18BF0022881E18BF35
:1041A0001046C0B2F0BD09B11020FAE7A889A0F509
:1041B0008070B0FA80F040090001F2E710B50021EC
:1041C000A94A0023202B05D0D458844208BFD150DF
:1041D0001033F7E710BD00BF0268C36A490A50896F
:1041E000B1FBF0F0191D0A6822B1904204D3801A85
:1041F0000831F8E700207047496808447047826931
:104200000239023A91422FBF0020C26A408901FB65
:10421000002070472DE9F04188460746046841B107
:104220003846414601F052FA022809D20120BDE881
:10423000F081256915B1A069854207D3012505E004
:10424000411C1AD0A1694546884231D32E46A06947
:104250000136864228BF022601D3022D0AD33846F2
:10426000314601F033FA411C22D050B101281FD051
:10427000AE42ECD10020BDE8F0814FF0FF30BDE848
:10428000F081204631464FF0FF3201F01FFE01461B
:10429000B8F1000F06D029B920464146324601F058
:1042A00015FE014631B10120012908BF4FF0FF3052
:1042B000BDE8F0812661D4E905010239884201D8C0
:1042C00001386061207940F0010020713046BDE87E
:1042D000F08100002DE9F04391B0044600201090D9
:1042E0000F900E908DF8370010904A4F01201099D2
:1042F000890B0E2921D81099795CFF2908D11099D2
:1043000039444978D82903D110990F918DF8370095
:104310001099795CFF2907D1109939444978D92936
:1043200002D19DF8371019B9109901311091DEE7CB
:1043300010980F99401A02300E900E98002859D00C
:1043400006AD1E21DDF83C902846FBF7A0FF01AE2C
:1043500014213046FBF79BFFDFF8BC802FA13046CD
:10436000D8F8002001F0C6FF2846FBF7A7FF2C492C
:10437000295028442B49416028463146FBF792FFDB
:10438000FBF79CFF2849295028440A226721818095
:104390002648294600F07CFC254EB070B07870B9F4
:1043A00007EB09010E9A21486B4600F0DCFD3070E6
:1043B00007207070307850B11C4800F07DFB154A22
:1043C000204600214FF47053FCF716FA1EE06527D3
:1043D000164D013F0CD0284600F06EFB70707078CF
:1043E0000028F6D1D8F800000130C8F800000DE030
:1043F00001F016FE074A204600214FF47053FCF7E7
:10440000FBF92068C16841F00101C16011B0BDE84D
:10441000F08300BF2C2301208421012025640000AB
:104420002F696D6167652F002E6A70656C0700202B
:104430000200002010B5411E012910D80A4A02EBE3
:1044400001108389B3F5807418BF1C46002C18BF77
:10445000013C848120044FF0000002D010BD0220F6
:1044600010BD0901505010BDE800002082B00020AE
:10447000ADF80600BDF80600092806D800980130FE
:104480000090BDF806000130F2E7BDF806000130EB
:10449000ADF8060002B070472DE9FE4F002104463A
:1044A000D0F800A000F074FA08B1BDE8FE8F4FF01C
:1044B000FF3704F124054FF0FF0B4FF00D084FF0CC
:1044C000FF092763E169504601F0E4FC0028ECD1C4
:1044D000266A3078002800F08B80F27AE52802F016
:1044E0003F01A17103D012070BD50F2909D0276313
:1044F0004FF0FF0B2046002100F082F80028E1D0A9
:10450000D3E70F290AD194F82F104906F2D44106B7
:104510001BD45FFA8BF18842EAD11CE05FEA0B60A2
:1045200004D1304601F050FE814564D094F82F004C
:10453000C007DCD10020295C325C0A2802D001309F
:104540008A42F8D08A42D2D155E096F80D9061693E
:10455000216300F0BF0B707B8145C9D1708B0028AF
:10456000C6D1DAF80C000190CDF800904FF00009A8
:10457000307800F03F0000FB08F0A0F10D080120AA
:10458000B9F10D0F1FD01D4911F80910775A90B1DC
:10459000B8F1FE0F20D8384600F0D0FD0290019807
:1045A00030F8180000F0CAFD0299814214D108F1D8
:1045B0000108384604E04FF6FF7087420CD1002016
:1045C00009F10109DCE750B1307810F0400006D065
:1045D000019830F8180010B14FF0FF0B01E0ABF17B
:1045E000010B4FF0FF374FF00D08DDF8009081E729
:1045F0000420BDE8FE8F0020BDE8FE8F2A65040878
:104600002DE9F0470446C069042690B18A466169E5
:104610003E4A01F1200595420BD82F46D4F8009070
:104620006FF35F2747B109EB07000026656134305F
:1046300020623046BDE8F087A1690130E06171B1C8
:10464000B9F80A00104400F5C00010EA552FEAD16D
:10465000204601F03BF802280AD20226E9E7B9F821
:104660000800B0EB551FDED80020E0610426E0E72B
:104670008046013023D0D9F81800804507D248463B
:104680004146C4F81880FFF7BAFDE061CBE7BAF104
:10469000000FE9D0A1692046FFF7BCFD804601303C
:1046A000032808D21A4901EAC0001A4921FA00F089
:1046B000C0B2BDE8F087484601F0D8FD08B1012638
:1046C000B7E709F134004FF40071FBF7E0FD48460D
:1046D0004146FFF794FD4FF0000A0126B9F80A1091
:1046E000C9F830008A450CD2484689F8036001F0C9
:1046F000BDFD00289DD1D9F830000AF1010A013032
:10470000ECE7A0EB0A00C9F83000B8E7FFFF1F0094
:10471000F8FFFF00010702002DE9F04F89B00446C1
:1047200090F82F0010F0A00F03D0062009B0BDE8CC
:10473000F08F25680027E86830F817100137002946
:10474000FAD104F1240104A80C22029101F09AFB91
:104750009DF81B100395C80703D1880767D401256E
:104760006BE00126884D4FF003090DF11C084FF056
:10477000000A4020019184F82F00642E00F0E080B0
:10478000039804A90B22D0F80CB0029801F07AFB30
:10479000062E314612D3BBF8000078B1102252B178
:1047A00000F00103013A400843EA4103090448BF0D
:1047B0006B401946F3E70BF1020BECE7B446072018
:1047C00006231A460B460E0969F31F13392B88BFBF
:1047D000073308F800300138BAEB111FA2F10103CA
:1047E0003146EED17E2108F8001000213AB163185D
:1047F00093F82430202B03D0013A0131F6E701462B
:104800006646072804EB010301F101019ABF18F87D
:10481000002001302022082983F82420F1D32046EB
:10482000FFF73AFE002840F089800136A5E707F13E
:104830000B000D21B0FBF1F0451C2046002127683C
:1048400000F0A6F800287DD0042808BF0720002823
:104850007FF46CAFB5F1010B039D54D06069A0EB00
:104860004B11204600F094F800287FF45FAF0298C7
:1048700001F0AAFC82464FF6FF76DFF810914FF068
:104880000108039DE169284601F004FB00287FF43C
:104890004DAF206A0F21D5F80CC05FFA8BF30022D0
:1048A0000025A0F80B100D21428380F80DA04B438A
:1048B0000D3B19F80270B5421ABF3CF81350013392
:1048C0004FF6FF750132290A002DC555074479704E
:1048D00008BF35460D2AECD1B54204D03CF8131080
:1048E0000029594601D14BF04001039D017020463B
:1048F000002185F80380FFF783FE00287FF416AFC0
:10490000BBF1010BBED1E169284601F0C3FA0028D2
:104910007FF40CAF206A2021FBF7B9FC206A0299D2
:104920000B2201F0AFFA94F82F10206A01F0180161
:10493000017301200399C8700020F7E6642E1BD193
:104940000720F3E60026E169384601F0A3FA0028C3
:104950007FF47AAF206A0078E52818BF002803D1D9
:104960000136AE4201D175E7002620460121FFF74E
:1049700047FE0028E7D067E704287FF4D7AE019907
:1049800084F82F10E9E600BF211001002A65040811
:104990002DE9F04104462448014202D00220BDE83E
:1049A000F081A7680D46D4F8008061619FB1B8F826
:1049B0000A004602B5421FD32046394600F086FE63
:1049C000074601302CD0022FE8D3D8F818008742D0
:1049D000E4D2AD1BEEE798F80000032803D3D8F823
:1049E0002870002FE3D1B8F80800B0EB551FD5D9D7
:1049F000D8F82800002703E040463946FFF7FFFBC0
:104A00000028C4E90670C9D000EB55206FF35F257C
:104A100008EB05013431C4E907010020BDE8F0814D
:104A20000120BDE8F08100BF1F00E0FF214A115CBA
:104A300009B10020704701211154111802EB8000C8
:104A40004068097A02680846104700BF10B5194C43
:104A5000231804EB80001B7A4068D0F810C0184679
:104A6000BDE81040604700BFB0B5124D2C1805EBF3
:104A70008000247A4068D0F808C02046BDE8B040E5
:104A8000604700BF0B4A111802EB8000097A4068AA
:104A900042680846104700BFB0B5064D2C1805EB1C
:104AA0008000247A4068D0F80CC02046BDE8B040B1
:104AB000604700BF882101201CB5044600F00CFAB5
:104AC00000B11CBD01A9204601F0FCFB0028F8D173
:104AD0002069FFF7AFFC0028F3D1002020601CBD47
:104AE0002DE9F04F8FB00E900EA86946022200F01B
:104AF00065FB009C06460028019440F09D800E99BD
:104B000001A800F091FC0646002808BF0826042EE4
:104B100040F0928001A800210026FFF77BFB814630
:104B20006089B9F1000F4FEA4020049008BF0726C2
:104B3000B9F1010F08BF022619F1010008BF0126D3
:104B400016B100F019FE72E0204601F08FFB064618
:104B500000F012FE002E6AD1804620464946FFF73B
:104B60004EFB074604F140004FF4FA71FBF78FFB50
:104B700042F22000A4F83D00A24641462E254FF007
:104B80002030C4F83900C4F83500102084F83F0004
:104B90000AF8345F04F14A0001F07DFA20465146DC
:104BA0004A4601F06FFA04F154065146202230467D
:104BB00001F068F92178039884F85550032904D14D
:104BC000A16A421A18BF024600E00246204631465A
:104BD00001F058FA65894FF0010B75B1204684F851
:104BE00003B0276301F042FB00BB50464FF4007155
:104BF000FBF74DFB013D0137EFE701A8FFF78CFD07
:104C00000646A0B9099D414605F1160001F043FA98
:104C1000204629464A4601F035FA1020E872012064
:104C2000E070204601F0DEFA064605E0064601A8DF
:104C30004946002201F0BCF930460FB0BDE8F08FC4
:104C4000FEB50546029068461446CDE9001100F015
:104C500095FD002815D40D4901EB80077E6826B12B
:104C60003046FFF7ABFA0020307065B10020012C10
:104C700028707D6004D101A802A9002200F09EFAEC
:104C8000FEBD0B20FEBD00207D60FEBDAC000020FF
:104C90002DE9F04F8FB00E9170B102F03F0915462B
:104CA00083460EA869464A4600F088FA074640B196
:104CB0000020CBF8000000E00927F8B20FB0BDE8F3
:104CC000F08F0E9901A8DDF80080CDF8048000F087
:104CD000ABFB074668B99DF93300002808D415F0EE
:104CE0003E0101A818BF0121FFF73CFA074600E08A
:104CF000062719F01C0F11D0F7B1042F25D1002180
:104D0000744801F11002302A1ED041580029114682
:104D1000F7D101A8FFF700FD074616E0002FC7D125
:104D20009DF80A00C10600F1CD805FEA897149D57E
:104D300010F0010006D145E09DF80A0010F0110FB7
:104D400000F09D800727B3E7122749F00809B7BB99
:104D500019F0080033D000F00FFD0546099E06F15A
:104D60000E00294601F097F906F11600294601F0D8
:104D700092F92020F0723146404600F001FF0546CE
:104D80000020708398F80010032908BFB082F061FA
:104D9000012088F80300ADB101A829460022D8F807
:104DA000306001F005F9074600287FF481AF4046E6
:104DB000314601F06FF80746681EC8F81000002F52
:104DC0007FF476AF099DCBF8285000210027D8F852
:104DD0003000CBF8240009F0080049EAC00401A81B
:104DE000012C88BF012100F06DFD0028CBF81000D8
:104DF00066D04046294600F0C3FE0646CBF80800C0
:104E000005F11C0000F0C8FECBF82C70CBF80C00AC
:104E1000CBF80080CBF820708BF815708BF814401D
:104E2000CBF8187005460BF1300A4FF40071B8F852
:104E30000600ABF804005046FBF729FA5FEA8960E8
:104E40007FF53BAF002D3FF438AFCBF8185000276B
:104E5000B8F80A004402380615D1A54213D95846BD
:104E6000314600F033FC0646002101302D1B022E96
:104E700038BF01214F00002808BF0127EBE70820B9
:104E800000EA450763E7E905CBF81C601CD0D8B9F8
:104E900040463146FFF7B3F990B100EB5522CBF80D
:104EA00020205146012398F80100FFF7DDFD00287E
:104EB00040EA070018BF012700067FF4F9AE06E0BC
:104EC0000227F5E60427F3E600287FF4F1AE002779
:104ED000F3E600BFE8000020F8B56946044601F09B
:104EE000F1F90746E8BB207D410601D4002738E0F0
:104EF0000006009D0CD56878226A04F13001012378
:104F00000127FFF7C9FD60BB207D00F07F00207501
:104F100000F032FC0646616A284600F0BBFF0746F7
:104F2000F8B9A76A3946F87A40F02000F87220688C
:104F3000A26801F0A7F8E16807F11C0001F0ABF8E6
:104F400007F11600314601F0A6F800207882012012
:104F5000E870284601F046F90746207D00F0BF00C2
:104F600020753846F8BD2DE9FE4F044600208B46DB
:104F7000186002A99A461646204601F0A3F908B91E
:104F8000607D08B1BDE8FE8F207D800702D4072038
:104F9000BDE8FE8FA169C843B04238BF0646DDF8C0
:104FA000089004F130000190002E00F0998008462E
:104FB0006FF35F2078B1C0F5007520445946B542C3
:104FC00088BF354630302A4600F05CFF207D40F037
:104FD0008000207560E0B9F80A00013800EA512825
:104FE000B8F1000F19D129B1E06A40B12046FFF7AE
:104FF000F3F808E0A06830B92046002101E0E1693B
:105000002046FFF707F9411C73D0002868D001281B
:105010006DD0A168E06101B9A06094F91400B0F10D
:10502000FF3F0CDC99F80100226A01990123FFF788
:1050300033FD00285DD1207D00F07F002075E169FF
:105040004846FFF7DCF8002851D000EB08050020A7
:10505000B0EB562F30D0770AB9F80A102A4608EB81
:105060000700884288BFA1EB080799F8010059465C
:105070003B46FFF711FDE0BB206A401BB8420AD255
:105080000BEB402101984FF4007200F0FBFE207DF5
:1050900000F07F0020757D02A169DAF80020E06849
:1050A000761BAB4429442A44A161CAF800208142FE
:1050B00088BF0846E06077E7206AA8420BD0E06826
:1050C000A169814207D299F8010001992A4601237A
:1050D000FFF7CAFC68B9A06925626FF35F206AE731
:1050E000207D40F0400020750020BDE8FE8F0220AA
:1050F00000E001206075BDE8FE8F0000802800D22E
:10510000704719B1FF280BD90020704700210A4AC7
:105110008029F9D032F81130834208D00131F7E705
:10512000054901EB40006FF0FF01405A704701F163
:105130008000C0B2704700BF3C760408B0B51E497D
:105140001C4AB0F5805F38BF11460A88531E9BB2D7
:1051500083422CD24C880431230A52FA84F58542CA
:1051600005D8E2B2002B08BF01EB4201EDE7082BA6
:105170001DD8DFE803F005090E10121416181A00E6
:10518000801A31F8100012E0811A01F00101401A72
:105190000DE010380BE0203809E0303807E01A380D
:1051A00005E0083003E0503801E0A0F5E35080B29C
:1051B000B0BD00BF507B0408947A04082DE9F04F7D
:1051C00085B00F4600211546396000F0D7FA002857
:1051D00017D4DFF84482064608EB8000446804B325
:1051E0003C6005F0FE05207868B16078FFF74AFC66
:1051F000C10708D140070A21002D18BF01EAE07558
:1052000070E00B256EE0002020706670F0B2FFF7B2
:105210000DFCC10707D145B110F0040005D00A25E7
:1052200060E00C255EE003255CE0204600210025BF
:10523000FEF75AFF022820D101AE00253746402D47
:105240000CD0601990F8F61121B100F5FD7000F056
:10525000A3FC00E0002001C71035F0E7002756F856
:10526000275035B120462946FEF73EFF022801D2DD
:1052700009E003200137042FF1D1042801D10125D1
:1052800030E001282DD8B4F83F00B0F5007F28D1D8
:10529000B4F84AB0BBF1000F04D104F1580000F09B
:1052A0007BFC834694F84460C4F81CB0A670701E62
:1052B000012816D894F841706781781EB7FA87F1F3
:1052C00038404FEA511118BF0120084309D194F822
:1052D000461094F8450040EA012A0007A4F808A007
:1052E00004D00D25284605B0BDE8F08FB4F847007E
:1052F00018B904F1540000F04FFCB4F84220002A21
:10530000EFD00BFB06F101EB1A1313449842E8D3DC
:10531000C01AB842E5D3B0FBF7F75819E0624FF076
:105320000309A8184FF6F672C4E90850BE1CA6611E
:10533000974240F6F67238BF4FF00209974238BFE5
:105340004FF00109B9F1030F10D194F85E0094F801
:105350005F1040EA0A0040EA01200028C1D104F1B0
:10536000600000F019FCA062B0000EE0BAF1000F7E
:10537000B7D00844A062B9F1020F0FBF700006EB6E
:10538000460006F0010101EB500000F2FF10BBEBFC
:10539000502FA6D34FF0FF30B9F1030FC4E904003A
:1053A0004FF08000207128D1B4F86400012824D186
:1053B000691C204600F06EFDF8B9002020714AF605
:1053C0005521B4F83202884217D104F1340000F0BC
:1053D000E3FB1249884210D104F5067000F0DCFBB3
:1053E0000F49884209D104F5077000F0D5FB6061D0
:1053F00004F5087000F0D0FB20610A4884F80090A2
:10540000E060B8F800000130A8F80000E080204615
:10541000FEF7D4FE002565E7AC0000205252614142
:1054200072724161080100202DE9F04F85B00D46F0
:105430008146D0F800A028785C2801D02F2801D11F
:105440000135F8E70020C9F808002878202809D29B
:10545000802089F82F000021484605B0BDE8F04FB4
:10546000FFF796BA09F1240B5046D0F80C800024BF
:10547000285D661C202824D35C2818BF2F2817D04D
:10548000FF2C00F002810121FFF738FE002800F018
:10549000FC8007467F2806D884A03946FEF75AFECE
:1054A000002840F0F28028F814703446E0E7013616
:1054B000A85D5C28FBD02F28F9D05B464FF0000B8D
:1054C00002E05B464FF0040B3544A8F10200002CCB
:1054D00000F0D88030F814202146013C202AF6D074
:1054E0002E2AF4D0CDF810904FF0000928F8119032
:1054F0004FF02032C3F807205A6002931A6038F840
:1055000019202E2A01D0202A02D109F10109F6E73B
:10551000CDF80CA0B9F1000F18BF4BF0030B0E46ED
:1055200021B130F81620711E2E2AF8D1A6F1010AF9
:1055300008230022002438F81900494609F101091E
:10554000202803D02E2804D18A451BD04BF0030B12
:10555000F1E7002854D09C424CD28A454AD080289A
:1055600001931FD30021009414460027FFF7C6FDC6
:1055700018B15149084410F8807C22464BF0020BC8
:10558000009C10E00121B1464BF003000B2B38D0FA
:10559000002908BF8346B14532D892000B23082466
:1055A000B146C8E7074657B144A039460097274699
:1055B0001446FEF7CFFD22463C46009948B14BF019
:1055C000030B5F210498019B2044013480F82410D0
:1055D000B1E7A1F1410080B2192802D842F00202DD
:1055E000F0E7A1F1610080B219289CBF203942F098
:1055F0000102E7E7AAEB0100B0FA80F04109C3E736
:105600005846DDE902BADDF810909BF80010E52954
:1056100002D105218BF80010082B08BF920002F080
:10562000030140F00203032902F00C0208BF1846F0
:105630000C2A08BF1846830707D4012908BF40F089
:105640001000042A08BF40F0080089F82F004846DF
:10565000FEF722FF99F82F10D8B9480721D499F8FE
:105660000600C0061FD5D9F814006FF35F20504420
:1056700000F13401504600F083FAC9F80800D9F867
:105680000000F2E60020A8F80000062005B0BDE802
:10569000F08F0428FAD148074FF0040058BF0520C6
:1056A000F4E70020F2E70520F0E700BF222A3A3CA9
:1056B0003E3F7C7F00000000AA6404082B2C3B3D89
:1056C0005B5D00007A480C30704700BFF8B50229D6
:1056D00030D305680C46A86988422BD9287803285E
:1056E0002AD0022839D0012824D104EB5407686A53
:1056F00000EB5721284600F0CDFBA8BB7E1C6FF3C2
:105700005F27E81990F83470686A00EB5621284644
:1057100000F0C0FB40BB6FF35F26E20705EB06001D
:1057200090F8340047EA002108466FF31F3018BF95
:105730000809F8BD0120F8BD686A00EBD4112846BD
:1057400000F0A8FB80B904F07F0005EB8000343046
:1057500000F022FA20F07040F8BD686A00EB1421D6
:10576000284600F097FB10B14FF0FF30F8BDE0B2D3
:1057700005EB4000808EF8BD0020704710B5026830
:10578000BAB10023D15C0133202901D33A29F9D1E0
:105790003A290CD11178A1F13004092C09D8022B37
:1057A0004FF0FF3108BF002C05D1D1180160002156
:1057B00001E04FF0FF31084610BD00007FB53C4DC1
:1057C0000021039102916878AA7890426FD045F247
:1057D00020620391374910FB0212039B032B08DC64
:1057E000039B32F81330DB0403D1039B0133039393
:1057F000F3E745F22062314B10FB0210039930F8B9
:105800001110ADF802100021029140F6C321029A56
:10581000039C04EB8204029A8C421ADC029A039CD9
:1058200004EB820230F8124000EB42025288D20BA5
:1058300042EA4402029C23F81420029A039C04EBDF
:10584000820230F81220ADF80020029A0132029252
:10585000DDE71948194901ABFFF785FB184E307099
:10586000307850B1144C2046FFF726F905F10C01B1
:1058700020463222FFF70CFA7070A868642190FB72
:10588000F1F202FB110050B90B4C2046FFF714F95E
:1058900005F10C0120463222FFF7FAF97070A86872
:1058A0000130A8606878811E18BF411C69707FBDF7
:1058B000BC000020241F00203C0500209C09002083
:1058C00000000020F0B51A4B046800221D1D022ABA
:1058D0000ED055F8046CA64207D186682F68B742EF
:1058E00003D146696F68B74212D010350132EEE736
:1058F00000221D46022A11D02E6816B11035013241
:10590000F8E72C600024AC8184684069C5E9014057
:1059100003EB021030F80C3F11B11BB10020F0BDB9
:10592000591C01E04FF480710180501CF0BD00BF94
:10593000E800002080B5C14820210122FBF79DFD31
:10594000FDF7C2FC20B14FF49670FBF7F7FBF7E7C9
:10595000FDF702FDFDF768FC0020FDF70FFD0320B9
:10596000FDF7DEFB0420FDF7B7FB0320FDF712FC7B
:105970002120FDF77BFDFDF777FB3220BDE880405D
:10598000FBF7DCBB70B5AD4C134E80210022002527
:105990002046B047204640210022B0472046202123
:1059A0000022B047204610210022B047C82D0BDA54
:1059B0000A20FBF7C3FB20460821FBF751FD002816
:1059C00018BF681C0546F1E7044808210160322031
:1059D000BDE87040FBF7B2BB7B140408143C0140E7
:1059E000FEB50E4801AF90E80E0090ED030A90ED71
:1059F000041A0EC70A49B1EE411AB1EE400A01AAD3
:105A000001F1100001F11C0301218DED051A8DED4E
:105A1000040AFEF75DFB06B080BD00BF1800002041
:105A2000800000207CB51A4C13208DF8070020461A
:105A3000FCF78EFF8DF806009DF806000028F6D1D1
:105A4000134C2046FCF7A2FF124D134E8DF80500B3
:105A5000284631460122FFF7F3F88DF807009DF83C
:105A6000070048B12046FCF777FD2046FCF770FFA1
:105A70002046FCF78BFFEBE708A0FFF731F809A001
:105A8000FFF72EF83220BDE87C40FBF757BB00BF84
:105A9000A82201200803002079000020696D6167B9
:105AA00065000000617564696F00000080B5F3480F
:105AB000FAF7FCFE01480121017080BDB40000200E
:105AC000F8B5EE4C05462046FAF7F0FEFDF744FC2B
:105AD000264800210427002630F8252000EB850009
