:020000040801F1
:1000000038130120DD0101083F2C0108592901089E
:100010003D2C01083F0301081F50010800000000AB
:10002000000000000000000000000000F93A010894
:1000300081030108000000004D2C0108FB3A010873
:10004000F7010108F7010108F7010108F7010108AC
:10005000F7010108F7010108F7010108F70101089C
:100060008303010889030108F7010108F70101086A
:10007000F7010108F7010108F7010108F70101087C
:10008000F7010108F7010108F7010108F70101086C
:10009000F7010108F7010108F7010108F70101085C
:1000A000F7010108F7010108F7010108F70101084C
:1000B000F7010108F7010108F7010108F70101083C
:1000C000F7010108F7010108F7010108F70101082C
:1000D000F7010108F7010108F7010108F70101081C
:1000E000F7010108F7010108F7010108F70101080C
:1000F000F7010108F7010108F7010108F7010108FC
:10010000F7010108F7010108F7010108F7010108EB
:10011000F7010108F7010108F7010108F7010108DB
:10012000F7010108F7010108F7010108410301087F
:10013000F7010108F7010108F7010108F7010108BB
:10014000F7010108F7010108F7010108F7010108AB
:10015000F7010108F7010108F7010108F70101089B
:10016000F7010108F7010108F7010108F70101088B
:10017000F7010108412C0108F70101080000000007
:10018000F7010108F7010108F7010108F70101086B
:10019000F7010108F7010108F7010108F70101085B
:1001A000F7010108F7010108F7010108F70101084B
:1001B000F7010108F7010108F7010108F70101083B
:1001C000F7010108F7010108DFF80CD000F07AF818
:1001D0000048004745500108381301200648804771
:1001E00006480047FEE7FEE7FEE7FEE7FEE7FEE71C
:1001F000FEE7FEE7FEE7FEE7A93B0108C9010108AB
:100200002DE9F05F0546002092469B46884606464B
:10021000814640241BE0284641464746224600F0DE
:1002200041F853465A46C01A914110D31146184618
:10023000224600F028F82D1A67EB01084F462246A7
:100240000120002100F01FF817EB00094E41201E8D
:10025000A4F10104DFDC484631462A464346BDE8A6
:10026000F09FD2B201E000F8012B491EFBD270478B
:100270000022F6E710B513460A4604461946FFF772
:10028000F0FF204610BD202A04DB203A00FA02F1DC
:10029000002070479140C2F1200320FA03F3194374
:1002A00090407047202A04DB203A21FA02F0002116
:1002B000704721FA02F3D040C2F120029140084376
:1002C00019467047064C074D06E0E06840F0010310
:1002D00094E8070098471034AC42F6D3FFF778FF54
:1002E000385301085853010870B58C1810F8015B99
:1002F00015F0070301D110F8013B2A1106D110F8BF
:10030000012B03E010F8016B01F8016B5B1EF9D1C2
:100310002B0705D40023521E0DD401F8013BFAE748
:1003200010F8013BCB1A921C03E013F8015B01F8B3
:10033000015B521EF9D5A142D8D3002070BDFEE763
:10034000014800F025B800BF4C06002010B5016838
:100350006FF00F02182308A452FA81F2B2FBF3F3F4
:100360005F2AE35C40F2FF3421EA040188BF0431D4
:10037000C0E91613084610BD000610160006101638
:100380007047042000F05CB9082000F059B97047AC
:10039000F8B5044600200090584A0821D4E91660B8
:1003A00015688140376839420CD0226813685B07B2
:1003B00008D5136823F004031360B160616D41F048
:1003C0000101616501218140394208D022685269EA
:1003D000120604D5B160616D41F00201616504212E
:1003E0008140394208D022681268920704D5B16072
:1003F000616D41F00401616510218140394217D0DF
:1004000020680268120713D5B160026801685203C0
:1004100006D4C90506D4016821F00801016001E095
:10042000080301D4216C00E0A16C09B12046884783
:10043000E16D202000FA01F23A423BD020680368C7
:10044000DB0637D5B26094F835300268052B19D138
:1004500022F016020260426922F080024261226CA0
:100460000AB9A26C1AB1026822F0080202603F20A9
:100470008840B060002084F83400012084F8350002
:10048000216D37E0016852030CD4C9050ED4016810
:1004900021F010010160002084F83400012084F86C
:1004A000350003E0080301D4616C00E0E16B09B1A1
:1004B00020468847606D00B3606DC00719D00521E4
:1004C00084F835104FF416502168B5FBF0F00A6837
:1004D00022F001020A60009A01320092824202D8A0
:1004E0000A68D207F7D1012084F83500002084F88B
:1004F0003400E16C09B120468847F8BD7000002047
:100500002DE9F041044600F075F9ACB10546022032
:1005100084F835002168002084F83400086820F051
:10052000010008600868C00709D000F063F9401BAB
:10053000052839D82168F5E70120BDE8F081271D9D
:100540000868354A00EA020ED4E9050CD4E9072808
:10055000E8CF43EA0E032B4333433B431843636A1C
:1005600040EA0C00042B40EA020040EA08021FD1D6
:10057000D4E90A53206B1A4340EA0200086051F89C
:10058000140F20F0030040EA050040F00402B3B16C
:10059000BCF5005F24D0BCF1000F31D1022D32D068
:1005A000012D27D0002D2DE003262027032012E067
:1005B0000A6051F8140F20F0070040EA03022046B9
:1005C0000A60FFF7C3FEE16D3F220027012602FA11
:1005D00001F181600020676584F83560BDE8F08135
:1005E000032DECD8012640270120DFE805F0020C9E
:1005F0000203F0E7A3F1C070B0FA80F0400904E014
:10060000032D04D3DBD1C3F300600028D7D001262B
:1006100040270120DFE700BF3F8010F0B0B504465F
:1006200000F0E8F805468E48611C007818BF0444C5
:1006300000F0E0F8401BA042FAD3B0BD70470000C4
:1006400003490A68024208BF70470860FFF7F6BF17
:10065000143C01402DE9FC4F5D4A0A244FF0000B89
:100660004FF0010A4FF0000C90425A4A08BF09248B
:1006700002444FEAB223092B38BF4FEAB2240022CA
:100680000094BCF1200F00F0A0800AFA02F60B687B
:10069000334200F094804F68122F1AD80AFA07F3F9
:1006A00013F0061F15D003238468D1F80CE04FEA3D
:1006B000420903FA0CF30EFA0CF59C436FEA030EA1
:1006C0002C4384603C0945689440B5432C43446006
:1006D00005E00323E14603FA0CF36FEA030EC56855
:1006E0008C6805EA0E0504FA09F42C43C46047F04F
:1006F0001004122C12D10BF01C040F2303FA04F582
:100700006FF0030303EA52070744D7F820800B6910
:1007100028EA0505A3402B433B624F68036807F0B6
:10072000030403EA0E0304FA09F423430360FB0005
:1007300045D52B4C284F22F00305BE463D44236887
:1007400043F48043236023680F2403F48043019320
:10075000019F0BF00C03234F9C40B846EF5927EA4A
:100760000404009F07FA03F3234345F80830DEF83A
:1007700000304D6843EA0604EF0358BF23EA06043D
:10078000CEF80040AF03DEF8043043EA060458BF59
:1007900023EA0604CEF80440EF02DEF808300F4FDB
:1007A00043EA060458BF23EA0604CEF80840AD0227
:1007B0003B6843EA060458BF23EA06043C600BF199
:1007C000040B0CF1020C01325BE7BDE8FC8F00BFAB
:1007D000002402400000FEBF003C01400C3C0140F0
:1007E0004438024008FCFFFF002A08BF0904816169
:1007F0007047000005480068704700BF184803496B
:1008000000780A6810440860704700BF340B00206D
:1008100080B5032000F06AF8002000F005F800F031
:1008200023F8002080BD000070B50D4E04464FF443
:100830007A713078B1FBF0F00A490968B1FBF0F049
:1008400002F076F801250F2C08D838B94FF0FF30A8
:1008500021460022002500F02DF87460284670BD66
:10086000080000207000002082B00A48016841F0B2
:1008700080510160016801F0805101910199416846
:1008800041F480414160406800F48040009000984D
:1008900002B0704740380240002808D400F01F0121
:1008A0000122400902FA01F1014A42F82010704782
:1008B00000E100E070B5134B4FF0FF351B68C3F348
:1008C0000223DC1E83F0070338BF0024042B28BF5B
:1008D000042305FA04F605FA03F3B2439943A14051
:1008E0001143BDE8704004F09BBB00BF05494FF6C3
:1008F000FF030A681A4060F30A22034810430860A5
:10090000704700BF0CED00E00000FA0501688A693D
:1009100042F000628A610122C0F8FC23002280F8C4
:10092000F423486D024A104348650020704700BF19
:100930000300001010B50446012916D039BB206A07
:1009400030B103F0DDF81248016821F006010160C2
:100950002068D0F8001E21F00101C0F8001ED4F874
:100960000004BDE8104003F063BB2068D0F8001E0F
:1009700041F00101C0F8001ED4F8000403F0BAFBF6
:10098000206A20B10248016841F00601016010BDF3
:1009900010ED00E00068416200207047B0B50068CB
:1009A000436AB1B1846A013903EB14430024E5B210
:1009B000A94207D900EB85050134D5F8045103EBB2
:1009C0001543F4E700EB810043EA0241C0F804114B
:1009D00002E043EA024181620020B0BDD0F8000489
:1009E00003F083BAC1EBC10200EB8202D0F800042D
:1009F000926C03F0F3B9C1EBC10200EB8202D0F8B4
:100A00000004D2F8082203F03CBAD0F8000403F046
:100A10006EBA10B5044601F00F000906C0EBC00124
:100A200004EB81015DBF002281F8FD2101F5FE711B
:100A3000012244BF81F83D203C31087094F8BC038A
:100A4000012801D1022010BD012084F8BC032068D8
:100A500003F01EFF002084F8BC0310BDB0B50446AF
:100A600001F00F006268904201D9012521E00906DA
:100A70004FF00005C0EBC00104EB81015DBF002217
:100A800081F8FD2101F5FE71012244BF81F83D206E
:100A90003C3108708D7094F8BC03012801D1022507
:100AA00007E0012084F8BC03206804F0B9F884F85A
:100AB000BC532846B0BD10B5044690F8BC030128CD
:100AC00001D1022010BD012084F8BC030A06206871
:100AD00002D404F08DF903E001F00F0104F094F961
:100AE000002084F8BC0310BD01F00F01C1EBC1016F
:100AF00000EB8100D0F814027047B0B5044601F055
:100B00000F000906C0EBC00104EB81015DBF0025A9
:100B100081F8FD5101F5FE71012544BF81F83D507A
:100B20003C318A60CB7008704A7802B1C880022BD1
:100B300001D10020087194F8BC03012801D10220E2
:100B4000B0BD012084F8BC03206803F005FE00203E
:100B500084F8BC03B0BDB0B501F00F04C4EBC40110
:100B600000EB81050021C5E9843185F8FD11C5F848
:100B7000082285F8FC4105F5FE710369012B08BFC9
:100B8000C5F80C22DAB2006814B104F07DF801E077
:100B900003F0A6FF0020B0BDB0B5044601F00F057C
:100BA0004068854201D90120B0BD080609D4C1EBD7
:100BB000C100002104EB800080F8FD1100F5FE71FA
:100BC00008E0C5EBC500012104EB800080F83D1072
:100BD00000F13C0194F8BC2301200D708870012ABB
:100BE00001D10220B0BD84F8BC03206804F030F8C5
:100BF0002DB9217C206804F5717203F0E5FF002017
:100C000084F8BC03B0BD70B501F00F040026C4EB3E
:100C1000C40100EB8105294601F83C4FC1E90536C6
:100C200001234B70CA600369012B08BFEA64DAB282
:100C3000006814B104F028F801E003F051FF00202F
:100C400070BD00002DE9F04F87B0046806462046CD
:100C500004F0F8F810B107B0BDE8F08F306804F088
:100C60001DF90028F7D0306804F018F90146306803
:100C7000890703D5416901F00201416104F00EF9D1
:100C80000146306806960394C9063ED5816921F075
:100C900010018161246A04F00F05C4F34340062863
:100CA0001CD002282BD147F6F070044027D0C5EBAA
:100CB000C500220906EB80050398D5F8081204F058
:100CC000F1F8D5F80802D5F8141200EB1410C5F8A5
:100CD000080201EB1410C5F8140210E006F571715A
:100CE0000398082204F0DEF8C5EBC50006EB80008F
:100CF000D0F81412C4F30A121144C0F81412306868
:100D0000816941F010018161039C04F0C7F8000380
:100D100012D4DDF81890D9F8000004F0BFF84003B1
:100D200000F1C480D9F8000004F0B8F8002800F100
:100D30007481D9F800008BE1069C206804F08DF8DE
:100D4000064604F5717004F5057A039C4FF000091E
:100D50004FF430680590002EDBD0F00700F09E8045
:100D600006985FFA89FB5946006804F08FF8074639
:100D7000C0075AD004EB080001218160069C20685E
:100D800008EB0001036C8A682469012C22D1140746
:100D90002CD4940646D412F0280F039C45D1E04D84
:100DA000AB4202D312F4004227D15AE90423B8F52A
:100DB000306F13444AF80C3C09696FF3DF41A2EB32
:100DC0000101CAF8001028D10699D1F8101221BBF0
:100DD00001211FE0D24CFF34A34212D11004039C26
:100DE0000BD4900619D52020886016E0CC48039CCF
:100DF00083421AD312F4004017D04FF400408860A9
:100E000013E0B8F5306F039C07D10699D1F81012A2
:100E100019B90021059A03F0D7FE06985946FFF745
:100E2000EAFD02E020208860039C380723D504EB0C
:100E30000800082181600698016808EB01000C6C2D
:100E400081680904B649A1F1010504D5AC4284BF0B
:100E50004FF400418160069800F05DFBAC42039CBA
:100E600009D906980069012805D106980121059A3B
:100E7000006803F0A9FEF80603D504EB0800102172
:100E80008160B80603D504EB080020218160B80416
:100E900004D504EB08004FF4005181600AF11C0AEC
:100EA00008F12008760809F1010954E7D9F8000093
:100EB00003F0CCFF064609F571700023019004F59C
:100EC00010600490002E3FF42DAFF00700F0A280D8
:100ED000DFB2D9F800000593394603F0C5FF054697
:100EE000C00729D0059B0122D4F8341803F00F0065
:100EF00002FA00F021EA0000C4F83408049800EB7C
:100F000043108260D9F81000012811D1C3EBC3004F
:100F100009EB8000D0E911121144816443B9D9F87A
:100F2000500028B9D9F800000121019A03F04CFEC5
:100F300048463946FFF756FD2807059B04D5049817
:100F4000082100EB43108160E80604D504981021C5
:100F500000EB43108160680604D50498402100EB43
:100F600043108160A80704D50498022100EB4310C8
:100F7000816028064ED5C3EBC30009EB800AD34637
:100F80005BF8500FD84658F8042F904242D3D9F856
:100F90000050841A5AF8441F02960AF104068C4243
:100FA00088BF0C4605EB431101F5106918E0069C5B
:100FB0003168DAF80030247C0094841A28463A46D6
:100FC0009C4288BF1C46A3B204F018F83068204445
:100FD0003060D8F800000219C8F80020DBF80000E3
:100FE000D9F81830E11C9BB2B3EB910F28BF9042A7
:100FF000DDD89042DDE90264DDE905390AD803F065
:101000000F00012101FA00F0D5F8341821EA0000A0
:10101000C5F834087608013354E7D4F8040820F002
:101020000100C4F8040899F8F403012807D100204E
:1010300089F8F40300214846FFF77CFC02E04846AB
:1010400000F04DFAD9F80000416901F0004141611A
:1010500003F024FF000502D4D9F800000CE0D4F816
:101060000808C00702D0484600F072FAD9F800001C
:10107000416901F40061416103F010FF000118D5DE
:10108000D9F80000416901F00061416199F8F41359
:1010900019B1484600F05CFA0BE0012189F8F4131D
:1010A000406D0121C0F38300C9F8F8034846FFF7FB
:1010B00041FCD9F8000003F0F1FEC00402D4D9F8D5
:1010C00000005CE0D4F80408102120F00100C4F80E
:1010D0000408D9F8000003F097FE04F5106104F548
:1010E0000060D9F804204FF67F33DAB18B60013A03
:1010F0000C6824F400140C600C6844F000640C606C
:10110000C1F80832D1F8004224F40014C1F80042BA
:10111000D1F8004244F00064C1F800422031E4E715
:101120000B30544FC16941F00111C161D9F8301041
:1011300041B1D0F8841041F00B01C0F8841000F1E7
:10114000440106E0416942F22B021143416100F182
:1011500010010A6842F00B020A60016809F5717219
:1011600021F4FE61016099F81010D9F8000003F035
:101170002BFDD9F80000416901F48051416103F071
:101180008DFE0146D9F8000089041AD503F022FB30
:10119000D9F8000003F048FEC9F80C00D9F8005057
:1011A00000F0EEFC99F80C200146284603F0AEFE54
:1011B000484600F07FF9D9F80000416901F4005178
:1011C000416103F06BFE000702D4D9F8000008E08B
:1011D000484600F088F9D9F80000416901F008019B
:1011E000416103F05BFEC00202D4D9F8000009E0BF
:1011F0004846002100F03AF8D9F80000416901F4AE
:101200008011416103F04AFE800202D4D9F8000047
:1012100009E04846002100F02DF8D9F800004169A6
:1012200001F40011416103F039FE400002D4D9F805
:10123000000008E04846FFF7D1FBD9F800004169FB
:1012400001F08041416103F029FE40077FF503ADC5
:10125000D9F800004468610704D54846FFF7D5FB7C
:10126000D9F80000416821434160F4E4D0F800045B
:1012700002F09CBED0F8000402F09ABE2DE9F04FB7
:101280008BB0002800F087800446056890F8BD0305
:1012900028B9002084F8BC03204600F091F8032010
:1012A00084F8BD03E86BC00501D4002020612068EC
:1012B00003F010FC20680A9004F1040B04F1140EF2
:1012C00004F1240AD4E90C509BE80E089EE8C050B3
:1012D0009AE80007CDE9085002A8CDE900B680E8F9
:1012E000805005A880E800070A9803F083FA0028D8
:1012F0004ED120680021002503F0E1FD6168012046
:101300000022D3B2994210D9C3EBC30604EB860680
:1013100086F83C20A6F8423086F83D003565C6E9DF
:10132000115586F83F500132EBE700200022D3B27E
:1013300099420FD9C3EBC30304EB8303C3F8100234
:10134000C3E9810083F8FC2183F8FF0183F8FD01E4
:101350000132ECE7A0680A9004F1140E04F1240AAB
:101360002268D4E90C50D4E9033B9EE8C0509AE8C7
:101370000007CDE9085002A8CDE900B680E880500A
:1013800005A880E8000710460A9A03F0DFFA30B19A
:10139000022084F8BD0301200BB0BDE8F08F0020CF
:1013A00084F83800012084F8BD03606A012802D166
:1013B0002046FFF7ABFA206803F0BAFA0020EBE70B
:1013C0002DE9F04F87B0044602A81421FEF750FF24
:1013D00020683449884262D1334E02AD334C344FD9
:1013E0004FF00A084FF003094FF0000A4FF0020BCC
:1013F0002946306840F004003060306800F0040096
:1014000001900198306840F001003060306800F0D1
:10141000010001900198306840F0020030603068AF
:1014200000F0020001900198CDF81880CDF81490DA
:10143000CDF810A0CDF80CB00D20029004F500609E
:10144000B8472820CDE90598CDE903BA029029468E
:101450002046B84743F62340CDE90598CDE903BAC5
:101460000290294604F58060B847306800210022C8
:1014700040F000503060306800F00050019001985A
:10148000306840F080403060306800F0804001906B
:1014900001984D20FFF70EFA4D20FFF7FDF907B038
:1014A000BDE8F08F000004403038024000000240E8
:1014B0005506010810B50446C06828B1022801D0BD
:1014C000FEF765FF012100E00021D4F8000402F0DE
:1014D000C5FDD4F80004BDE8104002F080BDD0F88E
:1014E000000402F0A5BDD0F8000402F0ABBD10B5B9
:1014F000044690F8BC03012801D1022010BD84F8F5
:101500003810012084F8BC03206803F0EFFC0020B1
:1015100084F8BC0310BDD0F8002400F571711046AA
:1015200002F0A8BD10B5044690F8BC03012801D113
:10153000022010BD012084F8BC03206803F052FC97
:10154000206803F0E7F9002084F8BC0310BD000018
:1015500010B50446D0F8000402F0CCFD2068D0F8A5
:10156000001E41F00101C0F8001E206A20B10348AE
:10157000016841F00601016010BD00BF10ED00E000
:101580002DE9FC47D0F800A00446E34E5FEACA709C
:1015900002D14FF000090BE0B06820F40000B06009
:1015A000606BB1680143B0FA80F0B1604FEA501946
:1015B0005FEA0A3002D44FF0000811E0E06BD6F881
:1015C0008C1021F44011B0F5801F41EA0001B0FAFF
:1015D00080F0C6F88C1008BF4FF001094FEA501890
:1015E0005FEACA2011D5206CD6F88C1021F4400196
:1015F000002841EA0001C6F88C1008BF4FF001082E
:10160000B0F5800F08BF4FF001095FEA8A605746C6
:1016100045D5306CC14F40F080503064306C00F0E4
:10162000805001900198386840F480703860FFF76E
:10163000E1F805463868C00505D4FFF7DBF8401B24
:101640006428F7D9EBE1306F10F4407014D0216BAF
:1016500001F4407188420FD0306F316F41F4803116
:10166000316720F44070316F21F480313167306789
:10167000306FC00740F0D9812768206BB268A84955
:1016800000F4407322F4F81201406FF31F30B3F5F9
:10169000407F08BF0A43B260316F08433067F806E5
:1016A0000BD5D6F88C0020F08070C6F88C00A06BAB
:1016B000D6F88C100843C6F88C00780407D5606E05
:1016C000D6F8901021F440310843C6F89000380451
:1016D00007D5A06ED6F8901021F440210843C6F833
:1016E0009000F80307D5E06ED6F8901021F4401171
:1016F0000843C6F89000B80307D5206FD6F89010BD
:1017000021F440010843C6F89000780607D5606CC4
:10171000D6F8901021F003010843C6F8900038066F
:1017200007D5A06CD6F8901021F00C010843C6F83C
:101730009000F80507D5E06CD6F8901021F0300144
:101740000843C6F89000B80507D5206DD6F890106C
:1017500021F0C0010843C6F89000780507D5606DF8
:10176000D6F8901021F440710843C6F8900038056F
:1017700007D5A06DD6F8901021F440610843C6F853
:101780009000F80407D5E06DD6F8901021F4405190
:101790000843C6F89000B80407D5206ED6F890101C
:1017A00021F440410843C6F89000780207D5A06FA5
:1017B000D6F8901021F080610843C6F89000B80276
:1017C0000DD5E06FD6F8901021F00061B0F1006FF8
:1017D00041EA0001C6F8901008BF4FF001087803F5
:1017E00007D5606FD6F8901021F040710843C6F815
:1017F0009000380208D5D4F88000D6F8901021F077
:1018000080510843C6F89000B9F1000F02BF0AF0FA
:10181000807007F0007110EB010000F083803068E9
:1018200020F080603060FEF7E5FF0546306800017B
:1018300005D5FEF7DFFF401B6428F7D9EFE02068ED
:10184000C10712D0616B81B9D6F88410D6F8842014
:1018500001F4403102F070621144D4E9012341EAFD
:10186000821141EA0371C6F88410010303D5E16BCC
:10187000B1F5801F05D0C1021DD5216CB1F5800FD7
:1018800019D1D6F88410D6F88420E368656A01F48B
:10189000403102F0E0421144626841EA821141EABB
:1018A0000361C6F88410D6F88C20691E22F01F024E
:1018B0001143C6F88C10C10110D5D6F88410D6F8A3
:1018C0008420236901F0706102F0E04211446268F3
:1018D00041EA821141EA0341C6F8841080010AD529
:1018E000231D0FCB1B0443EA801040EA026040EA4C
:1018F0000170C6F88400306840F080603060FEF708
:1019000079FF0546306800010CD4FEF773FF401BD9
:101910006428F7D983E000BF00380240007000401F
:10192000FFFCFF0F17F0080008BFB8F1000F79D0D7
:10193000306820F080503060FEF75CFF054630686C
:10194000800005D5FEF756FF401B6428F7D966E0F6
:101950002068010301D5E16B19B1C1021ED5216CCC
:10196000E1B9D6F88810D6F88820A56A01F440318C
:1019700002F0E0421144D4E9052341EA821141EA30
:101980000361C6F888106FF0FF01D6F88C2001EBD8
:10199000052122F4F8521143C6F88C10810214D5A7
:1019A000E16FB1F1006F10D1D6F88810D6F8882019
:1019B000236A01F0706102F0E0421144626941EA79
:1019C000821141EA0341C6F88810000718D5D6F8FD
:1019D0008800D6F88810E269E36A00F0706001F4CC
:1019E00040310844616940EA811040EA0270C6F85B
:1019F0008800D6F88C0020F440301843C6F88C00DC
:101A0000306840F080503060FEF7F4FE04463068E5
:101A1000800007D4FEF7EEFE001B6528F7D30320F5
:101A2000BDE8FC870020BDE8FC87FEF7E3FE054625
:101A300041F28837306F80073FF51EAEFEF7DAFEC1
:101A4000411B0320B942F5D9EAE700002DE9F04136
:101A500000286AD0474F04468846D7F8000400F0B3
:101A60000F0088420DD2D7F8000420F00F0040EAA2
:101A70000800C7F80004D7F8000400F00F00404544
:101A800053D12068810711D5410703D5B96841F4C6
:101A9000E051B960010703D5B96841F46041B9600C
:101AA000A168BA6822F0F0021143B960C00736D1CC
:101AB000D7F8000400F00F0040450DD9D7F8000416
:101AC00020F00F0040EA0800C7F80004D7F800042F
:101AD00000F00F00404528D12068410705D5E16896
:101AE000BA6822F4E0521143B960000706D52069B4
:101AF000B96821F4604141EAC000B86000F046F8DE
:101B0000B9681D4AC1F30311515CC8401E49086001
:101B10001A480068FEF788FE0020BDE8F081606882
:101B2000012805D1396889030AD40120BDE8F08174
:101B30003968022802D18901F7D501E08907F4D577
:101B4000B96821F003010843B860FEF753FE06466A
:101B500041F288356068B96801F00C01B1EB800F83
:101B6000A6D0FEF747FE801BA842F3D90320BDE8AC
:101B7000F08100BF00380240045301080C0000202F
:101B800001480068704700BF7000002010B5134C7A
:101B9000606800F00C011248082903D004291CD108
:101BA000104810BD2168236801F03F0221685B02E4
:101BB000C1F3881105D4A1FB00010023FEF720FB2F
:101BC00003E008484843B0FBF2F021680222C1F369
:101BD000014102EB4101B0FBF1F010BD04380240BD
:101BE0000024F40000127A0070B586B00D4601465C
:101BF00014461F481F4EE1B1B16A00F5006041F084
:101C00000401B162B16A01F0040100910321049161
:101C1000022102914FF4007101910021059103917D
:101C2000009901A9FEF716FD3068E40020F0784025
:101C300018E0B16A41F00101B162B16A01F001013D
:101C4000009103210491022102914FF480710191CE
:101C5000002105910391009901A9FEF7FBFC306872
:101C600020F0EC6044EA05010843306006B070BD26
:101C700000000240083802402DE9FC41002863D0F2
:101C800004460078CF4EC0070AD0B06800F00C00C0
:101C900004287ED13068800302D56068002853D0C4
:101CA000207880071AD5B06810F00C0F09D0B06802
:101CB00000F00C00082840F088807068400200F1B5
:101CC00084803068800702D5E06801283CD1206913
:101CD000316821F0F80141EAC00030602078000747
:101CE00035D42078400745D4A76957B3B06800F0D1
:101CF0000C00082840F0B2807068012F24D0E16900
:101D000000F480028A421FD1216A00F03F028A4219
:101D10001AD147F6C071626A0140B1EB821F13D13C
:101D2000A16A4FF6FF72C903914300F44032A1F556
:101D300080318A4208D1E16A00F07060B0EB016F37
:101D400002D10020BDE8FC810120BDE8FC81706F5C
:101D50006169002972D040F001007067FEF74AFD0A
:101D60000546706F8007BCD4FEF744FD401B022877
:101D7000F7D901E1306CC0003BD4306C4FF0010862
:101D800040F080503064306C00F080500190019839
:101D900031E0B06800F00C00082803D17068400200
:101DA0003FF578AF6068002800F09F80B0F5803F75
:101DB00007D03168B0F5A02F40F0CB8041F48020EF
:101DC0003060306840F48030C9E03068E168002954
:101DD00063D040F001003060FEF70CFD054630682E
:101DE00080073FF574AFFEF705FD401B0228F6D9CA
:101DF000C2E04FF00008744F3868C0050FD438684F
:101E000040F480703860FEF7F5FC05463868C00580
:101E100005D4FEF7EFFC401B6428F7D9ACE0A068BE
:101E200000284BD0012805D0316F052873D141F02F
:101E300004003067306F40F0010072E020F00100D4
:101E40007067FEF7D7FC0546706F80077FF549AFD6
:101E5000FEF7D0FC401B0228F6D98DE0306820F058
:101E600080703060FEF7C6FC0546022F0AD130684C
:101E7000800140F18480FEF7BDFC411B0320022954
:101E8000F5D95FE7306880017FF55BAFFEF7B2FC04
:101E9000411B03200229F5D954E720F001003060EE
:101EA000FEF7A8FC0546306880077FF517AFFEF700
:101EB000A1FC411B03200229F5D943E7306F20F034
:101EC00001003067306F20F004003067FEF792FCAD
:101ED000054641F28837306F800731D5FEF78AFC1E
:101EE000411B0320B942F6D92CE7306820F480303A
:101EF0003060306820F480203060FEF77BFC0546BF
:101F0000306880037FF5CCAEFEF774FC411B0320E4
:101F10006429F5D916E721F001003067306F20F011
:101F200004003067FEF766FC054641F28837306FE3
:101F3000800705D4FEF75EFC401BB842F7D91BE0D2
:101F4000B8F1000F3FF4D0AE306C20F08050306418
:101F5000CAE621F480303060306820F480203060A0
:101F6000FEF748FC0546306880033FF599AEFEF762
:101F700041FC401B6428F6D90320BDE8FC811C34D9
:101F80001FCC0843D90340EA82104FF6FF729143F9
:101F900040EA0460A1F58031084340F000507060D1
:101FA000306840F080703060FEF724FC04463068F2
:101FB00080013FF5C6AEFEF71DFC011B0320022980
:101FC000F5D9BFE600380240007000402DE9F0412D
:101FD00086B004460320884684F83400606C0328E9
:101FE0000DD14FF08050A16B984E0843A063A06BB9
:101FF00058B320680125866384F8345030E0B8F186
:10200000000F3FD0B8F5805FEBD0B8F5006F4FD12F
:102010000020CDE904000021206801F089FC800146
:1020200049D404A9204601F0B7FC0028DBD19DF873
:102030001600400739D5216D2068090401F070F9B8
:102040000028D0D12068022142E094E80F00D4E9B2
:102050000575CDE90087029501F06DFC206800252B
:102060004FF4007101F092F928B1216801258E63C7
:10207000A16B0843A063012084F83400284606B011
:10208000BDE8F0810020CDE904000021206801F0C6
:102090004FFC80010FD404A9204601F07DFC0028EC
:1020A000A1D19DF81600C00708D14FF080609AE7D3
:1020B0004FF0006097E74FF4006094E7216D2068CF
:1020C000090401F02DF900287FF48DAF206800216C
:1020D00001F076F987E700BFB0B5D0E91942436C4B
:1020E000A50F0D70012BC4F383654D70C4F301651A
:1020F0008D704FEA1445CD704FEA14250D714C7167
:102100004FEA1254CC80C2F303440C72C2F3C034C1
:102110004C72C2F380348C72C2F34034CC72C2F37E
:1021200000340C734FF000044C7330D0002B40F09F
:10213000818040F6FC73012503EA8202C36E42EA05
:1021400093720A61C26EC2F3C2630B75C2F302637B
:102150004B75C2F342538B75C2F38243CB75C2F306
:10216000C2330B764FF4007303660B690C7E0133A8
:1021700004F007040234A34043650C7A04F00F0412
:1021800005FA04F48465640A6343C36512E002F04F
:102190003F02B0F86E3043EA02420A614FF48063B6
:1021A0004FF40072026682650A6903EB8222C265FF
:1021B0004265C26EC2F380334B76C2F3C6138B7690
:1021C00002F07F02CA76006FC20F0A77C0F3417235
:1021D0004A77C0F382628A77C0F38352CA77C0F32A
:1021E000405281F82020002281F82120C0F30043D2
:1021F00081F82230C0F3C03381F82330C0F380333C
:1022000081F82430C0F3403381F82530C0F3003327
:1022100081F82630C0F3812381F82730C0F30123F1
:10222000C0B281F82830400881F82900012081F8E7
:102230002A0009E001689F4A8A630122816B41F00C
:102240008051816380F834201046B0BDFF05400006
:10225000B0B500F144053CCD81E83C00426D0A6117
:10226000826D4A61C26D006EC8618A610020B0BD96
:1022700010B504460068216D090401F0B3F920B1DE
:10228000A16B0843A063002010BD2068002101F06D
:102290004FFBC0F3432010BD90F83400704710B5D9
:1022A00090B1044690F8340020B9002020772046F1
:1022B00000F004F9032084F83400204600F00EF802
:1022C0000146012011B110BD012010BD0021A16304
:1022D000216384F83400002010BD0000F0B58FB0F9
:1022E0007621044600680025CDE9005502910022C0
:1022F0000023002101F01FFB08B1012515E0206833
:10230000416821F48071416001F026FB206841683A
:1023100041F480714160049501F06CF840B10125F1
:1023200084F83450A16B0843A06328460FB0F0BD79
:10233000206801F085F850B10020A064206801F009
:1023400059F80028EBD1A06C012802D009E0012047
:10235000A0642068002100F0E3FF10B14FF080502E
:10236000DDE700214FF6FE76534D0020049AC0B9F8
:10237000B24216D82068002100F0D2FF0028CED14A
:102380002068294600F0E6FF0028E7D120680021F8
:1023900001F0CEFA049901310491C0F38071C00FAD
:1023A000E4E704984FF6FF72904202D34FF080703A
:1023B000B5E7206801256164ADF80E5001F0B4FA6C
:1023C00088B1606C032811D12068042101F0B0FAB3
:1023D000000DE06404A92046FFF77EFE002846D0E9
:1023E0004FF080509CE74FF0806099E7206801F043
:1023F000B1F800287FF494AF20682D4E0021B0473B
:10240000606720680421B047A06720680821B047B2
:10241000E06720680C21B047C4F88000606C032896
:10242000D2D020680DF10E0101F0F6F800287FF4FB
:1024300077AF606C0328C7D0BDF80E102068216507
:10244000090401F09EF800287FF46AAF206800219B
:10245000B047606620680421B047A0662068082164
:10246000B047E06620680C21B0472067ACE7216DDB
:10247000206800230A0401F053F800287FF450AFCD
:1024800094E8EF008DE8E00001F055FA20684FF481
:10249000007100F07BFF48B12168BB4A01258A63C7
:1024A000A16B0843A06384F834503EE700253CE765
:1024B00031390108FF054000000010C12DE9F04747
:1024C00086B0044601A81421FDF7D2FE2068364EDE
:1024D000B04265D1354801AD4FF00C094FF003080B
:1024E00000274FF0020A416941F4006141614169EE
:1024F00001F4006100910099016841F0040101605C
:10250000016801F0040100910099016841F008019F
:1025100001600068294600F0080000900098CDF89E
:102520001490CDF810800397CDF808A04FF4F85020
:10253000019006F55C40FEF78DF806F560402946EF
:10254000CDE90489CDE902A74FF00409CDF8049044
:10255000FEF780F8164D4FF400104FF400014FF0D5
:1025600000664FF0200C4FF480524FF48063C5E9B1
:102570000879C5E90A8128630E484FF4804185E84F
:10258000C1002846C5E90373C5E90521C5F81CC08B
:10259000FDF7B6FF08B1FDF7FAFEC4E90F55AC63CD
:1025A00006B0BDE8F08700BF002C01403038024083
:1025B0004C060020586402402DE9F04F87B09A463F
:1025C00016460D460446FEF715F97DB1804694F88F
:1025D000340001280ED10021A1630AEB0600E26D50
:1025E00090420FD9A06B40F0007006E0A06B40F065
:1025F000006002E0A06B40F00050A063012007B033
:10260000BDE8F08F032084F834004FF001094FF04B
:10261000020B2068676CC162CDE905199021039116
:10262000CDF810B04FF0FF3101914FEA4A210291ED
:1026300001A901F093F8012F18BF7602BAF1020F39
:1026400006D3C4F830B03146206800F035FF05E00D
:10265000C4F830903146206800F048FF58B1216836
:10266000B24A8A63A16B0843A063012084F8340056
:1026700000212163C3E7DDF84090DDF808B0206851
:10268000426B416B12F4957F2CD1BBF1000F18BF48
:1026900011F4004012D00027EE19202F0BD0206833
:1026A00001F062F9010EF17030700437010C000A7C
:1026B000B1707070F0E7ABF1200B3546FEF79AF879
:1026C000A0EB08004845DAD3206898498163A06BE5
:1026D00040F00040A063012084F834000020206313
:1026E00003208CE7BAF1020F0FD311F480710CD0E4
:1026F000616C032909D000F0E1FF0146206821B197
:102700008A4A8263A06B0843AEE7416B09070BD48A
:10271000416B89070ED4416B89061ED583498163BD
:10272000A06B40F020009FE780498163A06B40F0E0
:10273000080099E77D498163A06B40F0020093E7B0
:1027400001F012F92860FEF755F8A0EB08004845A3
:1027500012D204352068ABF1040B416BBBF1000FC2
:1027600018BF11F40011EBD140F23A5181630120FE
:1027700084F83400002042E720686C498163A06B34
:1027800040F0004070E700BFFF0540002DE9F04F2A
:1027900087B0984615460F460446FEF72BF87FB1E2
:1027A000824694F8340001280ED10021A16308EB81
:1027B0000500E26D90420FD9A06B40F0007006E07A
:1027C000A06B40F0006002E0A06B40F00050A063FE
:1027D000012007B0BDE8F08F032084F83400012207
:1027E0002068666CC1620692CDE9041190210391C4
:1027F0004FF0FF3101914FEA4821029101A900F009
:10280000ADFF012E18BF6D02B8F1020F06D32020D4
:1028100020632946206800F06DFF05E0102020634A
:102820002946206800F080FF58B121683F4A8A633A
:10283000A16B0843A063012084F8340000212163C8
:10284000C7E7DDF84090DDF808B06D462068426BC0
:10285000416B12F48D7F32D1BBF1000F18BF11F420
:1028600080401AD00026B819202E13D0017800918C
:10287000427841EA02210091827841EA02410091C6
:10288000C07841EA006000902946206801F07FF896
:102890000436E8E7ABF1200B0746FDF7ABFFA0EBF2
:1028A0000A004845D2D3206820498163A06BA06309
:1028B000012084F8340000202063032089E7B8F168
:1028C000020F0FD311F480710CD0616C032909D071
:1028D00000F0F4FE0146206821B1144A8263A06B27
:1028E0000843A7E7416B09070DD4416B890710D452
:1028F000416BC90613D440F23A518163012084F838
:102900003400002065E709498163A06B40F00800AE
:1029100090E706498163A06B40F002008AE7034913
:102920008163A06B40F0100084E700BFFF0540000A
:10293000411E0020B0EB116F01D001207047044A06
:10294000F023516003490B709060072111607047BC
:1029500010E000E023ED00E0FEE7F0B552000023B8
:1029600037240025AA420FD004EB1076070FB0F1F0
:10297000204F4FEA001038BF07F130064E5545F0A2
:10298000010602358B55EDE7F0BDB0B50446D0F831
:10299000BC5248F21C00285C88B12046812101F01D
:1029A00097FB687A022818BFB0BD2046812101F04C
:1029B0008FFB20460121BDE8B04001F089BB48F201
:1029C0001800284400680028E7D0687A0028E4D17D
:1029D0002046012101F07CFBDFE710B50446D0F86A
:1029E000BC02407A022809D12046812101F070FB07
:1029F00020460121BDE8104001F06ABB49B2B1F1A7
:102A0000FF3F07DC012805D020460121BDE810402A
:102A100000F0CEB810BD10B50446D0F8BC02017A63
:102A2000CA1E022A05D220460021BDE8104000F04F
:102A3000BFB802290BD148F21D0148F21F0202441F
:102A4000415C204600F016F9B0F1FF3F00DD10BDFB
:102A500020460121E9E7000070B5D0F8BC520446D9
:102A600048F210002E18287A012822D058BBD6E947
:102A70000101C6E909012046012101F04DFA1F2894
:102A80000AD130682A49884206D1717B012903D8CE
:102A9000B07B0138102817D3717B204605222023F4
:102AA00000F01DFC022068722046BDE87040FFF770
:102AB0006CBF48F21F00717B2A18204600F0DAF83C
:102AC000B0F1FF3F2BDD70BD48F21F002A182046F1
:102AD00000F0D0F8297AB0F1FF3F1EDD481E032830
:102AE000F1D3EB680BB3D4F8BC02042100260172C9
:102AF00048F2180142184058812182F82460166A71
:102B00009842A6EB0306166238BF034605F1100291
:102B10002046BDE8704001F0F6BA0529C4D1204630
:102B20000121BDE8704000F043B820460021F8E7DD
:102B300055534243D0F8BC02002101727047B0B532
:102B40000446D0E9AF5048F2600100226A5229449D
:102B50002A818A700168002088472046012101F0FF
:102B6000D2F92046812101F0CEF948F2100001216E
:102B70001F232A182046BDE8B04001F027BAB0B59F
:102B8000D0F8BC5204464FF4807081212881204641
:102B900001F012F92046012101F00EF948F210006F
:102BA00001211F232A182046BDE8B04001F00EBACB
:102BB000B0B50446D0F8BC5248F230000A4A0D23A2
:102BC0002A5000222A722A1820461173812101F00E
:102BD0009AFA48F2100001211F232A182046BDE866
:102BE000B04001F0F3B900BF5553425380B50F48D0
:102BF0000F49012201F0C8F808B1FDF7C8FB0B48E6
:102C00000C4901F065FB08B1FDF7C1FB07480A4913
:102C100001F0E7FA08B1FDF7BAFB044801F072FBD6
:102C200018B1BDE88040FDF7B2BB80BD7C03002039
:102C300010000020980000203C010020FEE77047B3
:102C40000148FDF7FFBF00BFAC060020704780B50C
:102C50009918D0F8BC2248F26803D258914206D99C
:102C600000210522212300F03AFBFF2000E0002094
:102C700040B280BD2DE9FE43044610780E4615464D
:102C8000A0F11A01102934D9AA2800F005810328DF
:102C900000F00F81122800F01E812F2800F03581EE
:102CA0005A2800F047819E2800F04F81A82800F0A4
:102CB000728100282FD1D4F8BC5248F2180029584C
:102CC000002940F0B881284490F84A00022807D033
:102CD000D4F8C002816830468847002800F0278178
:102CE0002046002102223A2300F0F9FA052028723A
:102CF000F2E1DFE801F0091B101032101010103E55
:102D0000105910108410A9002A79DFF89C14172A92
:102D100028BF172213E12046002105222023D4F8E2
:102D2000BC5200F0DCFA02206872D5E1D4F8BC1283
:102D300048F262002A790B5C02F00302012B02D1F7
:102D4000022A00F08481012A4FF0000318BF032AF1
:102D500040F082810844037008E02879D4F8BC125E
:102D600048F26202002818BF012088540020C86081
:102D7000B3E1D4E9AF5001A90DF10A02436830462E
:102D80009847002840F0A28148F26200285C02289F
:102D900000F09C8105F11000002100220C2A00F0B7
:102DA000608181540132F9E7D4E9AF5048F26801FB
:102DB0006F1848F2640105EB010843683046394654
:102DC00042469847002840F0818148F2620028443A
:102DD0000078022800F07A810821E9600020A882AA
:102DE00039680139E9740A0AAA740A0C090E2974AF
:102DF0006A74B8F8001009BA090CE9826DE1D4F8D8
:102E0000BC72387A002840F0CB8048F2180007EBFB
:102E1000000898F90400002840F10D8198F84A0054
:102E2000022800F05381D4F8C002816830468847F8
:102E3000002840F04B81D5F8020002BAC8F85420AF
:102E4000B5F80700000464E1D4F8BC72387A48BBD6
:102E500048F2180007EB0008D8F80000002800F03E
:102E6000EA8098F90400B0F1FF3F40F3E480D4F821
:102E7000C002816830468847002840F02781D4F896
:102E8000C002C16830468847002800F058812046BB
:102E90000021022227231DE1D4F8BC72387A0028D1
:102EA00000F0A9802046314603B0BDE8F04300F0B1
:102EB000C7B9D4F8BC0248F218014258002A00F001
:102EC000BA80014400F1100200230024122C71D0BA
:102ED00013550134FAE7D4F8BC0248F218014158FE
:102EE000002900F0A8806978C90740F0A980D4F8CB
:102EF000C02206EBC601D26902EB81010A79531D9B
:102F00002A79934238BF1A461BE06878800700F19F
:102F10009E80D4F8BC5248F26C0031462844D0E977
:102F200000232046FFF793FE002800F1D580002003
:102F3000E860D2E02A7A9B491B2A28BF1B22D4F8DA
:102F4000BC0200F0E2F90020C7E0D4E9AF7048F21B
:102F5000680107EB010948F2640107EB01084368C7
:102F60003046494642469847002840F0AF8048F234
:102F7000620038440078022800F0A880D5F80A00E2
:102F80000021002200BAF860D3B298427ED93B44B7
:102F900001321974F8E7D4F8BC72387A002842D0AC
:102FA0004FF40040F8603146204603B0BDE8F043DE
:102FB00000F000B90C22C27591F8493070220274F9
:102FC00091F848209A420FD000EBC20348F2400427
:102FD00001321E5D234486749B888383D3B2043BF5
:102FE00018BF134681F848301221C160297912298F
:102FF000A9D8C160A7E748F2180007EB0008D8F885
:103000000000C0B198F90400B0F1FF3F13DDD4F81F
:10301000C002816830468847002864D020460021DD
:1030200002223A2369E048F2180007EB000898F9F9
:103030000400002840D4204600210522202349E036
:10304000A97880294CD011B95949062279E7204640
:103050000021052224233DE0022A7FF487AE0223CB
:1030600078E60820E874022028830C20E8600198A4
:103070000138E875010AA975010C000E28756975FB
:10308000BDF80A0000BA000C68835CE7D9F80010AC
:10309000002038830139F9750A0ABA750A0C090E3D
:1030A00039757A75B8F8001009BA090C7983D5F822
:1030B0000A1009BAF96010E098F84A00022805D011
:1030C000D4F8C002816830468847D8B12046002134
:1030D00002223A2300F003F9FF2040B2BDE8FE834C
:1030E000324908222DE7D4F8C002C168304688472B
:1030F00070B3204600210222272300F0F0F80520BB
:103100003872E9E7D5F8020002BAC8F85420D5F8B9
:10311000060003BA20463146C8F85830FFF797FD3D
:103120000028D9D4B8F84C00D8F85820D8F80010A6
:10313000504381427FF47FAF0220387230E7D5F8E8
:10314000020002BAC8F85420B5F80700000406E0EF
:10315000D5F8020002BAC8F85420D5F8060003BA20
:1031600020463146C8F85830FFF771FD0028B3D427
:10317000B8F84C00D8F85820D8F8001002FB00F33B
:1031800099427FF458AF0120387207F110020121F3
:10319000B3F5004F28BF4FF40043204600F016FF60
:1031A000D1E600BF300000204B0000206800002066
:1031B000620000202DE9F8430446D0E9AF7048F2E0
:1031C000640248F2700307F11009BA5AFB5803FB76
:1031D00002F5B5F5004F28BF4FF400451FFA85F8FA
:1031E000066908464946B8FBF2F348F26C02BA5841
:1031F000B047B0F1FF3F19DD48F2380081214A465F
:103200002B463E18204600F07EFF3068D6E90D12AE
:10321000401B3060B08DB8FBF0F00144101AC6E9D5
:103220000D1001D103203872002006E02046002155
:103230000422112300F053F8FF2040B2BDE8F883C8
:103240002DE9F8438146D0E9AF6048F2640248F2C4
:10325000700306F11008B25AF35803FB02F7B7F5F2
:10326000004F28BF4FF40047BDB2446908464146AD
:10327000B5FBF2F348F26C02B258A047B0F1FF3F41
:103280001DDD48F2380032181068D2E90D13C01B5A
:103290001060908DB5FBF0F40D19191BC2E90D51AA
:1032A00015D001FB00F3484601214246B3F5004F1B
:1032B00028BF4FF4004300F089FE00250CE048468B
:1032C00000210422032300F00AF8FF2504E0484609
:1032D00000210025FFF76CFC68B2BDE8F88370B5EB
:1032E000D0F8BC0248F2610148F24006445C00EBB1
:1032F000C405AA55621CD4B2043C18BF14464454F9
:10330000A81900214171037170BD10B5C26032B1BE
:10331000013A94B210FA82F30C5D1C74F7E710BD09
:1033200010B586B004464FF48060059000200490EC
:10333000402003903720CDE9011001A9204600F07C
:1033400016FB2046372141F2883206B0BDE8104016
:1033500000F016BA10B586B004464FF480600590B0
:103360000020049040200390292002900648084342
:10337000019001A9204600F0FAFA204606B0BDE807
:10338000104000F0AFBA00BF0000108010B586B04A
:1033900004464FF480600590002004904020039084
:1033A0001020CDE9011001A9204600F0E0FA2046E6
:1033B000102141F2883206B0BDE8104000F0E0B9BB
:1033C00010B586B004464FF480600590002004904C
:1033D000402003900620CDE9011001A9204600F00D
:1033E000C6FA2046062141F2883206B0BDE81040F8
:1033F00000F0C6B910B586B004460020CDE9030040
:10340000CDE9010001A94FF480600590204600F04D
:10341000AEFAA9484FF4FA510068B0FBF1F041F25E
:1034200088314843C043013006D2616B0906FAD5A2
:10343000C520A063002001E04FF0004006B010BDA1
:1034400010B586B004464FF48060059001A90020B5
:10345000049040200390082002904FF4D570019012
:10346000204600F084FA94484FF4FA510068B0FB0B
:10347000F1F041F288314843C043013013D2616B0F
:1034800011F0450FF9D011F40061F6D1606B4007DF
:103490000CD4606BC0070BD1606B400601D5402097
:1034A000A063002006E04FF0004003E0042000E0AD
:1034B0000120A06306B010BD10B586B004464FF4DD
:1034C0008060059000200490402003901220CDE9F8
:1034D000011001A9204600F04AFA2046122141F2CB
:1034E000883206B0BDE8104000F04AB910B586B089
:1034F00004464FF480600590002004904020039023
:103500001120CDE9011001A9204600F030FA204633
:10351000112141F2883206B0BDE8104000F030B908
:1035200010B586B004464FF48060059001A90020D4
:103530000490402003900720CDE90120204600F0B0
:1035400016FA2046072141F2883206B0BDE8104045
:1035500000F016B910B586B004464FF48060C02163
:1035600005900391002002210490CDE9010101A9F9
:10357000204600F0FCF9204606B0BDE8104000F0FF
:103580008BB910B586B004464FF4806005900020DA
:103590000490C02003900920CDE9011001A9204624
:1035A00000F0E5F9204606B0BDE8104000F074B91F
:1035B00010B586B004464FF4806040210590039119
:1035C000002033210490CDE9010101A9204600F03B
:1035D000CEF92046332141F2883206B0BDE81040D2
:1035E00000F0CEB810B586B004464FF48060059068
:1035F00000200490402003900D20CDE9011001A986
:10360000204600F0B4F920460D2141F2883206B080
:10361000BDE8104000F0B4B8B0B586B00C46054621
:103620004FF4806040210590039100200321049015
:10363000CDE9010101A9284600F099F9B9484FF4F4
:10364000FA510068B0FBF1F041F288314843C043C1
:1036500001301FD2696B11F0450FF9D011F40061F0
:10366000F6D1686B400718D4686BC00717D128697A
:10367000C0B2032817D1C520A863686910F4604F51
:1036800013D0410415D400044FF4805058BF4FF4B8
:10369000803006E04FF0004003E0042000E001200D
:1036A000A86306B0B0BD0120FBE7000C208000201D
:1036B000F7E74FF40050F4E77000002010B586B033
:1036C00004464FF4806040210590039100200C21B6
:1036D0000490CDE9010101A9204600F048F9044A0F
:1036E00020460C2106B0BDE8104000F049B800BFEC
:1036F00000E1F50510B586B004464FF480600590F2
:1037000000200490402003901920CDE9011001A968
:10371000204600F02CF92046192141F2883206B0EB
:10372000BDE8104000F02CB810B586B004464FF448
:103730008060059000200490402003901820CDE97F
:10374000011001A9204600F012F92046182141F28B
:10375000883206B0BDE8104000F012B8B0B591E86C
:103760003C00426283620A6945EA040349691A43DC
:103770001143C26A22F0F7021143C1620020B0BDBA
:1037800010B5034667484FF4FA540068B0FBF4F0F4
:103790005043013001383FD05A6B12F0450FF9D039
:1037A00012F40062F6D1586B400738D4586BC0074A
:1037B00037D1C52098631869C0B2884234D158699E
:1037C0003449084232D0002832D4410033D4810039
:1037D00033D4C10033D4010134D4410135D4C10103
:1037E00036D4010237D4410238D4810239D4C1021F
:1037F0003AD441033BD481033CD4C1033DD40104FA
:103800003ED441043FD4810440D400074FF400006B
:1038100058BF4FF4803010BD4FF0004010BD042061
:1038200000E00120986310BD012010BD002010BDF4
:103830004FF0007010BD402010BD802010BD4FF42F
:10384000807010BD4FF4007010BD4FF4806010BD4B
:103850004FF4006010BD4FF4805010BD4FF4005085
:1038600010BD4FF4804010BD4FF4004010BD4FF428
:10387000003010BD4FF4802010BD4FF4002010BD6B
:103880004FF4801010BD4FF4001010BD4FF48000B5
:1038900010BD00BF08E0FFFD22494FF4FA5209684D
:1038A000B1FBF2F141F288325143C943013110D2E8
:1038B000426B12F0450FF9D012F40062F6D1416B61
:1038C000490709D4416BC90708D1C521816300218B
:1038D00006E04FF0004103E0042100E00121816394
:1038E000084670470F494FF4FA520968B1FBF2F1EC
:1038F00041F288325143C94301310ED2426B12F07A
:10390000450FF9D012F40062F6D1416B042211F098
:10391000040108BFC522826301E04FF00041084660
:10392000704700BF70000020006800F0030070477F
:10393000084440697047B0B51143049A446847F69B
:10394000FF651943AC431143059A1143069A11438D
:10395000214341600020B0BD80B5032101600220F9
:10396000FCF75CFE002080BDD0F88000704770B589
:1039700091E83C00826040F6FF762343C268096903
:103980002B43B24319431143C160002070BD096845
:10399000C0F88010002070472DE9F04188B00C4637
:1039A0000546FCF727FF06460020CDE90000082168
:1039B0002868FFF7EBFC002851D1296D286809041D
:1039C000FFF7AEFC00284AD10120079002A9002091
:1039D00006900220059030200490082003904FF0BC
:1039E000FF3002902868FFF7B9FE2868FFF7E0FD76
:1039F000A8BB0027E8462968486B10F02A0F14D1AD
:103A0000486B800203D4486B800406D40DE008465E
:103A1000FFF7AAFF48F827000137FCF7EBFE801BF1
:103A200001304FF00040E6D119E0486B000710D498
:103A3000486B80070FD4486B80060ED440F23A5092
:103A40008863DDE9000100BA09BAC4E9001000206A
:103A500005E0082002E0022000E02020886308B092
:103A6000BDE8F081B0B588B00D46224869461446DD
:103A7000FEF7EEFBDDE90601218001382860002019
:103A800008B0B0BD002070470020704710B58AB064
:103A90000320184C8DF8270001A92046FEF7D8FB1B
:103AA0002046FEF7F9FB012802D100208DF82700FF
:103AB0009DF927000AB010BD002070471CB50A20F0
:103AC0000C4C00902046FEF777FD2046FEF7D0FB19
:103AD0000428FAD100201CBD1CB50A20054C00901A
:103AE0002046FEF753FE2046FEF7C2FB0428FAD11B
:103AF00000201CBDB00A00207047FCF77FBE00000C
:103B0000F0B5B3B027AD1421281DFCF7B1FB01AC13
:103B10007821201DFCF7ACFB214802260027016814
:103B200041F080510160006800F08050229022989E
:103B30001C48016866F38F310160006800F4404062
:103B400022900E20CDE93160A820309008202F90DF
:103B5000CDE92D67279610202B9001202A902298DE
:103B60002846FEF789F84FF48050269005214FF43F
:103B7000A0502590CDE923670F20229022A8FDF7C1
:103B800065FF4FF42000CDE9207701902046FDF736
:103B9000F7FC002000210022FEF726F833B0F0BD2C
:103BA00040380240007000400248016841F4700152
:103BB0000160704788ED00E080B5D0F8B8220AB106
:103BC00052689047002080BD80B513460A46002108
:103BD00000F0FCF9002080BD80B513460A460021A4
:103BE00000F091FA002080BD10B58021044600F05D
:103BF0006FFA20460021BDE8104000F069BA80B598
:103C00000521C0F8941200220023002100F0DEF903
:103C1000002080BD80B513460A460221C0E9063364
:103C2000C0F89412002100F06EFA002080BD80B52B
:103C30000421C0F8941200220023002100F063FA4E
:103C4000002080BDB0B5C8B100230446257815B169
:103C500001340133FAE7DCB2022303EB440414809D
:103C600003224A700C70002204783CB1DDB20233AA
:103C700001304C5545F001040A55F5E7B0BD000090
:103C8000032805D8C000034921FA00F0C0B27047EC
:103C9000032070470003010310B52A4C0A4603A015
:103CA0002146FFF7CFFF204610BD00BF4D534320F4
:103CB000436F6E66696700001220088000487047F5
:103CC0008000002010B51F4C0A4603A02146FFF7D4
:103CD000B9FF204610BD00BF4D534320496E7465A7
:103CE0007266616365000000042008800048704728
:103CF0009400002010B5134C0A4603A02146FFF79C
:103D0000A1FF204610BD00BF53544D6963726F651B
:103D10006C656374726F6E696373000010B5094C53
:103D20000A4603A02146FFF78DFF204610BD00BFC5
:103D300053544D3332204D6173732053746F72614D
:103D4000676500007C010020B0B51A200880094991
:103D500008688A6880180BD0074D4C680822A91C97
:103D6000FEF7FBFD05F1120120460422FEF7F5FDEA
:103D70000148B0BD20F4F01F5C0100200C20088039
:103D80000048704774000020A0B1D0F8B83213B1D9
:103D90000023C0F8B832D0F8CC3213B10023C0F8F9
:103DA000CC3209B1C0F8B4120121027080F89C1223
:103DB00000F0B6B80320704780B5D0F8C402FCF715
:103DC0004DFEBDE88040FFF75BBF80B5D0F8C40270
:103DD000FCF71FFEBDE88040FFF752BFB0B50446B8
:103DE00071B1D4F8B802426942B194F89C02032838
:103DF00004D120469047002841D0B0BD0320B0BD7B
:103E0000D4F89402022833D1D4E9070188420DD9AD
:103E1000431A11462046E3611A46FFF7DDFE2046AD
:103E200000210022002300F0D1F821E00FD1A16988
:103E300081420CD3D4F89802814208D22046002156
:103E400000220025FFF7C8FEC4F89852E7E7D4F82F
:103E5000B802C16829B194F89C02032801D1204618
:103E600088472046802100F033F92046FFF7C7FE3F
:103E700094F8A002012802D1002084F8A0020020BA
:103E8000B0BD10B5044669B1D4F8B80282693AB140
:103E900094F89C02032803D12046904718B310BD24
:103EA000032010BDD4F8940203281CD1D4E9570391
:103EB00098420BD9C01AC4F85C011146984238BF29
:103EC000034620461A46FFF77FFE0CE0D4F8B802FE
:103ED000016929B194F89C02032801D12046884742
:103EE0002046FFF7A4FE002010BD0020704780B5DB
:103EF000D0F8B822012180F89C1212B101795268E1
:103F00009047002080BD80B5D0F8C402FCF7D3FDF7
:103F1000BDE88040FFF7B4BED0F8C402FCF7E4BDB2
:103F200010B5017801292AD11649C0F8C41201221E
:103F3000C1F800040020C1E90B004863C1E9062074
:103F4000C1E90800C1E903000F4A0820C1E90020C7
:103F50000846FDF793F908B1FCF719FA094C4FF43C
:103F600000712046FCF716FD204600218022FCF758
:103F700015FD204601214FF4BA72FCF70FFD002019
:103F800010BD00BFAC0600200000044001F07F021D
:103F9000D0F8C4020906C2EBC20200EB820000F1B5
:103FA0003E0258BF00F5FF7210787047002070473E
:103FB0000020704710B514461A46D0F8C4022346B4
:103FC000FCF79BFDBDE81040FFF75ABE80B5D0F866
:103FD000C402FCF7C0FDBDE88040FFF751BE70B5DC
:103FE000044600200125C4F89402C4F8A4026060CD
:103FF000D4F8BC0284F89C5228B1D4F8B80200214D
:104000004268204690472046002100224023402657
:10401000FFF7D0FF2046802100224023A4F86451FE
:10402000C4F86061FFF7C6FF0020A584266270BD5A
:1040300090F89C12042903D190F89D1280F89C12EC
:104040000020704780B590F89C12032904D1D0F865
:10405000B812C96901B18847002080BD01740020F1
:10406000704780B5D0F8C402FDF741FABDE8804042
:10407000FFF706BEB0B500F2AA250446284600F0B8
:104080001CF9B4F8B0120120C4E9A50194F8AA0201
:1040900000F01F01022908D001290CD089B920465F
:1040A0002946BDE8B04000F02FB920462946BDE8BA
:1040B000B04000F08DBA20462946BDE8B04000F07F
:1040C00024BB00F080012046BDE8B040AFF3008083
:1040D00080B5D0F8C402FCF75FFDBDE88040FFF773
:1040E000CFBD80B5D0F8C402FDF71CFABDE8804012
:1040F000FFF7C6BD90F89C1280F89D12042180F84D
:104100009C120020704780B5D0F8C402FCF77BFDFC
:10411000BDE88040FFF7B4BD80B5FEF77CFC002011
:1041200080BD80B5FEF798FC002080BDB0B50121B0
:104130000446FFF74AFE204681210025A4F8785165
:10414000FFF743FE20462587FEF7F4FCD4F8BC02B7
:1041500018B101F079F8C4F8BC520020B0BD0000DD
:104160000A210180004870471001002020210180B1
:1041700000487047D000002020210180004870478F
:10418000F000002020210180004870471C01002021
:1041900070B5044648F2740001F07EF8E0B1C4F84E
:1041A000BC02207C4025012102220126002808BFF4
:1041B0004FF4007520462B46FFF7FCFE2046812178
:1041C00002222B46A4F87861FFF7F4FE20462687EA
:1041D000FEF7B5FC002070BD0020C4F8BC02022030
:1041E00070BD19B1C0F8C01200207047032070479D
:1041F0007CB50446D0F8BC620020ADF806000D4640
:10420000087810F0600116D0202950D16978FF2974
:1042100022D0FE294BD16988002948D1000646D515
:10422000E888012843D1D4F8C00280698047306013
:104230002046314636E068780B2817D001281CD07C
:104240000A2829D098BB94F89C0203282FD10DF19D
:1042500006012046022226E0698841BB000626D4DA
:10426000E88820BB2046FEF78AFC1EE094F89C02FA
:1042700003281CD1A878706017E094F89C020328EA
:1042800013D1688888B929792046FFF73CFE29793F
:104290002046FEF7A2FB08E094F89C02032806D112
:1042A000311D20460122FFF7B5FC00207CBD2046D1
:1042B0002946FFF799FC03207CBD0A7802704A78F2
:1042C00042704A8842808A888280C988C18070474B
:1042D0001CB504464FF00000ADF8060049B1C4F823
:1042E000B812896A0DF106008847C4F8CC02002094
:1042F0001CBD03201CBDD0F8B8220AB112681047BB
:1043000003207047FFF7EDBEBCB5044608780D46A4
:1043100010F060000DD0402818BF202840F02F81F9
:10432000D4F8B80229468268204602B0BDE8B04001
:1043300010476878092800F22281DFE810F00A00AF
:1043400020002001310020013900590020017300B4
:10435000850094F89C020138022800F21081E88858
:10436000022840F00C81D4F8A40203222146002840
:1043700008BF0122204641F80C2F0222FCE094F8ED
:104380009C020138022800F2FA8068880025012882
:1043900040F0F980C4F8A4522046FFF748FCF2E050
:1043A0006888012840F0EE800120C4F8A402ECE007
:1043B000A888002840F0E380E888002840F0DF80EB
:1043C00068887F2800F2DB8094F89C12032900F0B3
:1043D000D680C5B284F89E0220462946FFF741FEEA
:1043E0002046FFF724FC002D00F0EC800220EAE0DC
:1043F0000020ADF806004FF0FF31688801EB102176
:104400000E2900F2BC80DFE801F0086B72BABA7EB8
:1044100087BABABABABABABA9200D4F8B412207C3F
:104420000A6889E0E888012840F0A98094F89C0295
:10443000411E022927D2214620460122002541F8AB
:10444000085FFFF7E7FB9EE06888604DC1B2287007
:10445000022903D32046FFF7C7FB3FE094F89C02F4
:10446000032817D0022832D1002900F08E80204680
:104470006160FFF740FF002800F08B800546204672
:10448000FFF7B2FB7FE0032840F07980211D204632
:10449000012271E0002954D06068884200F07580E4
:1044A000C1B22046FFF788FB297820466160FFF7FC
:1044B00022FF002869D005462046FFF795FB2179A9
:1044C0002046FFF779FB022084F89C025BE020463F
:1044D000FFF78AFB29782046FFF76EFB032552E0A1
:1044E000217CD4F8B802002934D0C16A33E0C0B2CC
:1044F000052844D8DFE800F00352565A5E62D4F82B
:10450000B402426816E0207CC8BBD4F8B802416B04
:104510000DF10600884712E0207C80BBD4F8B80279
:10452000016B0DF1060088470146072018E0D4F81A
:10453000B402C2691AB3207C0DF10601904701460E
:104540000FE0022084F89C02002565602046FFF7FA
:1045500033FB21E7816A0DF10600884701460220FE
:104560004870EA888AB1BDF8060040B1904238BF71
:104570000246ADF806202046FFF74CFB02E020463D
:10458000FFF732FB00252846BCBD2046FFF74FFB56
:10459000F8E72046FFF74BFB032014E0D4F8B40201
:1045A0008268C7E7D4F8B402C268C3E7D4F8B4029B
:1045B0000269BFE7D4F8B4024269BBE7D4F8B40299
:1045C0008269B7E7012084F89C02DBE778010020CC
:1045D000B0B5044608780D4610F060000BD04028B6
:1045E00018BF20286DD1D4F8B80229468268204629
:1045F000BDE8B040104768782979B0B101282FD0C4
:1046000003285ED194F89C0203282DD1688840B914
:1046100041F08000802804D0E88810B92046FFF7D8
:1046200057FD2046FFF703FB4EE094F89C02032859
:1046300028D0022845D141F08000802841D101F0E6
:104640007F00090600EB800004EB800000F11402FB
:1046500058BF00F5AA72002010601146204650E0B5
:1046600094F89C02032831D002282AD141F080001E
:10467000802826D02046FFF72BFD20468021FFF71B
:1046800027FD21E001F00F0211F0800002EB820211
:1046900004EB820214BF928CB2F864218AB101F05B
:1046A0007F02002841F0800002EB820204EB8202CC
:1046B00002F5AA7518BF02F11405802818D1002050
:1046C0001CE02046FFF790FA0020B0BD6888002863
:1046D000FAD1480602D02046FFF76EFB2046FFF7CE
:1046E000A6FAD4F8B8022946826820469047EBE73C
:1046F0002046FFF74BFC0028E1D00120286020462F
:1047000029460222FFF786FADEE7B0B504460878AC
:104710000D4610F0600018BF402815D194F89C0297
:104720000138022812D8A88810F0FE0F0ED1D4F854
:10473000B802294682682046904758B9E98849B9A5
:104740002046FFF774FA04E02028E7D02046FFF760
:104750004BFA0020B0BD0000B0B50A784C780125B6
:1047600002F00F03012C05FA03F318D1D0F81C480E
:104770002343C0F81C3800F510605301C4582404CA
:1047800024D41C588D68C9786FF3DF2545EA82521E
:10479000224342EA81410E4A1143195016E0D0F8F3
:1047A0001C48520144EA0343C0F81C3800F530604D
:1047B00083581B040AD413588C68C9786FF3DF241C
:1047C000234343EA8141024B194311500020B0BDFD
:1047D00000800010D0F8001940F2FF729143C0F839
:1047E0000019D0F8041841F48071C0F804180020B2
:1047F00070470000B0B504460698049D012817D103
:10480000A16B164A0D9821F48031A1630128E1685B
:1048100001EA0201E160E16821F44011E16003D1A5
:10482000E06840F48010E060204600F019F80AE0EB
:10483000E06840F04000E060204600F011F8A16B15
:1048400041F48031A163012D07D1A16841F0060137
:10485000A160A16841F02001A160B0BDBFFFBDFF14
:104860000A490A46013A0ED00369B3F1FF3FF9DC69
:10487000026942F001020261013904D00269D207E3
:10488000FAD1002070470320704700BF410D03009C
:1048900010B50A784B781E49012B00EB421410D159
:1048A00004F51063D4F80049B4F1FF3F07DC1C683D
:1048B00044F000641C601C6844F080441C600124C7
:1048C00012E004F53063D4F8004B01F17071B4F1DB
:1048D000FF3F07DC1C6844F000641C601C6844F067
:1048E00080441C604FF4803402F00F0204FA02F29C
:1048F000D0F83C489443C0F83C48D0F81C4824EA1F
:104900000202C0F81C28186808401860002010BD7A
:10491000007833ECD0F8001E21F00301C0F8001E2F
:10492000D0F8041821F00201C0F8041800207047E4
:10493000D0F8001E21F00301C0F8001ED0F80418C2
:1049400041F00201C0F80418002070472DE9F84F2B
:104950000D468046DDF844A00C98DDF828904121F2
:104960000022502903D048F821200131F9E7BAF19B
:10497000000F06D0D8F8381041F40011C8F83810EC
:1049800017E0D8F8041841F00201C8F80418D8F864
:10499000381021F40011C8F83810D8F8001041F090
:1049A0004001C8F80010D8F8001041F08001C8F8A4
:1049B000001008F5006B0021C8F8001E0328DBF882
:1049C0000010CBF8001018BF012806D1DBF800005A
:1049D000002B18BF40F0010003E0DBF8000040F0BE
:1049E0000300CBF800004046102100F00DFA064607
:1049F000404600F0FDF90021304308F510624FF603
:104A00007F330026CBF81010CBF81410CBF81C1015
:104A1000B5420FD04FF09047002E06F1010608BFB7
:104A20004FF00067146807EAE47414601161936042
:104A30002032EDE708F5306100224FF67F33002683
:104A4000002818BF0120B5420FD04FF09044002E2F
:104A500006F1010608BF4FF000640F6804EAE7742E
:104A60000C600A618B602031EDE7DBF81010B9F1C2
:104A7000000F21F48071CBF810104FF00001C8F83E
:104A800018106FF08041C8F8141005D1D8F818102C
:104A900041F01001C8F81810D8F818100B4A11434B
:104AA000C8F818100D9929B1D8F8181041F008016C
:104AB000C8F81810BAF1010F05D1D8F81810044A37
:104AC0001143C8F81810BDE8F88F00BF00383C80CB
:104AD00004000040816821F00101816000207047DE
:104AE000F0B54B7891F800E0012B1DD100EB4E138F
:104AF000334F344CD3F810694D6903F51063C5B3D7
:104B000026401E611E693E401E618E68B54201D975
:104B100035464E611E6946F400261E6107F10056B7
:104B20001F692E403E432FE000EB4E10244CD0F87E
:104B3000103B6FF31203C0F8103BD0F8103B6FF33B
:104B4000DC43C0F8103B4D6900F53063886805B15F
:104B500048611D6904F10054012A45F400251D61D6
:104B600000EA04001C6940EA0400186112D1C86818
:104B70000EE006EA07051D611D6945F400251D616B
:104B80001D6905EA04060025012A1E6109D108698C
:104B900000B158614FF004411868084318600020C4
:104BA000F0BD1968002D41F004411960F7D00EF0F6
:104BB0000F01012200F6340302FA01F1ECE700BF15
:104BC000FFFF07E00000F8FF10B5036C134CA34291
:104BD00003D3D0F8003B002B1ED40023C0F8103BB9
:104BE0000129D0F8103B43F40023C0F8103BD0F863
:104BF000103B43F01803C0F8103BD0F8103B43F0D3
:104C0000C043C0F8103B07D1C0F8142BD0F8001BEC
:104C100041F08021C0F8001B002010BD0B30544F24
:104C20000A784B785201012B14BF00F5306000F573
:104C30001060835823F400138350C97801F0FE01FB
:104C4000022903D1115841F08051115000207047C2
:104C50000A784978012900EB421019BFD0F8001BEF
:104C600000F53060D0F8001900F510602AB1002975
:104C700003D4016821F080410160016841F4001112
:104C80000160002070470000F8B54B780C78012BCC
:104C90002BD100EB4413D3F810694D6903F5106371
:104CA000002D44D06FF312061E611E696FF3DC46BF
:104CB0001E618E68AF19013FB7FBF6F6484F07EA51
:104CC000C6461F693E431E612E461F696FF3DF46CD
:104CD0003E431E61CE78012E34D11E6926F0C046B7
:104CE0001E611E6946F000562BE000EB4413D3F81A
:104CF000104B6FF31204C3F8104BD3F8104B6FF343
:104D0000DC44C3F8104B03F530634D698C68B5B3D0
:104D10002544334E1F69013DB5FBF4F506EAC5464F
:104D2000ADB26C433E431E616FF3DF442EE06FF380
:104D3000DC461E611E6946F400261E611E696FF383
:104D400012061E61012A01D10A6926E01E6846F09A
:104D500004461E60CE78012E35D1D0F80868F605DD
:104D60004FF0805658BF4FF000561F683E431E60FC
:104D7000ABB2C9680092224600F040F921E06FF31F
:104D8000DF441D692C431C614FF400241D69012A76
:104D900044EA05041C6102D1CA6802B15A61C978AB
:104DA00001290AD1D0F80808C0054FF0805058BF3B
:104DB0004FF00050196808431860186840F004402C
:104DC00018600020F8BD002DFBD004F00F01012277
:104DD00002FA01F1D0F834281143C0F83418F0E792
:104DE0000000F81F816841F00101816000207047D8
:104DF000102101610B49013904D00269D206FAD4AD
:104E00000020704703207047890120310161054966
:104E1000013904D002699206FAD4002070470320B9
:104E2000704700BF410D0300D0F8080800F00601EC
:104E30000F2041F00402062A08BF0220002908BF03
:104E400008467047406900F001007047D0F8181814
:104E5000D0F81C08084080B27047D0F81818D0F875
:104E60001C080840000C704710B5D0F81028D0F886
:104E7000344801F00F0300EB411024FA03F3DB0187
:104E8000D0F80809DBB21A43104010BD00EB411105
:104E9000D1F8081BD0F814080840704741698069B0
:104EA0000840704710B503324FF48053920822B186
:104EB000C45841F8044B013AF9E7084610BD80B5E3
:104EC000C268012922F0C042C26003D061B94FF02C
:104ED000804101E04FF00051C2681143C1603220AF
:104EE000FBF79CFB002080BD012080BDD0F800288E
:104EF00001F07F0122F4FE62C0F80028D0F80028FB
:104F000042EA0111C0F8001800207047022A34D18B
:104F1000284A294B0A449A4202D24FF470512EE09B
:104F2000264A274B0A449A4202D24FF4605126E0A7
:104F3000244A254B0A449A4202D24FF450511EE0B3
:104F4000224A234B0A449A4202D24FF4405116E0BF
:104F5000204A214B0A449A4202D24FF430510EE0CB
:104F60001E4A1F4B0A449A4202D24FF4205106E0D7
:104F70001C4A1D4B0A449A420AD24FF41051C2688F
:104F800022F47052C260C2681143C16000207047B1
:104F9000164A174B0A449A4202D24FF40051EEE7E8
:104FA000144A154B0A444FF4C0519A4238BF4FF48B
:104FB000E051E4E7405327FF00350C00401E1BFF83
:104FC00040420F0000DC0BFF804F1200808CF9FE86
:104FD00020D6130060B6E5FE60E3160000D3CEFED7
:104FE00040771B00C05BB3FEC091210000CA91FE58
:104FF00020753800E05459FEE09C410010B5029C39
:105000000CB1002010BD0333120300F580509B0843
:10501000002BF6D051F8044B1450013BF8E7FEE7A3
:1050200010B500F00F03064C044AB0F1FF3F2344D3
:10503000C8BF83180801187010BD00BF00E400E06D
:1050400014ED00E086B0FBF7E3FBFEF759FD6E4977
:105050000027CDE90477DFF8B8A100224FF0040B58
:10506000086840F010000860086800F01000009028
:105070000098086840F004000860086800F0040028
:1050800000900098086840F001000860086800F08F
:10509000010000900098086840F00200086008686D
:1050A00000F0020000900098086840F008000860D6
:1050B0000868042100F0080000900098534800F5AB
:1050C000544605463046D04705F55C48202100226D
:1050D0004046D04705F56044032101224FF0010905
:1050E0002046D0472046B0210022D04749480397A8
:1050F000CDE901B0DFF820A105F5644001AD2946F6
:10510000D04730462946CDE90377CDE901B9D047EC
:1051100020200497CDE90297019029464046D047C8
:105120004FF480700597CDE90377019029464FF041
:105130000208CDF808803046D0474FF40060CDE932
:105140000277019029463046D0474FF400404FF097
:10515000050BCDE9047BCDE9028701902946304655
:10516000D04703211120CDE90391CDE9011020465C
:105170002946D047274802902946082603970196DA
:105180002046D047B0200497CDE9029701902946E8
:105190002046D047CDF814B0CDE90377CDE90168BA
:1051A0001A4E294606F55840D0471C4C08200121CC
:1051B0000022A0471A4D0820A847092001210022FB
:1051C000A0470920A84710490022086840F4800041
:1051D00008600868002100F48000019001983B20DD
:1051E000A0473B20A847FDF701FD0E4C18212046A3
:1051F00040C0FBF73DF82046FDF751F820464FF43C
:105200000061FCF7E3FEFEE730380240002C01406D
:10521000E90701080000211055060108B50801083A
:1052200099080108B00A002002E008C8121F08C14E
:10523000002AFAD170477047002001E001C1121F17
:10524000002AFBD17047000010B5002821D0114B77
:105250000022001F196803E0814203D80A4649680A
:105260000029F9D152B11368841A9C4204D1006814
:1052700018441060104602E0506000E0186039B138
:1052800002680B1A934203D10B681A440260496802
:10529000416010BD00000020F0B50B30154D20F02E
:1052A00007010024144A0FE003688B420BD38B42A2
:1052B00005D95E1A43184768C3E9006700E04368F0
:1052C000136002C004E0021D10680028ECD12046E3
:1052D000002802D1286808B10020F0BD064A07481E
:1052E0001060074A121A22F00702C0E900240120C8
:1052F0002860D7E704000020000000203C0B0020BD
:10530000380B01200000000000000000010203042F
:1053100006070809008002021F00000053544D20B8
:105320002020202050726F6475637420202020207C
:1053300020202020302E303158530108000000205A
:1053400078010000E80201082854010878010020D3
:10535000C01101003852010881320132101EB93CDF
:105360000108E9041AF5041E1D3D010849041A99B3
:105370000C1AC5041A7D0C116226031108120A14B6
:1053800022173112021A80021B082001111324F483
:1053900014050F0C3601071002022C12010107162A
:1053A0004083042A571D0201020389180A040309D5
:1053B00004914101082D041AF104811A190C9A2351
:1053C00010411A79101A6D041A85041A610414091F
:1053D00002201808010104C032090478200A0806D6
:1053E000500507058102402C070501070914201903
:1053F000A2292019071B0A060519901987110B1CF1
:1054000009074C1E893A010865041A8D041AB9046B
:105410001ABD041AD9041A8504071A145301081A6C
:08542000030000000000000081
:04000005080101C924
:00000001FF
